{
	"data": {
		"bytecode": {
			"linkReferences": {},
			"object": "60806040526363e97d806009553480156200001957600080fd5b506040518060400160405280601081526020017f53757065726275726e20536e61636b73000000000000000000000000000000008152506040518060400160405280600681526020017f534e41434b530000000000000000000000000000000000000000000000000000815250816002908162000097919062000439565b508060039081620000a9919062000439565b50620000ba620000e860201b60201c565b6000819055505050620000e2620000d6620000f160201b60201c565b620000f960201b60201c565b62000520565b60006001905090565b600033905090565b6000600860009054906101000a900473ffffffffffffffffffffffffffffffffffffffff16905081600860006101000a81548173ffffffffffffffffffffffffffffffffffffffff021916908373ffffffffffffffffffffffffffffffffffffffff1602179055508173ffffffffffffffffffffffffffffffffffffffff168173ffffffffffffffffffffffffffffffffffffffff167f8be0079c531659141344cd1fd0a4f28419497f9722a3daafe3b4186f6b6457e060405160405180910390a35050565b600081519050919050565b7f4e487b7100000000000000000000000000000000000000000000000000000000600052604160045260246000fd5b7f4e487b7100000000000000000000000000000000000000000000000000000000600052602260045260246000fd5b600060028204905060018216806200024157607f821691505b602082108103620002575762000256620001f9565b5b50919050565b60008190508160005260206000209050919050565b60006020601f8301049050919050565b600082821b905092915050565b600060088302620002c17fffffffffffffffffffffffffffffffffffffffffffffffffffffffffffffffff8262000282565b620002cd868362000282565b95508019841693508086168417925050509392505050565b6000819050919050565b6000819050919050565b60006200031a620003146200030e84620002e5565b620002ef565b620002e5565b9050919050565b6000819050919050565b6200033683620002f9565b6200034e620003458262000321565b8484546200028f565b825550505050565b600090565b6200036562000356565b620003728184846200032b565b505050565b5b818110156200039a576200038e6000826200035b565b60018101905062000378565b5050565b601f821115620003e957620003b3816200025d565b620003be8462000272565b81016020851015620003ce578190505b620003e6620003dd8562000272565b83018262000377565b50505b505050565b600082821c905092915050565b60006200040e60001984600802620003ee565b1980831691505092915050565b6000620004298383620003fb565b9150826002028217905092915050565b6200044482620001bf565b67ffffffffffffffff81111562000460576200045f620001ca565b5b6200046c825462000228565b620004798282856200039e565b600060209050601f831160018114620004b157600084156200049c578287015190505b620004a885826200041b565b86555062000518565b601f198416620004c1866200025d565b60005b82811015620004eb57848901518255600182019150602085019450602081019050620004c4565b868310156200050b578489015162000507601f891682620003fb565b8355505b6001600288020188555050505b505050505050565b615c8980620005306000396000f3fe60806040526004361061012a5760003560e01c8063715018a6116100ab578063a22cb4651161006f578063a22cb465146103d0578063b88d4fde146103f9578063c87b56dd14610415578063e757223014610452578063e985e9c51461048f578063f2fde38b146104cc5761012a565b8063715018a61461030a57806385bb3654146103215780638da5cb5b1461035e57806395d89b4114610389578063a0712d68146103b45761012a565b806323b872dd116100f257806323b872dd1461021b57806342842e0e146102375780636352211e1461025357806365ae654e1461029057806370a08231146102cd5761012a565b806301ffc9a71461012f57806306fdde031461016c578063081812fc14610197578063095ea7b3146101d457806318160ddd146101f0575b600080fd5b34801561013b57600080fd5b5061015660048036038101906101519190611c1b565b6104f5565b6040516101639190611c63565b60405180910390f35b34801561017857600080fd5b50610181610587565b60405161018e9190611d0e565b60405180910390f35b3480156101a357600080fd5b506101be60048036038101906101b99190611d66565b610619565b6040516101cb9190611dd4565b60405180910390f35b6101ee60048036038101906101e99190611e1b565b610698565b005b3480156101fc57600080fd5b506102056107dc565b6040516102129190611e6a565b60405180910390f35b61023560048036038101906102309190611e85565b6107f3565b005b610251600480360381019061024c9190611e85565b610b15565b005b34801561025f57600080fd5b5061027a60048036038101906102759190611d66565b610b35565b6040516102879190611dd4565b60405180910390f35b34801561029c57600080fd5b506102b760048036038101906102b29190611d66565b610b47565b6040516102c49190611e6a565b60405180910390f35b3480156102d957600080fd5b506102f460048036038101906102ef9190611ed8565b610b6d565b6040516103019190611e6a565b60405180910390f35b34801561031657600080fd5b5061031f610c25565b005b34801561032d57600080fd5b5061034860048036038101906103439190611d66565b610c39565b6040516103559190611e6a565b60405180910390f35b34801561036a57600080fd5b50610373610c74565b6040516103809190611dd4565b60405180910390f35b34801561039557600080fd5b5061039e610c9e565b6040516103ab9190611d0e565b60405180910390f35b6103ce60048036038101906103c99190611d66565b610d30565b005b3480156103dc57600080fd5b506103f760048036038101906103f29190611f31565b610e11565b005b610413600480360381019061040e91906120a6565b610f1c565b005b34801561042157600080fd5b5061043c60048036038101906104379190611d66565b610f8f565b6040516104499190611d0e565b60405180910390f35b34801561045e57600080fd5b5061047960048036038101906104749190611d66565b610fa1565b6040516104869190611e6a565b60405180910390f35b34801561049b57600080fd5b506104b660048036038101906104b19190612129565b6110ad565b6040516104c39190611c63565b60405180910390f35b3480156104d857600080fd5b506104f360048036038101906104ee9190611ed8565b611141565b005b60006301ffc9a760e01b827bffffffffffffffffffffffffffffffffffffffffffffffffffffffff1916148061055057506380ac58cd60e01b827bffffffffffffffffffffffffffffffffffffffffffffffffffffffff1916145b806105805750635b5e139f60e01b827bffffffffffffffffffffffffffffffffffffffffffffffffffffffff1916145b9050919050565b60606002805461059690612198565b80601f01602080910402602001604051908101604052809291908181526020018280546105c290612198565b801561060f5780601f106105e45761010080835404028352916020019161060f565b820191906000526020600020905b8154815290600101906020018083116105f257829003601f168201915b5050505050905090565b6000610624826111c4565b61065a576040517fcf4700e400000000000000000000000000000000000000000000000000000000815260040160405180910390fd5b6006600083815260200190815260200160002060000160009054906101000a900473ffffffffffffffffffffffffffffffffffffffff169050919050565b60006106a382610b35565b90508073ffffffffffffffffffffffffffffffffffffffff166106c4611223565b73ffffffffffffffffffffffffffffffffffffffff1614610727576106f0816106eb611223565b6110ad565b610726576040517fcfb3b94200000000000000000000000000000000000000000000000000000000815260040160405180910390fd5b5b826006600084815260200190815260200160002060000160006101000a81548173ffffffffffffffffffffffffffffffffffffffff021916908373ffffffffffffffffffffffffffffffffffffffff160217905550818373ffffffffffffffffffffffffffffffffffffffff168273ffffffffffffffffffffffffffffffffffffffff167f8c5be1e5ebec7d5bd14f71427d1e84f3dd0314c0f7b2291e5b200ac8c7c3b92560405160405180910390a4505050565b60006107e661122b565b6001546000540303905090565b60006107fe82611234565b90508373ffffffffffffffffffffffffffffffffffffffff168173ffffffffffffffffffffffffffffffffffffffff1614610865576040517fa114810000000000000000000000000000000000000000000000000000000000815260040160405180910390fd5b60008061087184611300565b915091506108878187610882611223565b611327565b6108d35761089c86610897611223565b6110ad565b6108d2576040517f59c896be00000000000000000000000000000000000000000000000000000000815260040160405180910390fd5b5b600073ffffffffffffffffffffffffffffffffffffffff168573ffffffffffffffffffffffffffffffffffffffff1603610939576040517fea553b3400000000000000000000000000000000000000000000000000000000815260040160405180910390fd5b610946868686600161136b565b801561095157600082555b600560008773ffffffffffffffffffffffffffffffffffffffff1673ffffffffffffffffffffffffffffffffffffffff168152602001908152602001600020600081546001900391905081905550600560008673ffffffffffffffffffffffffffffffffffffffff1673ffffffffffffffffffffffffffffffffffffffff1681526020019081526020016000206000815460010191905081905550610a1f856109fb888887611371565b7c020000000000000000000000000000000000000000000000000000000017611399565b600460008681526020019081526020016000208190555060007c0200000000000000000000000000000000000000000000000000000000841603610aa55760006001850190506000600460008381526020019081526020016000205403610aa3576000548114610aa2578360046000838152602001908152602001600020819055505b5b505b838573ffffffffffffffffffffffffffffffffffffffff168773ffffffffffffffffffffffffffffffffffffffff167fddf252ad1be2c89b69c2b068fc378daa952ba7f163c4a11628f55a4df523b3ef60405160405180910390a4610b0d86868660016113c4565b505050505050565b610b3083838360405180602001604052806000815250610f1c565b505050565b6000610b4082611234565b9050919050565b6000814211610b63574282610b5c91906121f8565b9050610b68565b600090505b919050565b60008073ffffffffffffffffffffffffffffffffffffffff168273ffffffffffffffffffffffffffffffffffffffff1603610bd4576040517f8f4eb60400000000000000000000000000000000000000000000000000000000815260040160405180910390fd5b67ffffffffffffffff600560008473ffffffffffffffffffffffffffffffffffffffff1673ffffffffffffffffffffffffffffffffffffffff16815260200190815260200160002054169050919050565b610c2d6113ca565b610c376000611448565b565b6000603c610c4683610b47565b10610c6a57603c4283610c5991906121f8565b610c63919061225b565b9050610c6f565b600090505b919050565b6000600860009054906101000a900473ffffffffffffffffffffffffffffffffffffffff16905090565b606060038054610cad90612198565b80601f0160208091040260200160405190810160405280929190818152602001828054610cd990612198565b8015610d265780601f10610cfb57610100808354040283529160200191610d26565b820191906000526020600020905b815481529060010190602001808311610d0957829003601f168201915b5050505050905090565b610d3981610fa1565b341015610d7b576040517f08c379a0000000000000000000000000000000000000000000000000000000008152600401610d72906122d8565b60405180910390fd5b6014811115610dbf576040517f08c379a0000000000000000000000000000000000000000000000000000000008152600401610db690612344565b60405180910390fd5b600954421115610e04576040517f08c379a0000000000000000000000000000000000000000000000000000000008152600401610dfb906123b0565b60405180910390fd5b610e0e338261150e565b50565b8060076000610e1e611223565b73ffffffffffffffffffffffffffffffffffffffff1673ffffffffffffffffffffffffffffffffffffffff16815260200190815260200160002060008473ffffffffffffffffffffffffffffffffffffffff1673ffffffffffffffffffffffffffffffffffffffff16815260200190815260200160002060006101000a81548160ff0219169083151502179055508173ffffffffffffffffffffffffffffffffffffffff16610ecb611223565b73ffffffffffffffffffffffffffffffffffffffff167f17307eab39ab6107e8899845ad3d59bd9653f200f220920489ca2b5937696c3183604051610f109190611c63565b60405180910390a35050565b610f278484846107f3565b60008373ffffffffffffffffffffffffffffffffffffffff163b14610f8957610f52848484846116c9565b610f88576040517fd1a57ed600000000000000000000000000000000000000000000000000000000815260040160405180910390fd5b5b50505050565b6060610f9a82611819565b9050919050565b6000806000905060005b838110156110a3576064610fbd61189a565b82610fc891906123d0565b118015610fe857506103e9610fdb61189a565b82610fe691906123d0565b105b156110075766038d7ea4c680008261100091906123d0565b9150611090565b6103e861101261189a565b8261101d91906123d0565b11801561103d575061138961103061189a565b8261103b91906123d0565b105b1561105c576611c37937e080008261105591906123d0565b915061108f565b61138861106761189a565b8261107291906123d0565b111561108e57662386f26fc100008261108b91906123d0565b91505b5b5b808061109b90612404565b915050610fab565b5080915050919050565b6000600760008473ffffffffffffffffffffffffffffffffffffffff1673ffffffffffffffffffffffffffffffffffffffff16815260200190815260200160002060008373ffffffffffffffffffffffffffffffffffffffff1673ffffffffffffffffffffffffffffffffffffffff16815260200190815260200160002060009054906101000a900460ff16905092915050565b6111496113ca565b600073ffffffffffffffffffffffffffffffffffffffff168173ffffffffffffffffffffffffffffffffffffffff16036111b8576040517f08c379a00000000000000000000000000000000000000000000000000000000081526004016111af906124be565b60405180910390fd5b6111c181611448565b50565b6000816111cf61122b565b111580156111de575060005482105b801561121c575060007c0100000000000000000000000000000000000000000000000000000000600460008581526020019081526020016000205416145b9050919050565b600033905090565b60006001905090565b6000808290508061124361122b565b116112c9576000548110156112c85760006004600083815260200190815260200160002054905060007c01000000000000000000000000000000000000000000000000000000008216036112c6575b600081036112bc576004600083600190039350838152602001908152602001600020549050611292565b80925050506112fb565b505b5b6040517fdf2d9b4200000000000000000000000000000000000000000000000000000000815260040160405180910390fd5b919050565b60008060006006600085815260200190815260200160002090508092508254915050915091565b600073ffffffffffffffffffffffffffffffffffffffff8316925073ffffffffffffffffffffffffffffffffffffffff821691508382148383141790509392505050565b50505050565b60008060e883901c905060e86113888686846118a3565b62ffffff16901b9150509392505050565b600073ffffffffffffffffffffffffffffffffffffffff83169250814260a01b178317905092915050565b50505050565b6113d26118ac565b73ffffffffffffffffffffffffffffffffffffffff166113f0610c74565b73ffffffffffffffffffffffffffffffffffffffff1614611446576040517f08c379a000000000000000000000000000000000000000000000000000000000815260040161143d9061252a565b60405180910390fd5b565b6000600860009054906101000a900473ffffffffffffffffffffffffffffffffffffffff16905081600860006101000a81548173ffffffffffffffffffffffffffffffffffffffff021916908373ffffffffffffffffffffffffffffffffffffffff1602179055508173ffffffffffffffffffffffffffffffffffffffff168173ffffffffffffffffffffffffffffffffffffffff167f8be0079c531659141344cd1fd0a4f28419497f9722a3daafe3b4186f6b6457e060405160405180910390a35050565b6000805490506000820361154e576040517fb562e8dd00000000000000000000000000000000000000000000000000000000815260040160405180910390fd5b61155b600084838561136b565b600160406001901b178202600560008573ffffffffffffffffffffffffffffffffffffffff1673ffffffffffffffffffffffffffffffffffffffff168152602001908152602001600020600082825401925050819055506115d2836115c36000866000611371565b6115cc856118b4565b17611399565b6004600083815260200190815260200160002081905550600080838301905073ffffffffffffffffffffffffffffffffffffffff85169150828260007fddf252ad1be2c89b69c2b068fc378daa952ba7f163c4a11628f55a4df523b3ef600080a4600183015b81811461167357808360007fddf252ad1be2c89b69c2b068fc378daa952ba7f163c4a11628f55a4df523b3ef600080a4600181019050611638565b50600082036116ae576040517f2e07630000000000000000000000000000000000000000000000000000000000815260040160405180910390fd5b8060008190555050506116c460008483856113c4565b505050565b60008373ffffffffffffffffffffffffffffffffffffffff1663150b7a026116ef611223565b8786866040518563ffffffff1660e01b8152600401611711949392919061259f565b6020604051808303816000875af192505050801561174d57506040513d601f19601f8201168201806040525081019061174a9190612600565b60015b6117c6573d806000811461177d576040519150601f19603f3d011682016040523d82523d6000602084013e611782565b606091505b5060008151036117be576040517fd1a57ed600000000000000000000000000000000000000000000000000000000815260040160405180910390fd5b805181602001fd5b63150b7a0260e01b7bffffffffffffffffffffffffffffffffffffffffffffffffffffffff1916817bffffffffffffffffffffffffffffffffffffffffffffffffffffffff191614915050949350505050565b6060600060405180613360016040528061333a815260200161291a61333a913990506000611846846118c4565b82604051602001611858929190612773565b604051602081830303815290604052905061187281611a4c565b6040516020016118829190612804565b60405160208183030381529060405292505050919050565b60008054905090565b60009392505050565b600033905090565b60006001821460e11b9050919050565b60606000820361190b576040518060400160405280600181526020017f30000000000000000000000000000000000000000000000000000000000000008152509050611a47565b600082905060005b6000821461193d57808061192690612404565b915050600a82611936919061225b565b9150611913565b60008167ffffffffffffffff81111561195957611958611f7b565b5b6040519080825280601f01601f19166020018201604052801561198b5781602001600182028036833780820191505090505b50905060008290505b60008614611a3f576001816119a991906121f8565b90506000600a80886119bb919061225b565b6119c59190612826565b876119d091906121f8565b60306119dc9190612875565b905060008160f81b9050808484815181106119fa576119f96128aa565b5b60200101907effffffffffffffffffffffffffffffffffffffffffffffffffffffffffffff1916908160001a905350600a88611a36919061225b565b97505050611994565b819450505050505b919050565b60606000825103611a6e57604051806020016040528060008152509050611baa565b60006040518060600160405280604081526020016128da6040913990506000600360028551611a9d91906123d0565b611aa7919061225b565b6004611ab39190612826565b67ffffffffffffffff811115611acc57611acb611f7b565b5b6040519080825280601f01601f191660200182016040528015611afe5781602001600182028036833780820191505090505b509050600182016020820185865187015b80821015611b6a576003820191508151603f8160121c168501518453600184019350603f81600c1c168501518453600184019350603f8160061c168501518453600184019350603f8116850151845360018401935050611b0f565b5050600386510660018114611b865760028114611b9957611ba1565b603d6001830353603d6002830353611ba1565b603d60018303535b50505080925050505b919050565b6000604051905090565b600080fd5b600080fd5b60007fffffffff0000000000000000000000000000000000000000000000000000000082169050919050565b611bf881611bc3565b8114611c0357600080fd5b50565b600081359050611c1581611bef565b92915050565b600060208284031215611c3157611c30611bb9565b5b6000611c3f84828501611c06565b91505092915050565b60008115159050919050565b611c5d81611c48565b82525050565b6000602082019050611c786000830184611c54565b92915050565b600081519050919050565b600082825260208201905092915050565b60005b83811015611cb8578082015181840152602081019050611c9d565b60008484015250505050565b6000601f19601f8301169050919050565b6000611ce082611c7e565b611cea8185611c89565b9350611cfa818560208601611c9a565b611d0381611cc4565b840191505092915050565b60006020820190508181036000830152611d288184611cd5565b905092915050565b6000819050919050565b611d4381611d30565b8114611d4e57600080fd5b50565b600081359050611d6081611d3a565b92915050565b600060208284031215611d7c57611d7b611bb9565b5b6000611d8a84828501611d51565b91505092915050565b600073ffffffffffffffffffffffffffffffffffffffff82169050919050565b6000611dbe82611d93565b9050919050565b611dce81611db3565b82525050565b6000602082019050611de96000830184611dc5565b92915050565b611df881611db3565b8114611e0357600080fd5b50565b600081359050611e1581611def565b92915050565b60008060408385031215611e3257611e31611bb9565b5b6000611e4085828601611e06565b9250506020611e5185828601611d51565b9150509250929050565b611e6481611d30565b82525050565b6000602082019050611e7f6000830184611e5b565b92915050565b600080600060608486031215611e9e57611e9d611bb9565b5b6000611eac86828701611e06565b9350506020611ebd86828701611e06565b9250506040611ece86828701611d51565b9150509250925092565b600060208284031215611eee57611eed611bb9565b5b6000611efc84828501611e06565b91505092915050565b611f0e81611c48565b8114611f1957600080fd5b50565b600081359050611f2b81611f05565b92915050565b60008060408385031215611f4857611f47611bb9565b5b6000611f5685828601611e06565b9250506020611f6785828601611f1c565b9150509250929050565b600080fd5b600080fd5b7f4e487b7100000000000000000000000000000000000000000000000000000000600052604160045260246000fd5b611fb382611cc4565b810181811067ffffffffffffffff82111715611fd257611fd1611f7b565b5b80604052505050565b6000611fe5611baf565b9050611ff18282611faa565b919050565b600067ffffffffffffffff82111561201157612010611f7b565b5b61201a82611cc4565b9050602081019050919050565b82818337600083830152505050565b600061204961204484611ff6565b611fdb565b90508281526020810184848401111561206557612064611f76565b5b612070848285612027565b509392505050565b600082601f83011261208d5761208c611f71565b5b813561209d848260208601612036565b91505092915050565b600080600080608085870312156120c0576120bf611bb9565b5b60006120ce87828801611e06565b94505060206120df87828801611e06565b93505060406120f087828801611d51565b925050606085013567ffffffffffffffff81111561211157612110611bbe565b5b61211d87828801612078565b91505092959194509250565b600080604083850312156121405761213f611bb9565b5b600061214e85828601611e06565b925050602061215f85828601611e06565b9150509250929050565b7f4e487b7100000000000000000000000000000000000000000000000000000000600052602260045260246000fd5b600060028204905060018216806121b057607f821691505b6020821081036121c3576121c2612169565b5b50919050565b7f4e487b7100000000000000000000000000000000000000000000000000000000600052601160045260246000fd5b600061220382611d30565b915061220e83611d30565b9250828203905081811115612226576122256121c9565b5b92915050565b7f4e487b7100000000000000000000000000000000000000000000000000000000600052601260045260246000fd5b600061226682611d30565b915061227183611d30565b9250826122815761228061222c565b5b828204905092915050565b7f6e6f7420656e6f75676820657468000000000000000000000000000000000000600082015250565b60006122c2600e83611c89565b91506122cd8261228c565b602082019050919050565b600060208201905081810360008301526122f1816122b5565b9050919050565b7f6d61782032302070657220747800000000000000000000000000000000000000600082015250565b600061232e600d83611c89565b9150612339826122f8565b602082019050919050565b6000602082019050818103600083015261235d81612321565b9050919050565b7f6d696e7420697320636c6f736564000000000000000000000000000000000000600082015250565b600061239a600e83611c89565b91506123a582612364565b602082019050919050565b600060208201905081810360008301526123c98161238d565b9050919050565b60006123db82611d30565b91506123e683611d30565b92508282019050808211156123fe576123fd6121c9565b5b92915050565b600061240f82611d30565b91507fffffffffffffffffffffffffffffffffffffffffffffffffffffffffffffffff8203612441576124406121c9565b5b600182019050919050565b7f4f776e61626c653a206e6577206f776e657220697320746865207a65726f206160008201527f6464726573730000000000000000000000000000000000000000000000000000602082015250565b60006124a8602683611c89565b91506124b38261244c565b604082019050919050565b600060208201905081810360008301526124d78161249b565b9050919050565b7f4f776e61626c653a2063616c6c6572206973206e6f7420746865206f776e6572600082015250565b6000612514602083611c89565b915061251f826124de565b602082019050919050565b6000602082019050818103600083015261254381612507565b9050919050565b600081519050919050565b600082825260208201905092915050565b60006125718261254a565b61257b8185612555565b935061258b818560208601611c9a565b61259481611cc4565b840191505092915050565b60006080820190506125b46000830187611dc5565b6125c16020830186611dc5565b6125ce6040830185611e5b565b81810360608301526125e08184612566565b905095945050505050565b6000815190506125fa81611bef565b92915050565b60006020828403121561261657612615611bb9565b5b6000612624848285016125eb565b91505092915050565b600081905092915050565b7f7b226e616d65223a2022536e61636b7320000000000000000000000000000000600082015250565b600061266e60118361262d565b915061267982612638565b601182019050919050565b600061268f82611c7e565b612699818561262d565b93506126a9818560208601611c9a565b80840191505092915050565b7f222c20226465736372697074696f6e223a20224865726520666f72207468652060008201527f736e61636b732e222c2022696d616765223a2022000000000000000000000000602082015250565b600061271160348361262d565b915061271c826126b5565b603482019050919050565b7f227d000000000000000000000000000000000000000000000000000000000000600082015250565b600061275d60028361262d565b915061276882612727565b600282019050919050565b600061277e82612661565b915061278a8285612684565b915061279582612704565b91506127a18284612684565b91506127ac82612750565b91508190509392505050565b7f646174613a6170706c69636174696f6e2f6a736f6e3b6261736536342c000000600082015250565b60006127ee601d8361262d565b91506127f9826127b8565b601d82019050919050565b600061280f826127e1565b915061281b8284612684565b915081905092915050565b600061283182611d30565b915061283c83611d30565b925082820261284a81611d30565b91508282048414831517612861576128606121c9565b5b5092915050565b600060ff82169050919050565b600061288082612868565b915061288b83612868565b9250828201905060ff8111156128a4576128a36121c9565b5b92915050565b7f4e487b7100000000000000000000000000000000000000000000000000000000600052603260045260246000fdfe4142434445464748494a4b4c4d4e4f505152535455565758595a6162636465666768696a6b6c6d6e6f707172737475767778797a303132333435363738392b2f646174613a696d6167652f7376672b786d6c3b6261736536342c50484e325a79423462577875637a30696148523063446f764c336433647935334d793576636d63764d6a41774d43397a646d6369494864705a48526f505349794e6a51694947686c6157646f644430694d6a59304969426d6157787350534a756232356c496a3438634746306143426d615778735053496a52554a46516b56434969426b50534a4e4d434177614449324e4859794e6a52494d486f694c7a3438634746306143426d615778735053496a5a6d5a6d4969426b50534a4e4e6a51674e44686f4d544d32646a45324f4567324e486f694c7a3438634746306143426d615778735053496a526a56434e444d304969426b50534a4e4f446b674f4459754d6a45304d3159344e7934334e5767784d4334334e5859744e4334324d446379614330784c6a557a4e5464324c5445754e544d314e3267744d5334314d7a5533646930784c6a557a4e54646f4c5445754e544d314e3359784c6a557a4e54646f4c5445754e544d314f4859784c6a557a4e54646f4c5445754e544d314e3359784c6a557a4e54686f4c5445754e544d314e3359784c6a557a4e5464494f446c614969382b50484268644767675a6d6c7362443069493049354e544d774f5349675a44306954546b314c6a45304d6a6b674f4441754d4463784e4859744d5334314d7a553361444d754d4463784e4859784c6a557a4e5464494f546b754e7a56324d5334314d7a5533614445754e544d32566a67334c6a633153446b354c6a6331646930304c6a59774e7a4a6f4c5445754e544d314e3359744d5334314d7a5533614330784c6a557a4e5464324c5445754e544d314e3267744d5334314d7a553357694976506a78775958526f49475a706247773949694e464f5449784d6a456949475139496b30354d4334314d7a5533494467324c6a49784e444e6f4d5334314d7a5533566a67334c6a6331614330784c6a557a4e5464324c5445754e544d314e316f694c7a3438634746306143426d615778735053496a52544e424d5449774969426b50534a4e4f5455754d5451794f5341344e6934794d54517a53446b354c6a6331566a67334c6a6331614330304c6a59774e7a46324c5445754e544d314e316f694c7a3438634746306143426d615778735053496a516a6b314d7a41354969426b50534a4e4f546b754e7a55674f444d754d5451794f4767784c6a557a4e6e59784c6a557a4e5468494f546b754e7a56324c5445754e544d314f466f694c7a3438634746306143426d615778735053496a52546b794d5449784969426b50534a4e4f544d754e6a41334d5341344d7934784e444934614445754e544d314f4859784c6a557a4e54686f4c5445754e544d314f4859744d5334314d7a5534576d307a4c6a41334d5455674d5334314d7a5534614445754e544d314e3359784c6a557a4e54646f4c5445754e544d314e3359744d5334314d7a553357694976506a78775958526f49475a706247773949694e454e555932526a516949475139496b30354f5334334e5341784d5441754e7a67326469307a4c6a41334d6d67744f5334794d54517a646a4d754d446379614445754e544d314e3359784c6a557a4e5767324c6a45304d6a6c324c5445754e544d3153446b354c6a633157694976506a78775958526f49475a706247773949694d334d4546444d6a516949475139496b30354d6934774e7a4530494445774e7934334d54526f4e6934784e444935646a45754e544d32614330324c6a45304d6a6c324c5445754e544d3257694976506a78775958526f49475a706247773949694d314e54677a4d55496949475139496b30354d7934324d446378494445774f5334794e57677a4c6a41334d5456324d5334314d7a5a6f4c544d754d4463784e5859744d5334314d7a5a614969382b50484268644767675a6d6c736244306949305931516a517a4e4349675a44306954546b324c6a59334f4459674d5441324c6a45334f5767784c6a557a4e5464324d5334314d7a566f4c5445754e544d314e3359744d5334314d7a5661625330784c6a557a4e5463674d4767784c6a557a4e5464324d5334314d7a566f4c5445754e544d314e3359744d5334314d7a5661625441744d5334314d7a5a6f4d5334314d7a5533646a45754e544d32614330784c6a557a4e5464324c5445754e544d3257694976506a78775958526f49475a706247773949694e434f54557a4d446b6949475139496b30354d6934774e7a45304944457a4d6934794f445a324d7934774e7a466f4e4334324d446379646930784c6a557a4e6d67784c6a557a4e5464324c5445754e544d3153446b354c6a6331646930304c6a59774f4767744d5334314d7a5533646930784c6a557a4e5767744d5334314d7a5533646a45754e544d31614330784c6a557a4e5464324d5334314d7a5a6f4c5445754e544d314f48597a4c6a41334d6d67744d5334314d7a553357694976506a78775958526f49475a706247773949694e464f554e45516a6b6949475139496b30354d4334314d7a55334944457a4e53347a4e54646f4d5334314d7a5533646a45754e544d32614330784c6a557a4e5464324c5445754e544d32576d30784c6a557a4e5463744d5334314d7a5a6f4d5334314d7a5533646a45754e544d32614330784c6a557a4e5464324c5445754e544d3257694976506a78775958526f49475a706247773949694d35517a51324d44636949475139496b30354d7934324d4463784944457a4d7934344d6a466f4d7934774e7a4531646a45754e544d326143307a4c6a41334d5456324c5445754e544d32576d307a4c6a41334d5455744d5334314d7a566f4d5334314d7a5533646a45754e544d31614330784c6a557a4e5464324c5445754e544d3157694976506a78775958526f49475a706247773949694e46513049794e30516949475139496b30354d4334314d7a5533494445314d7934334f445a574d54597a53446b354c6a6331646930354c6a49784e4767744d5334314d7a5533646930784c6a557a4e6d67744e6934784e444935646a45754e544d32614330784c6a557a4e5464614969382b50484268644767675a6d6c7362443069497a56464d7a4177525349675a44306954546b774c6a557a4e5463674d5455344c6a4d354d3067354f5334334e5859784c6a557a4e5767744f5334794d54517a646930784c6a557a4e566f694c7a3438634746306143426d615778735053496a4e4549794e6a42444969426b50534a4e4f5441754e544d314e7941784e546b754f54493453446b354c6a6331646a45754e544d32614330354c6a49784e444e324c5445754e544d3257694976506a78775958526f49475a706247773949694e464f5449784d6a456949475139496b30354d4334314d7a5533494445314e53347a4d6a46494f546b754e7a56324d5334314d7a5a6f4c546b754d6a45304d3359744d5334314d7a5a614969382b50484268644767675a6d6c7362443069497a637751554d794e4349675a44306954546b774c6a557a4e5463674d5455324c6a67314e3067354f5334334e5859784c6a557a4e6d67744f5334794d54517a646930784c6a557a4e6c6f694c7a3438634746306143426d615778735053496a526a56434e444d304969426b50534a4e4f446b674d5467784c6a51794f48597a4c6a41334d6d67784d6934794f445a324c544d754d44637953446b354c6a6331646930784c6a557a4e5767744d5334314d7a5533646930784c6a557a4e6d67744e6934784e444935646a45754e544d32614330784c6a557a4e5464324d5334314d7a56494f446c614969382b50484268644767675a6d6c73624430694930557a515445794d4349675a44306954546735494445344d6934354e6a526f4d5449754d6a6732646a45754e544d3253446735646930784c6a557a4e6c6f694c7a3438634746306143426d615778735053496a52546b794d5449784969426b50534a4e4f5459754e6a63344e6941784e7a67754d7a5533614445754e544d314e3359784c6a557a4e6d67744d5334314d7a5533646930784c6a557a4e6c6f694c7a3438634746306143426d615778735053496a4e7a4242517a49304969426b50534a4e4f5449754d4463784e4341784e7a67754d7a5533614445754e544d314e3359784c6a557a4e6d67744d5334314d7a5533646930784c6a557a4e6c6f694c7a3438634746306143426d615778735053496a52546b794d5449784969426b50534a4e4f544d754e6a41334d5341784e7a67754d7a5533614445754e544d314f4859784c6a557a4e6d67744d5334314d7a5534646930784c6a557a4e6c6f694c7a3438634746306143426d615778735053496a4e7a4242517a49304969426b50534a4e4f5455754d5451794f5341784e7a67754d7a5533614445754e544d314e3359784c6a557a4e6d67744d5334314d7a5533646930784c6a557a4e6c6f694c7a3438634746306143426d615778735053496a516a6b314d7a41354969426b50534a4e4d5445324c6a59304d7941344d7934784e444934646a4d754d4463784e5767304c6a59774e3359744d5334314d7a5533614445754e544d32646930784c6a557a4e54686f4d5334314d7a56324c5451754e6a41334d5767744d5334314d7a56574e7a646f4c5445754e544d32646a45754e544d314e3267744d5334314d7a5a324d5334314d7a5533614330784c6a557a4e58597a4c6a41334d54526f4c5445754e544d3257694976506a78775958526f49475a706247773949694e464f554e45516a6b6949475139496b30784d5455754d544133494467324c6a49784e444e6f4d5334314d7a5a574f4463754e7a566f4c5445754e544d32646930784c6a557a4e546461625445754e544d324c5445754e544d314e3267784c6a557a4e6e59784c6a557a4e54646f4c5445754e544d32646930784c6a557a4e5464614969382b50484268644767675a6d6c7362443069497a6c444e4459774e7949675a443069545445784f4334784e7a6b674f4451754e6a63344e6d677a4c6a41334d5859784c6a557a4e54646f4c544d754d446378646930784c6a557a4e54646162544d754d4463784c5445754e544d314f4767784c6a557a4e6e59784c6a557a4e54686f4c5445754e544d32646930784c6a557a4e5468614969382b50484268644767675a6d6c736244306949305644516a4933524349675a443069545445784e5334784d4463674d5441304c6a59304d3359354c6a49784e4767354c6a49784e4859744f5334794d54526f4c5445754e544d31646930784c6a557a4e6d67744e6934784e444e324d5334314d7a5a6f4c5445754e544d3257694976506a78775958526f49475a706247773949694d3152544d774d45556949475139496b30784d5455754d544133494445774f5334794e5767354c6a49784e4859784c6a557a4e6d67744f5334794d5452324c5445754e544d3257694976506a78775958526f49475a706247773949694d30516a49324d454d6949475139496b30784d5455754d544133494445784d4334334f445a6f4f5334794d5452324d5334314d7a566f4c546b754d6a4530646930784c6a557a4e566f694c7a3438634746306143426d615778735053496a52546b794d5449784969426b50534a4e4d5445314c6a45774e7941784d4459754d54633561446b754d6a4530646a45754e544d31614330354c6a49784e4859744d5334314d7a56614969382b50484268644767675a6d6c7362443069497a637751554d794e4349675a443069545445784e5334784d4463674d5441334c6a63784e4767354c6a49784e4859784c6a557a4e6d67744f5334794d5452324c5445754e544d3257694976506a78775958526f49475a706247773949694e474e5549304d7a516949475139496b30784d544d754e5463784944457a4d6934794f445a324d7934774e7a466f4d5449754d6a67326469307a4c6a41334d5767744d5334314d7a5a324c5445754e544d32614330784c6a557a4e5859744d5334314d7a5a6f4c5459754d54517a646a45754e544d32614330784c6a557a4e6e59784c6a557a4e6d67744d5334314d7a5a614969382b50484268644767675a6d6c73624430694930557a515445794d4349675a443069545445784d7934314e7a45674d544d7a4c6a67794d5767784d6934794f445a324d5334314d7a5a6f4c5445794c6a49344e6e59744d5334314d7a5a614969382b50484268644767675a6d6c7362443069493055354d6a45794d5349675a443069545445794d5334794e5341784d6a6b754d6a4530614445754e544d32646a45754e544d32614330784c6a557a4e6e59744d5334314d7a5a614969382b50484268644767675a6d6c7362443069497a637751554d794e4349675a443069545445784e6934324e444d674d5449354c6a49784e4767784c6a557a4e6e59784c6a557a4e6d67744d5334314d7a5a324c5445754e544d3257694976506a78775958526f49475a706247773949694e464f5449784d6a456949475139496b30784d5467754d546335494445794f5334794d54526f4d5334314d7a56324d5334314d7a5a6f4c5445754e544d31646930784c6a557a4e6c6f694c7a3438634746306143426d615778735053496a4e7a4242517a49304969426b50534a4e4d5445354c6a63784e4341784d6a6b754d6a4530614445754e544d32646a45754e544d32614330784c6a557a4e6e59744d5334314d7a5a614969382b50484268644767675a6d6c736244306949305644516a4933524349675a443069545445784e5334784d4463674d54557a4c6a63344e6d67354c6a49784e4859324c6a45304d6d67744f5334794d5452324c5459754d54517957694976506a78775958526f49475a706247773949694e464f5459334e6b596949475139496b30784d544d754e546378494445314e53347a4d6a466f4d5334314d7a5a324d7934774e7a4a6f4c5445754e544d326469307a4c6a41334d6c6f694c7a3438634746306143426d615778735053496a52546b794d5449784969426b50534a4e4d5445314c6a45774e7941784e5455754d7a497861446b754d6a4530646a45754e544d32614330354c6a49784e4859744d5334314d7a5a614969382b50484268644767675a6d6c736244306949305931516a517a4e4349675a443069545445784e5334784d4463674d5455324c6a67314e3267354c6a49784e4859784c6a557a4e6d67744f5334794d5452324c5445754e544d3257694976506a78775958526f49475a706247773949694e464f5459334e6b596949475139496b30784d6a51754d7a4978494445314e53347a4d6a466f4d5334314d7a5a324d7934774e7a4a6f4c5445754e544d326469307a4c6a41334d6c6f694c7a3438634746306143426d615778735053496a526a56424f444d304969426b50534a4e4d5449304c6a4d794d5341784e7a59754f444978614330784c6a557a4e5859784c6a557a4e6d67744d5334314d7a5a324d5334314d7a5a6f4c5445754e544d32646a45754e544d31614330784c6a557a4e5859784c6a557a4e6d67744d5334314d7a5a324d5334314d7a5a6f4c5445754e544d32646a45754e544d3261446b754d6a4530646930354c6a49784e566f694c7a3438634746306143426d615778735053496a526a55354d544d304969426b50534a4e4d5445314c6a45774e7941784f4451754e5767784c6a557a4e6e59784c6a557a4e6d67744d5334314d7a5a574d5467304c6a56614969382b50484268644767675a6d6c7362443069493055794f5455794d5349675a443069545445784e6934324e444d674d5467304c6a566f4d5334314d7a5a324d5334314d7a5a6f4c5445754e544d32566a45344e43343157694976506a78775958526f49475a706247773949694e474e546b784d7a516949475139496b30784d6a45754d6a55674d5467304c6a566f4d5334314d7a5a324d5334314d7a5a6f4c5445754e544d32566a45344e43343157694976506a78775958526f49475a706247773949694e464d6a6b314d6a456949475139496b30784d6a49754e7a6732494445344e433431614445754e544d31646a45754e544d32614330784c6a557a4e5659784f4451754e566f694c7a3438634746306143426d615778735053496a526a55354d544d304969426b50534a4e4d5449794c6a63344e6941784e7a67754d7a5533614445754e544d31646a45754e544d32614330784c6a557a4e5859744d5334314d7a5a614969382b50484268644767675a6d6c7362443069493055794f5455794d5349675a443069545445794d5334794e5341784e7a67754d7a5533614445754e544d32646a45754e544d32614330784c6a557a4e6e59744d5334314d7a5a614969382b50484268644767675a6d6c7362443069493059314f54457a4e4349675a443069545445794d5334794e5341784e7a6b754f446b7a614445754e544d32646a45754e544d31614330784c6a557a4e6e59744d5334314d7a56614969382b50484268644767675a6d6c7362443069493055794f5455794d5349675a443069545445784f5334334d5451674d5467794c6a6b324e4767784c6a557a4e6e59784c6a557a4e6d67744d5334314d7a5a324c5445754e544d3257694976506a78775958526f49475a706247773949694e474e546b784d7a516949475139496b30784d5467754d546335494445344d5334304d6a686f4d5334314d7a56324d5334314d7a5a6f4c5445754e544d31646930784c6a557a4e6c6f694c7a3438634746306143426d615778735053496a526a56434e444d304969426b50534a4e4d544d344c6a45304d7941344d7934784e444934646a4d754d4463784e5767784d6934794f445a324c544d754d4463784e5767744d5334314d7a5a324c5445754e544d314e3267744d5334314d7a5a324c5445754e544d314e3267744e6934784e444e324d5334314d7a5533614330784c6a557a4e5859784c6a557a4e54646f4c5445754e544d3257694976506a78775958526f49475a706247773949694e464d3045784d6a416949475139496b30784d7a67754d54517a494467304c6a59334f445a6f4d5449754d6a6732646a45754e544d314e3267744d5449754d6a6732646930784c6a557a4e5464614969382b50484268644767675a6d6c7362443069493055354d6a45794d5349675a443069545445304e5334344d6a45674f4441754d4463784e4767784c6a557a4e6e59784c6a557a4e54646f4c5445754e544d32646930784c6a557a4e5464614969382b50484268644767675a6d6c7362443069497a637751554d794e4349675a443069545445304d5334794d5451674f4441754d4463784e4767784c6a557a4e6e59784c6a557a4e54646f4c5445754e544d32646930784c6a557a4e5464614969382b50484268644767675a6d6c7362443069493055354d6a45794d5349675a443069545445304d6934334e5341344d4334774e7a4530614445754e544d32646a45754e544d314e3267744d5334314d7a5a324c5445754e544d314e316f694c7a3438634746306143426d615778735053496a4e7a4242517a49304969426b50534a4e4d5451304c6a49344e6941344d4334774e7a4530614445754e544d31646a45754e544d314e3267744d5334314d7a56324c5445754e544d314e316f694c7a3438634746306143426d615778735053496a52554e434d6a64454969426b50534a4e4d544d354c6a59334f5341784d4451754e6a517a61446b754d6a4530646a59754d54517a614330354c6a49784e4859744e6934784e444e614969382b50484268644767675a6d6c7362443069493055354e6a6332526949675a4430695454457a4f4334784e444d674d5441324c6a45334f5767784c6a557a4e6e597a4c6a41334d5767744d5334314d7a5a324c544d754d44637857694976506a78775958526f49475a706247773949694e464f5449784d6a456949475139496b30784d7a6b754e6a6335494445774e6934784e7a6c6f4f5334794d5452324d5334314d7a566f4c546b754d6a4530646930784c6a557a4e566f694c7a3438634746306143426d615778735053496a526a56434e444d304969426b50534a4e4d544d354c6a59334f5341784d4463754e7a453061446b754d6a4530646a45754e544d32614330354c6a49784e4859744d5334314d7a5a614969382b50484268644767675a6d6c7362443069493055354e6a6332526949675a443069545445304f4334344f544d674d5441324c6a45334f5767784c6a557a4e6e597a4c6a41334d5767744d5334314d7a5a324c544d754d44637857694976506a78775958526f49475a706247773949694e474e5545344d7a516949475139496b30784e4467754f446b7a494445794e7934324e7a686f4c5445754e544d32646a45754e544d32614330784c6a557a4e6e59784c6a557a4e6d67744d5334314d7a56324d5334314d7a5a6f4c5445754e544d32646a45754e544d31614330784c6a557a4e6e59784c6a557a4e6d67744d5334314d7a56324d5334314d7a5a6f4f5334794d5452324c546b754d6a453157694976506a78775958526f49475a706247773949694e474e546b784d7a516949475139496b30784d7a6b754e6a63354944457a4e53347a4e54646f4d5334314d7a56324d5334314d7a5a6f4c5445754e544d31646930784c6a557a4e6c6f694c7a3438634746306143426d615778735053496a525449354e5449784969426b50534a4e4d5451784c6a49784e4341784d7a55754d7a5533614445754e544d32646a45754e544d32614330784c6a557a4e6e59744d5334314d7a5a614969382b50484268644767675a6d6c7362443069493059314f54457a4e4349675a443069545445304e5334344d6a45674d544d314c6a4d314e3267784c6a557a4e6e59784c6a557a4e6d67744d5334314d7a5a324c5445754e544d3257694976506a78775958526f49475a706247773949694e464d6a6b314d6a456949475139496b30784e4463754d7a55334944457a4e53347a4e54646f4d5334314d7a5a324d5334314d7a5a6f4c5445754e544d32646930784c6a557a4e6c6f694c7a3438634746306143426d615778735053496a526a55354d544d304969426b50534a4e4d5451334c6a4d314e7941784d6a6b754d6a4530614445754e544d32646a45754e544d32614330784c6a557a4e6e59744d5334314d7a5a614969382b50484268644767675a6d6c7362443069493055794f5455794d5349675a443069545445304e5334344d6a45674d5449354c6a49784e4767784c6a557a4e6e59784c6a557a4e6d67744d5334314d7a5a324c5445754e544d3257694976506a78775958526f49475a706247773949694e474e546b784d7a516949475139496b30784e4455754f4449784944457a4d4334334e5767784c6a557a4e6e59784c6a557a4e6d67744d5334314d7a5a324c5445754e544d3257694976506a78775958526f49475a706247773949694e464d6a6b314d6a456949475139496b30784e4451754d6a67324944457a4d7934344d6a466f4d5334314d7a56324d5334314d7a5a6f4c5445754e544d31646930784c6a557a4e6c6f694c7a3438634746306143426d615778735053496a526a55354d544d304969426b50534a4e4d5451794c6a63314944457a4d6934794f445a6f4d5334314d7a5a324d5334314d7a566f4c5445754e544d32646930784c6a557a4e566f694c7a3438634746306143426d615778735053496a526a56434e444d304969426b50534a4e4d544d344c6a45304d7941784e546b754f544934646a45754e544d32614445774c6a6331646930304c6a59774e3267744d5334314d7a5a324c5445754e544d32614330784c6a557a4e6e59744d5334314d7a566f4c5445754e544d31646a45754e544d31614330784c6a557a4e6e59784c6a557a4e6d67744d5334314d7a5a324d5334314d7a5a6f4c5445754e544d31646a45754e544d31614330784c6a557a4e6c6f694c7a3438634746306143426d615778735053496a516a6b314d7a41354969426b50534a4e4d5451304c6a49344e6941784e544d754e7a6732646930784c6a557a4e6d677a4c6a41334d5859784c6a557a4e6d67784c6a557a4e6e59784c6a557a4e5767784c6a557a4e6e59324c6a45304d3267744d5334314d7a5a324c5451754e6a4133614330784c6a557a4e6e59744d5334314d7a5a6f4c5445754e544d32646930784c6a557a4e5767744d5334314d7a56614969382b50484268644767675a6d6c7362443069493055354d6a45794d5349675a4430695454457a4f5334324e7a6b674d5455354c6a6b794f4767784c6a557a4e5859784c6a557a4e6d67744d5334314d7a56324c5445754e544d3257694976506a78775958526f49475a706247773949694e464d3045784d6a416949475139496b30784e4451754d6a6732494445314f5334354d6a686f4e4334324d4464324d5334314d7a5a6f4c5451754e6a4133646930784c6a557a4e6c6f694c7a3438634746306143426d615778735053496a516a6b314d7a41354969426b50534a4e4d5451344c6a67354d7941784e5459754f445533614445754e544d32646a45754e544d32614330784c6a557a4e6e59744d5334314d7a5a614969382b50484268644767675a6d6c7362443069493055354d6a45794d5349675a443069545445304d6934334e5341784e5459754f445533614445754e544d32646a45754e544d32614330784c6a557a4e6e59744d5334314d7a5a6162544d754d446378494445754e544d32614445754e544d32646a45754e544d31614330784c6a557a4e6e59744d5334314d7a56614969382b50484268644767675a6d6c736244306949305131526a5a474e4349675a443069545445304f4334344f544d674d5467304c6a56324c544d754d446379614330354c6a49784e48597a4c6a41334d6d67784c6a557a4e5859784c6a557a4e6d67324c6a45304d3159784f4451754e5767784c6a557a4e6c6f694c7a3438634746306143426d615778735053496a4e7a4242517a49304969426b50534a4e4d5451784c6a49784e4341784f4445754e444934614459754d54517a646a45754e544d32614330324c6a45304d3359744d5334314d7a5a614969382b50484268644767675a6d6c7362443069497a55314f444d78516949675a443069545445304d6934334e5341784f4449754f54593061444d754d446378646a45754e544d326143307a4c6a41334d5859744d5334314d7a5a614969382b50484268644767675a6d6c736244306949305931516a517a4e4349675a443069545445304e5334344d6a45674d5463354c6a67354d3267784c6a557a4e6e59784c6a557a4e5767744d5334314d7a5a324c5445754e544d31576d30744d5334314d7a55674d4767784c6a557a4e5859784c6a557a4e5767744d5334314d7a56324c5445754e544d31576d30774c5445754e544d32614445754e544d31646a45754e544d32614330784c6a557a4e5859744d5334314d7a5a614969382b50484268644767675a6d6c7362443069493059315154677a4e4349675a443069545445334d7934304e6a51674e7a67754e544d314e3267744d5334314d7a56324d5334314d7a5533614330784c6a557a4e6e59784c6a557a4e54646f4c5445754e544d32646a45754e544d314e3267744d5334314d7a5a324d5334314d7a5534614330784c6a557a4e5859784c6a557a4e54646f4c5445754e544d32566a67334c6a633161446b754d6a4530646930354c6a49784e444e614969382b50484268644767675a6d6c7362443069493059314f54457a4e4349675a443069545445324e4334794e5341344e6934794d54517a614445754e544d32566a67334c6a6331614330784c6a557a4e6e59744d5334314d7a553357694976506a78775958526f49475a706247773949694e464d6a6b314d6a456949475139496b30784e6a55754e7a6732494467324c6a49784e444e6f4d5334314d7a56574f4463754e7a566f4c5445754e544d31646930784c6a557a4e5464614969382b50484268644767675a6d6c7362443069493059314f54457a4e4349675a443069545445334d43347a4f544d674f4459754d6a45304d3267784c6a557a4e6c59344e7934334e5767744d5334314d7a5a324c5445754e544d314e316f694c7a3438634746306143426d615778735053496a525449354e5449784969426b50534a4e4d5463784c6a6b794f5341344e6934794d54517a614445754e544d31566a67334c6a6331614330784c6a557a4e5859744d5334314d7a553357694976506a78775958526f49475a706247773949694e474e546b784d7a516949475139496b30784e7a45754f544935494467774c6a41334d54526f4d5334314d7a56324d5334314d7a5533614330784c6a557a4e5859744d5334314d7a553357694976506a78775958526f49475a706247773949694e464d6a6b314d6a456949475139496b30784e7a41754d7a6b7a494467774c6a41334d54526f4d5334314d7a5a324d5334314d7a5533614330784c6a557a4e6e59744d5334314d7a553357694976506a78775958526f49475a706247773949694e474e546b784d7a516949475139496b30784e7a41754d7a6b7a494467784c6a59774e7a466f4d5334314d7a5a324d5334314d7a5533614330784c6a557a4e6e59744d5334314d7a553357694976506a78775958526f49475a706247773949694e464d6a6b314d6a456949475139496b30784e6a67754f445533494467304c6a59334f445a6f4d5334314d7a5a324d5334314d7a5533614330784c6a557a4e6e59744d5334314d7a553357694976506a78775958526f49475a706247773949694e474e546b784d7a516949475139496b30784e6a63754d7a49784944677a4c6a45304d6a686f4d5334314d7a5a324d5334314d7a5534614330784c6a557a4e6e59744d5334314d7a553457694976506a78775958526f49475a706247773949694e474e5549304d7a516949475139496b30784e6a49754e7a4530494445784d4334334f445a324d5334314d7a566f4d5441754e7a56324c5451754e6a4133614330784c6a557a4e5859744d5334314d7a566f4c5445754e544d32646930784c6a557a4e6d67744d5334314d7a5a324d5334314d7a5a6f4c5445754e544d32646a45754e544d31614330784c6a557a4e5859784c6a557a4e6d67744d5334314d7a5a324d5334314d7a5a6f4c5445754e544d3257694976506a78775958526f49475a706247773949694e434f54557a4d446b6949475139496b30784e6a67754f445533494445774e4334324e444e324c5445754e544d3261444d754d446379646a45754e544d32614445754e544d31646a45754e544d32534445334e5859324c6a45304d6d67744d5334314d7a5a324c5451754e6a4133614330784c6a557a4e5859744d5334314d7a566f4c5445754e544d32646930784c6a557a4e6d67744d5334314d7a5a614969382b50484268644767675a6d6c7362443069493055354d6a45794d5349675a443069545445324e4334794e5341784d5441754e7a6732614445754e544d32646a45754e544d31614330784c6a557a4e6e59744d5334314d7a56614969382b50484268644767675a6d6c73624430694930557a515445794d4349675a443069545445324f4334344e5463674d5445774c6a63344e6d67304c6a59774e3359784c6a557a4e5767744e4334324d4464324c5445754e544d3157694976506a78775958526f49475a706247773949694e434f54557a4d446b6949475139496b30784e7a4d754e445930494445774e7934334d5452494d546331646a45754e544d32614330784c6a557a4e6e59744d5334314d7a5a614969382b50484268644767675a6d6c7362443069493055354d6a45794d5349675a443069545445324e79347a4d6a45674d5441334c6a63784e4767784c6a557a4e6e59784c6a557a4e6d67744d5334314d7a5a324c5445754e544d32576d307a4c6a41334d6941784c6a557a4e6d67784c6a557a4e6e59784c6a557a4e6d67744d5334314d7a5a324c5445754e544d3257694976506a78775958526f49475a706247773949694e454e555932526a516949475139496b30784e7a4d754e4459304944457a4e53347a4e5464324c544d754d446378614330354c6a49784e48597a4c6a41334d5767784c6a557a4e6e59784c6a557a4e6d67324c6a45304d3359744d5334314d7a5a6f4d5334314d7a56614969382b50484268644767675a6d6c7362443069497a637751554d794e4349675a443069545445324e5334334f4459674d544d794c6a49344e6d67324c6a45304d3359784c6a557a4e5767744e6934784e444e324c5445754e544d3157694976506a78775958526f49475a706247773949694d314e54677a4d55496949475139496b30784e6a63754d7a49784944457a4d7934344d6a466f4d7934774e7a4a324d5334314d7a5a6f4c544d754d446379646930784c6a557a4e6c6f694c7a3438634746306143426d615778735053496a526a56434e444d304969426b50534a4e4d5463774c6a4d354d7941784d7a41754e7a566f4d5334314d7a5a324d5334314d7a5a6f4c5445754e544d32646930784c6a557a4e6c70744c5445754e544d324944426f4d5334314d7a5a324d5334314d7a5a6f4c5445754e544d32646930784c6a557a4e6c70744d4330784c6a557a4e6d67784c6a557a4e6e59784c6a557a4e6d67744d5334314d7a5a324c5445754e544d3257694976506a78775958526f49475a706247773949694e434f54557a4d446b6949475139496b30784e6a55754e7a6732494445314e6934344e5464324d7934774e7a466f4e4334324d4464324c5445754e544d31614445754e544d32646930784c6a557a4e6d67784c6a557a4e5859744e4334324d44646f4c5445754e544d31646930784c6a557a4e6d67744d5334314d7a5a324d5334314d7a5a6f4c5445754e544d32646a45754e544d32614330784c6a557a4e6e597a4c6a41334d5767744d5334314d7a56614969382b50484268644767675a6d6c736244306949305535513052434f5349675a443069545445324e4334794e5341784e546b754f544934614445754e544d32646a45754e544d32614330784c6a557a4e6e59744d5334314d7a5a61625445754e544d324c5445754e544d31614445754e544d31646a45754e544d31614330784c6a557a4e5859744d5334314d7a56614969382b50484268644767675a6d6c7362443069497a6c444e4459774e7949675a443069545445324e79347a4d6a45674d5455344c6a4d354d32677a4c6a41334d6e59784c6a557a4e5767744d7934774e7a4a324c5445754e544d31576d307a4c6a41334d6930784c6a557a4e6d67784c6a557a4e6e59784c6a557a4e6d67744d5334314d7a5a324c5445754e544d3257694976506a78775958526f49475a706247773949694d7852454578526a496949475a7062477774636e56735a5430695a585a6c626d396b5a4349675a443069545445334d5334354d6a6b674d54637a4c6a6331614330324c6a45304d3359784c6a557a4e6d67744d5334314d7a5a324d5334314d7a566f4c5445754e544d32646a59754d54517a614445754e544d32646a45754e544d32614445754e544d32646a45754e544d32614459754d54517a566a45344e433431614445754e544d31646930784c6a557a4e6b67784e7a56324c5459754d54517a614330784c6a557a4e6e59744d5334314d7a566f4c5445754e544d31646930784c6a557a4e6c70744c5459754d54517a494459754d54517a614445754e544d31646a45754e544d31614330784c6a557a4e5859744d5334314d7a566162544d754d446378494445754e544d31646a45754e544d32614330784c6a557a4e6e59744d5334314d7a5a6f4d5334314d7a5a61625445754e544d324c5445754e544d31614330784c6a557a4e6e59784c6a557a4e5767784c6a557a4e6e59744d5334314d7a5661625441674d4859744d5334314d7a5a6f4d5334314d7a5a324d5334314d7a5a6f4c5445754e544d325769496759327870634331796457786c50534a6c646d56756232526b4969382b5043397a646d632ba2646970667358221220e33850d9eeb87a4b8b66e2ad49cb58c7690589915b94196b70af20f536575f3d64736f6c63430008120033",
			"opcodes": "PUSH1 0x80 PUSH1 0x40 MSTORE PUSH4 0x63E97D80 PUSH1 0x9 SSTORE CALLVALUE DUP1 ISZERO PUSH3 0x19 JUMPI PUSH1 0x0 DUP1 REVERT JUMPDEST POP PUSH1 0x40 MLOAD DUP1 PUSH1 0x40 ADD PUSH1 0x40 MSTORE DUP1 PUSH1 0x10 DUP2 MSTORE PUSH1 0x20 ADD PUSH32 0x53757065726275726E20536E61636B7300000000000000000000000000000000 DUP2 MSTORE POP PUSH1 0x40 MLOAD DUP1 PUSH1 0x40 ADD PUSH1 0x40 MSTORE DUP1 PUSH1 0x6 DUP2 MSTORE PUSH1 0x20 ADD PUSH32 0x534E41434B530000000000000000000000000000000000000000000000000000 DUP2 MSTORE POP DUP2 PUSH1 0x2 SWAP1 DUP2 PUSH3 0x97 SWAP2 SWAP1 PUSH3 0x439 JUMP JUMPDEST POP DUP1 PUSH1 0x3 SWAP1 DUP2 PUSH3 0xA9 SWAP2 SWAP1 PUSH3 0x439 JUMP JUMPDEST POP PUSH3 0xBA PUSH3 0xE8 PUSH1 0x20 SHL PUSH1 0x20 SHR JUMP JUMPDEST PUSH1 0x0 DUP2 SWAP1 SSTORE POP POP POP PUSH3 0xE2 PUSH3 0xD6 PUSH3 0xF1 PUSH1 0x20 SHL PUSH1 0x20 SHR JUMP JUMPDEST PUSH3 0xF9 PUSH1 0x20 SHL PUSH1 0x20 SHR JUMP JUMPDEST PUSH3 0x520 JUMP JUMPDEST PUSH1 0x0 PUSH1 0x1 SWAP1 POP SWAP1 JUMP JUMPDEST PUSH1 0x0 CALLER SWAP1 POP SWAP1 JUMP JUMPDEST PUSH1 0x0 PUSH1 0x8 PUSH1 0x0 SWAP1 SLOAD SWAP1 PUSH2 0x100 EXP SWAP1 DIV PUSH20 0xFFFFFFFFFFFFFFFFFFFFFFFFFFFFFFFFFFFFFFFF AND SWAP1 POP DUP2 PUSH1 0x8 PUSH1 0x0 PUSH2 0x100 EXP DUP2 SLOAD DUP2 PUSH20 0xFFFFFFFFFFFFFFFFFFFFFFFFFFFFFFFFFFFFFFFF MUL NOT AND SWAP1 DUP4 PUSH20 0xFFFFFFFFFFFFFFFFFFFFFFFFFFFFFFFFFFFFFFFF AND MUL OR SWAP1 SSTORE POP DUP2 PUSH20 0xFFFFFFFFFFFFFFFFFFFFFFFFFFFFFFFFFFFFFFFF AND DUP2 PUSH20 0xFFFFFFFFFFFFFFFFFFFFFFFFFFFFFFFFFFFFFFFF AND PUSH32 0x8BE0079C531659141344CD1FD0A4F28419497F9722A3DAAFE3B4186F6B6457E0 PUSH1 0x40 MLOAD PUSH1 0x40 MLOAD DUP1 SWAP2 SUB SWAP1 LOG3 POP POP JUMP JUMPDEST PUSH1 0x0 DUP2 MLOAD SWAP1 POP SWAP2 SWAP1 POP JUMP JUMPDEST PUSH32 0x4E487B7100000000000000000000000000000000000000000000000000000000 PUSH1 0x0 MSTORE PUSH1 0x41 PUSH1 0x4 MSTORE PUSH1 0x24 PUSH1 0x0 REVERT JUMPDEST PUSH32 0x4E487B7100000000000000000000000000000000000000000000000000000000 PUSH1 0x0 MSTORE PUSH1 0x22 PUSH1 0x4 MSTORE PUSH1 0x24 PUSH1 0x0 REVERT JUMPDEST PUSH1 0x0 PUSH1 0x2 DUP3 DIV SWAP1 POP PUSH1 0x1 DUP3 AND DUP1 PUSH3 0x241 JUMPI PUSH1 0x7F DUP3 AND SWAP2 POP JUMPDEST PUSH1 0x20 DUP3 LT DUP2 SUB PUSH3 0x257 JUMPI PUSH3 0x256 PUSH3 0x1F9 JUMP JUMPDEST JUMPDEST POP SWAP2 SWAP1 POP JUMP JUMPDEST PUSH1 0x0 DUP2 SWAP1 POP DUP2 PUSH1 0x0 MSTORE PUSH1 0x20 PUSH1 0x0 KECCAK256 SWAP1 POP SWAP2 SWAP1 POP JUMP JUMPDEST PUSH1 0x0 PUSH1 0x20 PUSH1 0x1F DUP4 ADD DIV SWAP1 POP SWAP2 SWAP1 POP JUMP JUMPDEST PUSH1 0x0 DUP3 DUP3 SHL SWAP1 POP SWAP3 SWAP2 POP POP JUMP JUMPDEST PUSH1 0x0 PUSH1 0x8 DUP4 MUL PUSH3 0x2C1 PUSH32 0xFFFFFFFFFFFFFFFFFFFFFFFFFFFFFFFFFFFFFFFFFFFFFFFFFFFFFFFFFFFFFFFF DUP3 PUSH3 0x282 JUMP JUMPDEST PUSH3 0x2CD DUP7 DUP4 PUSH3 0x282 JUMP JUMPDEST SWAP6 POP DUP1 NOT DUP5 AND SWAP4 POP DUP1 DUP7 AND DUP5 OR SWAP3 POP POP POP SWAP4 SWAP3 POP POP POP JUMP JUMPDEST PUSH1 0x0 DUP2 SWAP1 POP SWAP2 SWAP1 POP JUMP JUMPDEST PUSH1 0x0 DUP2 SWAP1 POP SWAP2 SWAP1 POP JUMP JUMPDEST PUSH1 0x0 PUSH3 0x31A PUSH3 0x314 PUSH3 0x30E DUP5 PUSH3 0x2E5 JUMP JUMPDEST PUSH3 0x2EF JUMP JUMPDEST PUSH3 0x2E5 JUMP JUMPDEST SWAP1 POP SWAP2 SWAP1 POP JUMP JUMPDEST PUSH1 0x0 DUP2 SWAP1 POP SWAP2 SWAP1 POP JUMP JUMPDEST PUSH3 0x336 DUP4 PUSH3 0x2F9 JUMP JUMPDEST PUSH3 0x34E PUSH3 0x345 DUP3 PUSH3 0x321 JUMP JUMPDEST DUP5 DUP5 SLOAD PUSH3 0x28F JUMP JUMPDEST DUP3 SSTORE POP POP POP POP JUMP JUMPDEST PUSH1 0x0 SWAP1 JUMP JUMPDEST PUSH3 0x365 PUSH3 0x356 JUMP JUMPDEST PUSH3 0x372 DUP2 DUP5 DUP5 PUSH3 0x32B JUMP JUMPDEST POP POP POP JUMP JUMPDEST JUMPDEST DUP2 DUP2 LT ISZERO PUSH3 0x39A JUMPI PUSH3 0x38E PUSH1 0x0 DUP3 PUSH3 0x35B JUMP JUMPDEST PUSH1 0x1 DUP2 ADD SWAP1 POP PUSH3 0x378 JUMP JUMPDEST POP POP JUMP JUMPDEST PUSH1 0x1F DUP3 GT ISZERO PUSH3 0x3E9 JUMPI PUSH3 0x3B3 DUP2 PUSH3 0x25D JUMP JUMPDEST PUSH3 0x3BE DUP5 PUSH3 0x272 JUMP JUMPDEST DUP2 ADD PUSH1 0x20 DUP6 LT ISZERO PUSH3 0x3CE JUMPI DUP2 SWAP1 POP JUMPDEST PUSH3 0x3E6 PUSH3 0x3DD DUP6 PUSH3 0x272 JUMP JUMPDEST DUP4 ADD DUP3 PUSH3 0x377 JUMP JUMPDEST POP POP JUMPDEST POP POP POP JUMP JUMPDEST PUSH1 0x0 DUP3 DUP3 SHR SWAP1 POP SWAP3 SWAP2 POP POP JUMP JUMPDEST PUSH1 0x0 PUSH3 0x40E PUSH1 0x0 NOT DUP5 PUSH1 0x8 MUL PUSH3 0x3EE JUMP JUMPDEST NOT DUP1 DUP4 AND SWAP2 POP POP SWAP3 SWAP2 POP POP JUMP JUMPDEST PUSH1 0x0 PUSH3 0x429 DUP4 DUP4 PUSH3 0x3FB JUMP JUMPDEST SWAP2 POP DUP3 PUSH1 0x2 MUL DUP3 OR SWAP1 POP SWAP3 SWAP2 POP POP JUMP JUMPDEST PUSH3 0x444 DUP3 PUSH3 0x1BF JUMP JUMPDEST PUSH8 0xFFFFFFFFFFFFFFFF DUP2 GT ISZERO PUSH3 0x460 JUMPI PUSH3 0x45F PUSH3 0x1CA JUMP JUMPDEST JUMPDEST PUSH3 0x46C DUP3 SLOAD PUSH3 0x228 JUMP JUMPDEST PUSH3 0x479 DUP3 DUP3 DUP6 PUSH3 0x39E JUMP JUMPDEST PUSH1 0x0 PUSH1 0x20 SWAP1 POP PUSH1 0x1F DUP4 GT PUSH1 0x1 DUP2 EQ PUSH3 0x4B1 JUMPI PUSH1 0x0 DUP5 ISZERO PUSH3 0x49C JUMPI DUP3 DUP8 ADD MLOAD SWAP1 POP JUMPDEST PUSH3 0x4A8 DUP6 DUP3 PUSH3 0x41B JUMP JUMPDEST DUP7 SSTORE POP PUSH3 0x518 JUMP JUMPDEST PUSH1 0x1F NOT DUP5 AND PUSH3 0x4C1 DUP7 PUSH3 0x25D JUMP JUMPDEST PUSH1 0x0 JUMPDEST DUP3 DUP2 LT ISZERO PUSH3 0x4EB JUMPI DUP5 DUP10 ADD MLOAD DUP3 SSTORE PUSH1 0x1 DUP3 ADD SWAP2 POP PUSH1 0x20 DUP6 ADD SWAP5 POP PUSH1 0x20 DUP2 ADD SWAP1 POP PUSH3 0x4C4 JUMP JUMPDEST DUP7 DUP4 LT ISZERO PUSH3 0x50B JUMPI DUP5 DUP10 ADD MLOAD PUSH3 0x507 PUSH1 0x1F DUP10 AND DUP3 PUSH3 0x3FB JUMP JUMPDEST DUP4 SSTORE POP JUMPDEST PUSH1 0x1 PUSH1 0x2 DUP9 MUL ADD DUP9 SSTORE POP POP POP JUMPDEST POP POP POP POP POP POP JUMP JUMPDEST PUSH2 0x5C89 DUP1 PUSH3 0x530 PUSH1 0x0 CODECOPY PUSH1 0x0 RETURN INVALID PUSH1 0x80 PUSH1 0x40 MSTORE PUSH1 0x4 CALLDATASIZE LT PUSH2 0x12A JUMPI PUSH1 0x0 CALLDATALOAD PUSH1 0xE0 SHR DUP1 PUSH4 0x715018A6 GT PUSH2 0xAB JUMPI DUP1 PUSH4 0xA22CB465 GT PUSH2 0x6F JUMPI DUP1 PUSH4 0xA22CB465 EQ PUSH2 0x3D0 JUMPI DUP1 PUSH4 0xB88D4FDE EQ PUSH2 0x3F9 JUMPI DUP1 PUSH4 0xC87B56DD EQ PUSH2 0x415 JUMPI DUP1 PUSH4 0xE7572230 EQ PUSH2 0x452 JUMPI DUP1 PUSH4 0xE985E9C5 EQ PUSH2 0x48F JUMPI DUP1 PUSH4 0xF2FDE38B EQ PUSH2 0x4CC JUMPI PUSH2 0x12A JUMP JUMPDEST DUP1 PUSH4 0x715018A6 EQ PUSH2 0x30A JUMPI DUP1 PUSH4 0x85BB3654 EQ PUSH2 0x321 JUMPI DUP1 PUSH4 0x8DA5CB5B EQ PUSH2 0x35E JUMPI DUP1 PUSH4 0x95D89B41 EQ PUSH2 0x389 JUMPI DUP1 PUSH4 0xA0712D68 EQ PUSH2 0x3B4 JUMPI PUSH2 0x12A JUMP JUMPDEST DUP1 PUSH4 0x23B872DD GT PUSH2 0xF2 JUMPI DUP1 PUSH4 0x23B872DD EQ PUSH2 0x21B JUMPI DUP1 PUSH4 0x42842E0E EQ PUSH2 0x237 JUMPI DUP1 PUSH4 0x6352211E EQ PUSH2 0x253 JUMPI DUP1 PUSH4 0x65AE654E EQ PUSH2 0x290 JUMPI DUP1 PUSH4 0x70A08231 EQ PUSH2 0x2CD JUMPI PUSH2 0x12A JUMP JUMPDEST DUP1 PUSH4 0x1FFC9A7 EQ PUSH2 0x12F JUMPI DUP1 PUSH4 0x6FDDE03 EQ PUSH2 0x16C JUMPI DUP1 PUSH4 0x81812FC EQ PUSH2 0x197 JUMPI DUP1 PUSH4 0x95EA7B3 EQ PUSH2 0x1D4 JUMPI DUP1 PUSH4 0x18160DDD EQ PUSH2 0x1F0 JUMPI JUMPDEST PUSH1 0x0 DUP1 REVERT JUMPDEST CALLVALUE DUP1 ISZERO PUSH2 0x13B JUMPI PUSH1 0x0 DUP1 REVERT JUMPDEST POP PUSH2 0x156 PUSH1 0x4 DUP1 CALLDATASIZE SUB DUP2 ADD SWAP1 PUSH2 0x151 SWAP2 SWAP1 PUSH2 0x1C1B JUMP JUMPDEST PUSH2 0x4F5 JUMP JUMPDEST PUSH1 0x40 MLOAD PUSH2 0x163 SWAP2 SWAP1 PUSH2 0x1C63 JUMP JUMPDEST PUSH1 0x40 MLOAD DUP1 SWAP2 SUB SWAP1 RETURN JUMPDEST CALLVALUE DUP1 ISZERO PUSH2 0x178 JUMPI PUSH1 0x0 DUP1 REVERT JUMPDEST POP PUSH2 0x181 PUSH2 0x587 JUMP JUMPDEST PUSH1 0x40 MLOAD PUSH2 0x18E SWAP2 SWAP1 PUSH2 0x1D0E JUMP JUMPDEST PUSH1 0x40 MLOAD DUP1 SWAP2 SUB SWAP1 RETURN JUMPDEST CALLVALUE DUP1 ISZERO PUSH2 0x1A3 JUMPI PUSH1 0x0 DUP1 REVERT JUMPDEST POP PUSH2 0x1BE PUSH1 0x4 DUP1 CALLDATASIZE SUB DUP2 ADD SWAP1 PUSH2 0x1B9 SWAP2 SWAP1 PUSH2 0x1D66 JUMP JUMPDEST PUSH2 0x619 JUMP JUMPDEST PUSH1 0x40 MLOAD PUSH2 0x1CB SWAP2 SWAP1 PUSH2 0x1DD4 JUMP JUMPDEST PUSH1 0x40 MLOAD DUP1 SWAP2 SUB SWAP1 RETURN JUMPDEST PUSH2 0x1EE PUSH1 0x4 DUP1 CALLDATASIZE SUB DUP2 ADD SWAP1 PUSH2 0x1E9 SWAP2 SWAP1 PUSH2 0x1E1B JUMP JUMPDEST PUSH2 0x698 JUMP JUMPDEST STOP JUMPDEST CALLVALUE DUP1 ISZERO PUSH2 0x1FC JUMPI PUSH1 0x0 DUP1 REVERT JUMPDEST POP PUSH2 0x205 PUSH2 0x7DC JUMP JUMPDEST PUSH1 0x40 MLOAD PUSH2 0x212 SWAP2 SWAP1 PUSH2 0x1E6A JUMP JUMPDEST PUSH1 0x40 MLOAD DUP1 SWAP2 SUB SWAP1 RETURN JUMPDEST PUSH2 0x235 PUSH1 0x4 DUP1 CALLDATASIZE SUB DUP2 ADD SWAP1 PUSH2 0x230 SWAP2 SWAP1 PUSH2 0x1E85 JUMP JUMPDEST PUSH2 0x7F3 JUMP JUMPDEST STOP JUMPDEST PUSH2 0x251 PUSH1 0x4 DUP1 CALLDATASIZE SUB DUP2 ADD SWAP1 PUSH2 0x24C SWAP2 SWAP1 PUSH2 0x1E85 JUMP JUMPDEST PUSH2 0xB15 JUMP JUMPDEST STOP JUMPDEST CALLVALUE DUP1 ISZERO PUSH2 0x25F JUMPI PUSH1 0x0 DUP1 REVERT JUMPDEST POP PUSH2 0x27A PUSH1 0x4 DUP1 CALLDATASIZE SUB DUP2 ADD SWAP1 PUSH2 0x275 SWAP2 SWAP1 PUSH2 0x1D66 JUMP JUMPDEST PUSH2 0xB35 JUMP JUMPDEST PUSH1 0x40 MLOAD PUSH2 0x287 SWAP2 SWAP1 PUSH2 0x1DD4 JUMP JUMPDEST PUSH1 0x40 MLOAD DUP1 SWAP2 SUB SWAP1 RETURN JUMPDEST CALLVALUE DUP1 ISZERO PUSH2 0x29C JUMPI PUSH1 0x0 DUP1 REVERT JUMPDEST POP PUSH2 0x2B7 PUSH1 0x4 DUP1 CALLDATASIZE SUB DUP2 ADD SWAP1 PUSH2 0x2B2 SWAP2 SWAP1 PUSH2 0x1D66 JUMP JUMPDEST PUSH2 0xB47 JUMP JUMPDEST PUSH1 0x40 MLOAD PUSH2 0x2C4 SWAP2 SWAP1 PUSH2 0x1E6A JUMP JUMPDEST PUSH1 0x40 MLOAD DUP1 SWAP2 SUB SWAP1 RETURN JUMPDEST CALLVALUE DUP1 ISZERO PUSH2 0x2D9 JUMPI PUSH1 0x0 DUP1 REVERT JUMPDEST POP PUSH2 0x2F4 PUSH1 0x4 DUP1 CALLDATASIZE SUB DUP2 ADD SWAP1 PUSH2 0x2EF SWAP2 SWAP1 PUSH2 0x1ED8 JUMP JUMPDEST PUSH2 0xB6D JUMP JUMPDEST PUSH1 0x40 MLOAD PUSH2 0x301 SWAP2 SWAP1 PUSH2 0x1E6A JUMP JUMPDEST PUSH1 0x40 MLOAD DUP1 SWAP2 SUB SWAP1 RETURN JUMPDEST CALLVALUE DUP1 ISZERO PUSH2 0x316 JUMPI PUSH1 0x0 DUP1 REVERT JUMPDEST POP PUSH2 0x31F PUSH2 0xC25 JUMP JUMPDEST STOP JUMPDEST CALLVALUE DUP1 ISZERO PUSH2 0x32D JUMPI PUSH1 0x0 DUP1 REVERT JUMPDEST POP PUSH2 0x348 PUSH1 0x4 DUP1 CALLDATASIZE SUB DUP2 ADD SWAP1 PUSH2 0x343 SWAP2 SWAP1 PUSH2 0x1D66 JUMP JUMPDEST PUSH2 0xC39 JUMP JUMPDEST PUSH1 0x40 MLOAD PUSH2 0x355 SWAP2 SWAP1 PUSH2 0x1E6A JUMP JUMPDEST PUSH1 0x40 MLOAD DUP1 SWAP2 SUB SWAP1 RETURN JUMPDEST CALLVALUE DUP1 ISZERO PUSH2 0x36A JUMPI PUSH1 0x0 DUP1 REVERT JUMPDEST POP PUSH2 0x373 PUSH2 0xC74 JUMP JUMPDEST PUSH1 0x40 MLOAD PUSH2 0x380 SWAP2 SWAP1 PUSH2 0x1DD4 JUMP JUMPDEST PUSH1 0x40 MLOAD DUP1 SWAP2 SUB SWAP1 RETURN JUMPDEST CALLVALUE DUP1 ISZERO PUSH2 0x395 JUMPI PUSH1 0x0 DUP1 REVERT JUMPDEST POP PUSH2 0x39E PUSH2 0xC9E JUMP JUMPDEST PUSH1 0x40 MLOAD PUSH2 0x3AB SWAP2 SWAP1 PUSH2 0x1D0E JUMP JUMPDEST PUSH1 0x40 MLOAD DUP1 SWAP2 SUB SWAP1 RETURN JUMPDEST PUSH2 0x3CE PUSH1 0x4 DUP1 CALLDATASIZE SUB DUP2 ADD SWAP1 PUSH2 0x3C9 SWAP2 SWAP1 PUSH2 0x1D66 JUMP JUMPDEST PUSH2 0xD30 JUMP JUMPDEST STOP JUMPDEST CALLVALUE DUP1 ISZERO PUSH2 0x3DC JUMPI PUSH1 0x0 DUP1 REVERT JUMPDEST POP PUSH2 0x3F7 PUSH1 0x4 DUP1 CALLDATASIZE SUB DUP2 ADD SWAP1 PUSH2 0x3F2 SWAP2 SWAP1 PUSH2 0x1F31 JUMP JUMPDEST PUSH2 0xE11 JUMP JUMPDEST STOP JUMPDEST PUSH2 0x413 PUSH1 0x4 DUP1 CALLDATASIZE SUB DUP2 ADD SWAP1 PUSH2 0x40E SWAP2 SWAP1 PUSH2 0x20A6 JUMP JUMPDEST PUSH2 0xF1C JUMP JUMPDEST STOP JUMPDEST CALLVALUE DUP1 ISZERO PUSH2 0x421 JUMPI PUSH1 0x0 DUP1 REVERT JUMPDEST POP PUSH2 0x43C PUSH1 0x4 DUP1 CALLDATASIZE SUB DUP2 ADD SWAP1 PUSH2 0x437 SWAP2 SWAP1 PUSH2 0x1D66 JUMP JUMPDEST PUSH2 0xF8F JUMP JUMPDEST PUSH1 0x40 MLOAD PUSH2 0x449 SWAP2 SWAP1 PUSH2 0x1D0E JUMP JUMPDEST PUSH1 0x40 MLOAD DUP1 SWAP2 SUB SWAP1 RETURN JUMPDEST CALLVALUE DUP1 ISZERO PUSH2 0x45E JUMPI PUSH1 0x0 DUP1 REVERT JUMPDEST POP PUSH2 0x479 PUSH1 0x4 DUP1 CALLDATASIZE SUB DUP2 ADD SWAP1 PUSH2 0x474 SWAP2 SWAP1 PUSH2 0x1D66 JUMP JUMPDEST PUSH2 0xFA1 JUMP JUMPDEST PUSH1 0x40 MLOAD PUSH2 0x486 SWAP2 SWAP1 PUSH2 0x1E6A JUMP JUMPDEST PUSH1 0x40 MLOAD DUP1 SWAP2 SUB SWAP1 RETURN JUMPDEST CALLVALUE DUP1 ISZERO PUSH2 0x49B JUMPI PUSH1 0x0 DUP1 REVERT JUMPDEST POP PUSH2 0x4B6 PUSH1 0x4 DUP1 CALLDATASIZE SUB DUP2 ADD SWAP1 PUSH2 0x4B1 SWAP2 SWAP1 PUSH2 0x2129 JUMP JUMPDEST PUSH2 0x10AD JUMP JUMPDEST PUSH1 0x40 MLOAD PUSH2 0x4C3 SWAP2 SWAP1 PUSH2 0x1C63 JUMP JUMPDEST PUSH1 0x40 MLOAD DUP1 SWAP2 SUB SWAP1 RETURN JUMPDEST CALLVALUE DUP1 ISZERO PUSH2 0x4D8 JUMPI PUSH1 0x0 DUP1 REVERT JUMPDEST POP PUSH2 0x4F3 PUSH1 0x4 DUP1 CALLDATASIZE SUB DUP2 ADD SWAP1 PUSH2 0x4EE SWAP2 SWAP1 PUSH2 0x1ED8 JUMP JUMPDEST PUSH2 0x1141 JUMP JUMPDEST STOP JUMPDEST PUSH1 0x0 PUSH4 0x1FFC9A7 PUSH1 0xE0 SHL DUP3 PUSH28 0xFFFFFFFFFFFFFFFFFFFFFFFFFFFFFFFFFFFFFFFFFFFFFFFFFFFFFFFF NOT AND EQ DUP1 PUSH2 0x550 JUMPI POP PUSH4 0x80AC58CD PUSH1 0xE0 SHL DUP3 PUSH28 0xFFFFFFFFFFFFFFFFFFFFFFFFFFFFFFFFFFFFFFFFFFFFFFFFFFFFFFFF NOT AND EQ JUMPDEST DUP1 PUSH2 0x580 JUMPI POP PUSH4 0x5B5E139F PUSH1 0xE0 SHL DUP3 PUSH28 0xFFFFFFFFFFFFFFFFFFFFFFFFFFFFFFFFFFFFFFFFFFFFFFFFFFFFFFFF NOT AND EQ JUMPDEST SWAP1 POP SWAP2 SWAP1 POP JUMP JUMPDEST PUSH1 0x60 PUSH1 0x2 DUP1 SLOAD PUSH2 0x596 SWAP1 PUSH2 0x2198 JUMP JUMPDEST DUP1 PUSH1 0x1F ADD PUSH1 0x20 DUP1 SWAP2 DIV MUL PUSH1 0x20 ADD PUSH1 0x40 MLOAD SWAP1 DUP2 ADD PUSH1 0x40 MSTORE DUP1 SWAP3 SWAP2 SWAP1 DUP2 DUP2 MSTORE PUSH1 0x20 ADD DUP3 DUP1 SLOAD PUSH2 0x5C2 SWAP1 PUSH2 0x2198 JUMP JUMPDEST DUP1 ISZERO PUSH2 0x60F JUMPI DUP1 PUSH1 0x1F LT PUSH2 0x5E4 JUMPI PUSH2 0x100 DUP1 DUP4 SLOAD DIV MUL DUP4 MSTORE SWAP2 PUSH1 0x20 ADD SWAP2 PUSH2 0x60F JUMP JUMPDEST DUP3 ADD SWAP2 SWAP1 PUSH1 0x0 MSTORE PUSH1 0x20 PUSH1 0x0 KECCAK256 SWAP1 JUMPDEST DUP2 SLOAD DUP2 MSTORE SWAP1 PUSH1 0x1 ADD SWAP1 PUSH1 0x20 ADD DUP1 DUP4 GT PUSH2 0x5F2 JUMPI DUP3 SWAP1 SUB PUSH1 0x1F AND DUP3 ADD SWAP2 JUMPDEST POP POP POP POP POP SWAP1 POP SWAP1 JUMP JUMPDEST PUSH1 0x0 PUSH2 0x624 DUP3 PUSH2 0x11C4 JUMP JUMPDEST PUSH2 0x65A JUMPI PUSH1 0x40 MLOAD PUSH32 0xCF4700E400000000000000000000000000000000000000000000000000000000 DUP2 MSTORE PUSH1 0x4 ADD PUSH1 0x40 MLOAD DUP1 SWAP2 SUB SWAP1 REVERT JUMPDEST PUSH1 0x6 PUSH1 0x0 DUP4 DUP2 MSTORE PUSH1 0x20 ADD SWAP1 DUP2 MSTORE PUSH1 0x20 ADD PUSH1 0x0 KECCAK256 PUSH1 0x0 ADD PUSH1 0x0 SWAP1 SLOAD SWAP1 PUSH2 0x100 EXP SWAP1 DIV PUSH20 0xFFFFFFFFFFFFFFFFFFFFFFFFFFFFFFFFFFFFFFFF AND SWAP1 POP SWAP2 SWAP1 POP JUMP JUMPDEST PUSH1 0x0 PUSH2 0x6A3 DUP3 PUSH2 0xB35 JUMP JUMPDEST SWAP1 POP DUP1 PUSH20 0xFFFFFFFFFFFFFFFFFFFFFFFFFFFFFFFFFFFFFFFF AND PUSH2 0x6C4 PUSH2 0x1223 JUMP JUMPDEST PUSH20 0xFFFFFFFFFFFFFFFFFFFFFFFFFFFFFFFFFFFFFFFF AND EQ PUSH2 0x727 JUMPI PUSH2 0x6F0 DUP2 PUSH2 0x6EB PUSH2 0x1223 JUMP JUMPDEST PUSH2 0x10AD JUMP JUMPDEST PUSH2 0x726 JUMPI PUSH1 0x40 MLOAD PUSH32 0xCFB3B94200000000000000000000000000000000000000000000000000000000 DUP2 MSTORE PUSH1 0x4 ADD PUSH1 0x40 MLOAD DUP1 SWAP2 SUB SWAP1 REVERT JUMPDEST JUMPDEST DUP3 PUSH1 0x6 PUSH1 0x0 DUP5 DUP2 MSTORE PUSH1 0x20 ADD SWAP1 DUP2 MSTORE PUSH1 0x20 ADD PUSH1 0x0 KECCAK256 PUSH1 0x0 ADD PUSH1 0x0 PUSH2 0x100 EXP DUP2 SLOAD DUP2 PUSH20 0xFFFFFFFFFFFFFFFFFFFFFFFFFFFFFFFFFFFFFFFF MUL NOT AND SWAP1 DUP4 PUSH20 0xFFFFFFFFFFFFFFFFFFFFFFFFFFFFFFFFFFFFFFFF AND MUL OR SWAP1 SSTORE POP DUP2 DUP4 PUSH20 0xFFFFFFFFFFFFFFFFFFFFFFFFFFFFFFFFFFFFFFFF AND DUP3 PUSH20 0xFFFFFFFFFFFFFFFFFFFFFFFFFFFFFFFFFFFFFFFF AND PUSH32 0x8C5BE1E5EBEC7D5BD14F71427D1E84F3DD0314C0F7B2291E5B200AC8C7C3B925 PUSH1 0x40 MLOAD PUSH1 0x40 MLOAD DUP1 SWAP2 SUB SWAP1 LOG4 POP POP POP JUMP JUMPDEST PUSH1 0x0 PUSH2 0x7E6 PUSH2 0x122B JUMP JUMPDEST PUSH1 0x1 SLOAD PUSH1 0x0 SLOAD SUB SUB SWAP1 POP SWAP1 JUMP JUMPDEST PUSH1 0x0 PUSH2 0x7FE DUP3 PUSH2 0x1234 JUMP JUMPDEST SWAP1 POP DUP4 PUSH20 0xFFFFFFFFFFFFFFFFFFFFFFFFFFFFFFFFFFFFFFFF AND DUP2 PUSH20 0xFFFFFFFFFFFFFFFFFFFFFFFFFFFFFFFFFFFFFFFF AND EQ PUSH2 0x865 JUMPI PUSH1 0x40 MLOAD PUSH32 0xA114810000000000000000000000000000000000000000000000000000000000 DUP2 MSTORE PUSH1 0x4 ADD PUSH1 0x40 MLOAD DUP1 SWAP2 SUB SWAP1 REVERT JUMPDEST PUSH1 0x0 DUP1 PUSH2 0x871 DUP5 PUSH2 0x1300 JUMP JUMPDEST SWAP2 POP SWAP2 POP PUSH2 0x887 DUP2 DUP8 PUSH2 0x882 PUSH2 0x1223 JUMP JUMPDEST PUSH2 0x1327 JUMP JUMPDEST PUSH2 0x8D3 JUMPI PUSH2 0x89C DUP7 PUSH2 0x897 PUSH2 0x1223 JUMP JUMPDEST PUSH2 0x10AD JUMP JUMPDEST PUSH2 0x8D2 JUMPI PUSH1 0x40 MLOAD PUSH32 0x59C896BE00000000000000000000000000000000000000000000000000000000 DUP2 MSTORE PUSH1 0x4 ADD PUSH1 0x40 MLOAD DUP1 SWAP2 SUB SWAP1 REVERT JUMPDEST JUMPDEST PUSH1 0x0 PUSH20 0xFFFFFFFFFFFFFFFFFFFFFFFFFFFFFFFFFFFFFFFF AND DUP6 PUSH20 0xFFFFFFFFFFFFFFFFFFFFFFFFFFFFFFFFFFFFFFFF AND SUB PUSH2 0x939 JUMPI PUSH1 0x40 MLOAD PUSH32 0xEA553B3400000000000000000000000000000000000000000000000000000000 DUP2 MSTORE PUSH1 0x4 ADD PUSH1 0x40 MLOAD DUP1 SWAP2 SUB SWAP1 REVERT JUMPDEST PUSH2 0x946 DUP7 DUP7 DUP7 PUSH1 0x1 PUSH2 0x136B JUMP JUMPDEST DUP1 ISZERO PUSH2 0x951 JUMPI PUSH1 0x0 DUP3 SSTORE JUMPDEST PUSH1 0x5 PUSH1 0x0 DUP8 PUSH20 0xFFFFFFFFFFFFFFFFFFFFFFFFFFFFFFFFFFFFFFFF AND PUSH20 0xFFFFFFFFFFFFFFFFFFFFFFFFFFFFFFFFFFFFFFFF AND DUP2 MSTORE PUSH1 0x20 ADD SWAP1 DUP2 MSTORE PUSH1 0x20 ADD PUSH1 0x0 KECCAK256 PUSH1 0x0 DUP2 SLOAD PUSH1 0x1 SWAP1 SUB SWAP2 SWAP1 POP DUP2 SWAP1 SSTORE POP PUSH1 0x5 PUSH1 0x0 DUP7 PUSH20 0xFFFFFFFFFFFFFFFFFFFFFFFFFFFFFFFFFFFFFFFF AND PUSH20 0xFFFFFFFFFFFFFFFFFFFFFFFFFFFFFFFFFFFFFFFF AND DUP2 MSTORE PUSH1 0x20 ADD SWAP1 DUP2 MSTORE PUSH1 0x20 ADD PUSH1 0x0 KECCAK256 PUSH1 0x0 DUP2 SLOAD PUSH1 0x1 ADD SWAP2 SWAP1 POP DUP2 SWAP1 SSTORE POP PUSH2 0xA1F DUP6 PUSH2 0x9FB DUP9 DUP9 DUP8 PUSH2 0x1371 JUMP JUMPDEST PUSH29 0x200000000000000000000000000000000000000000000000000000000 OR PUSH2 0x1399 JUMP JUMPDEST PUSH1 0x4 PUSH1 0x0 DUP7 DUP2 MSTORE PUSH1 0x20 ADD SWAP1 DUP2 MSTORE PUSH1 0x20 ADD PUSH1 0x0 KECCAK256 DUP2 SWAP1 SSTORE POP PUSH1 0x0 PUSH29 0x200000000000000000000000000000000000000000000000000000000 DUP5 AND SUB PUSH2 0xAA5 JUMPI PUSH1 0x0 PUSH1 0x1 DUP6 ADD SWAP1 POP PUSH1 0x0 PUSH1 0x4 PUSH1 0x0 DUP4 DUP2 MSTORE PUSH1 0x20 ADD SWAP1 DUP2 MSTORE PUSH1 0x20 ADD PUSH1 0x0 KECCAK256 SLOAD SUB PUSH2 0xAA3 JUMPI PUSH1 0x0 SLOAD DUP2 EQ PUSH2 0xAA2 JUMPI DUP4 PUSH1 0x4 PUSH1 0x0 DUP4 DUP2 MSTORE PUSH1 0x20 ADD SWAP1 DUP2 MSTORE PUSH1 0x20 ADD PUSH1 0x0 KECCAK256 DUP2 SWAP1 SSTORE POP JUMPDEST JUMPDEST POP JUMPDEST DUP4 DUP6 PUSH20 0xFFFFFFFFFFFFFFFFFFFFFFFFFFFFFFFFFFFFFFFF AND DUP8 PUSH20 0xFFFFFFFFFFFFFFFFFFFFFFFFFFFFFFFFFFFFFFFF AND PUSH32 0xDDF252AD1BE2C89B69C2B068FC378DAA952BA7F163C4A11628F55A4DF523B3EF PUSH1 0x40 MLOAD PUSH1 0x40 MLOAD DUP1 SWAP2 SUB SWAP1 LOG4 PUSH2 0xB0D DUP7 DUP7 DUP7 PUSH1 0x1 PUSH2 0x13C4 JUMP JUMPDEST POP POP POP POP POP POP JUMP JUMPDEST PUSH2 0xB30 DUP4 DUP4 DUP4 PUSH1 0x40 MLOAD DUP1 PUSH1 0x20 ADD PUSH1 0x40 MSTORE DUP1 PUSH1 0x0 DUP2 MSTORE POP PUSH2 0xF1C JUMP JUMPDEST POP POP POP JUMP JUMPDEST PUSH1 0x0 PUSH2 0xB40 DUP3 PUSH2 0x1234 JUMP JUMPDEST SWAP1 POP SWAP2 SWAP1 POP JUMP JUMPDEST PUSH1 0x0 DUP2 TIMESTAMP GT PUSH2 0xB63 JUMPI TIMESTAMP DUP3 PUSH2 0xB5C SWAP2 SWAP1 PUSH2 0x21F8 JUMP JUMPDEST SWAP1 POP PUSH2 0xB68 JUMP JUMPDEST PUSH1 0x0 SWAP1 POP JUMPDEST SWAP2 SWAP1 POP JUMP JUMPDEST PUSH1 0x0 DUP1 PUSH20 0xFFFFFFFFFFFFFFFFFFFFFFFFFFFFFFFFFFFFFFFF AND DUP3 PUSH20 0xFFFFFFFFFFFFFFFFFFFFFFFFFFFFFFFFFFFFFFFF AND SUB PUSH2 0xBD4 JUMPI PUSH1 0x40 MLOAD PUSH32 0x8F4EB60400000000000000000000000000000000000000000000000000000000 DUP2 MSTORE PUSH1 0x4 ADD PUSH1 0x40 MLOAD DUP1 SWAP2 SUB SWAP1 REVERT JUMPDEST PUSH8 0xFFFFFFFFFFFFFFFF PUSH1 0x5 PUSH1 0x0 DUP5 PUSH20 0xFFFFFFFFFFFFFFFFFFFFFFFFFFFFFFFFFFFFFFFF AND PUSH20 0xFFFFFFFFFFFFFFFFFFFFFFFFFFFFFFFFFFFFFFFF AND DUP2 MSTORE PUSH1 0x20 ADD SWAP1 DUP2 MSTORE PUSH1 0x20 ADD PUSH1 0x0 KECCAK256 SLOAD AND SWAP1 POP SWAP2 SWAP1 POP JUMP JUMPDEST PUSH2 0xC2D PUSH2 0x13CA JUMP JUMPDEST PUSH2 0xC37 PUSH1 0x0 PUSH2 0x1448 JUMP JUMPDEST JUMP JUMPDEST PUSH1 0x0 PUSH1 0x3C PUSH2 0xC46 DUP4 PUSH2 0xB47 JUMP JUMPDEST LT PUSH2 0xC6A JUMPI PUSH1 0x3C TIMESTAMP DUP4 PUSH2 0xC59 SWAP2 SWAP1 PUSH2 0x21F8 JUMP JUMPDEST PUSH2 0xC63 SWAP2 SWAP1 PUSH2 0x225B JUMP JUMPDEST SWAP1 POP PUSH2 0xC6F JUMP JUMPDEST PUSH1 0x0 SWAP1 POP JUMPDEST SWAP2 SWAP1 POP JUMP JUMPDEST PUSH1 0x0 PUSH1 0x8 PUSH1 0x0 SWAP1 SLOAD SWAP1 PUSH2 0x100 EXP SWAP1 DIV PUSH20 0xFFFFFFFFFFFFFFFFFFFFFFFFFFFFFFFFFFFFFFFF AND SWAP1 POP SWAP1 JUMP JUMPDEST PUSH1 0x60 PUSH1 0x3 DUP1 SLOAD PUSH2 0xCAD SWAP1 PUSH2 0x2198 JUMP JUMPDEST DUP1 PUSH1 0x1F ADD PUSH1 0x20 DUP1 SWAP2 DIV MUL PUSH1 0x20 ADD PUSH1 0x40 MLOAD SWAP1 DUP2 ADD PUSH1 0x40 MSTORE DUP1 SWAP3 SWAP2 SWAP1 DUP2 DUP2 MSTORE PUSH1 0x20 ADD DUP3 DUP1 SLOAD PUSH2 0xCD9 SWAP1 PUSH2 0x2198 JUMP JUMPDEST DUP1 ISZERO PUSH2 0xD26 JUMPI DUP1 PUSH1 0x1F LT PUSH2 0xCFB JUMPI PUSH2 0x100 DUP1 DUP4 SLOAD DIV MUL DUP4 MSTORE SWAP2 PUSH1 0x20 ADD SWAP2 PUSH2 0xD26 JUMP JUMPDEST DUP3 ADD SWAP2 SWAP1 PUSH1 0x0 MSTORE PUSH1 0x20 PUSH1 0x0 KECCAK256 SWAP1 JUMPDEST DUP2 SLOAD DUP2 MSTORE SWAP1 PUSH1 0x1 ADD SWAP1 PUSH1 0x20 ADD DUP1 DUP4 GT PUSH2 0xD09 JUMPI DUP3 SWAP1 SUB PUSH1 0x1F AND DUP3 ADD SWAP2 JUMPDEST POP POP POP POP POP SWAP1 POP SWAP1 JUMP JUMPDEST PUSH2 0xD39 DUP2 PUSH2 0xFA1 JUMP JUMPDEST CALLVALUE LT ISZERO PUSH2 0xD7B JUMPI PUSH1 0x40 MLOAD PUSH32 0x8C379A000000000000000000000000000000000000000000000000000000000 DUP2 MSTORE PUSH1 0x4 ADD PUSH2 0xD72 SWAP1 PUSH2 0x22D8 JUMP JUMPDEST PUSH1 0x40 MLOAD DUP1 SWAP2 SUB SWAP1 REVERT JUMPDEST PUSH1 0x14 DUP2 GT ISZERO PUSH2 0xDBF JUMPI PUSH1 0x40 MLOAD PUSH32 0x8C379A000000000000000000000000000000000000000000000000000000000 DUP2 MSTORE PUSH1 0x4 ADD PUSH2 0xDB6 SWAP1 PUSH2 0x2344 JUMP JUMPDEST PUSH1 0x40 MLOAD DUP1 SWAP2 SUB SWAP1 REVERT JUMPDEST PUSH1 0x9 SLOAD TIMESTAMP GT ISZERO PUSH2 0xE04 JUMPI PUSH1 0x40 MLOAD PUSH32 0x8C379A000000000000000000000000000000000000000000000000000000000 DUP2 MSTORE PUSH1 0x4 ADD PUSH2 0xDFB SWAP1 PUSH2 0x23B0 JUMP JUMPDEST PUSH1 0x40 MLOAD DUP1 SWAP2 SUB SWAP1 REVERT JUMPDEST PUSH2 0xE0E CALLER DUP3 PUSH2 0x150E JUMP JUMPDEST POP JUMP JUMPDEST DUP1 PUSH1 0x7 PUSH1 0x0 PUSH2 0xE1E PUSH2 0x1223 JUMP JUMPDEST PUSH20 0xFFFFFFFFFFFFFFFFFFFFFFFFFFFFFFFFFFFFFFFF AND PUSH20 0xFFFFFFFFFFFFFFFFFFFFFFFFFFFFFFFFFFFFFFFF AND DUP2 MSTORE PUSH1 0x20 ADD SWAP1 DUP2 MSTORE PUSH1 0x20 ADD PUSH1 0x0 KECCAK256 PUSH1 0x0 DUP5 PUSH20 0xFFFFFFFFFFFFFFFFFFFFFFFFFFFFFFFFFFFFFFFF AND PUSH20 0xFFFFFFFFFFFFFFFFFFFFFFFFFFFFFFFFFFFFFFFF AND DUP2 MSTORE PUSH1 0x20 ADD SWAP1 DUP2 MSTORE PUSH1 0x20 ADD PUSH1 0x0 KECCAK256 PUSH1 0x0 PUSH2 0x100 EXP DUP2 SLOAD DUP2 PUSH1 0xFF MUL NOT AND SWAP1 DUP4 ISZERO ISZERO MUL OR SWAP1 SSTORE POP DUP2 PUSH20 0xFFFFFFFFFFFFFFFFFFFFFFFFFFFFFFFFFFFFFFFF AND PUSH2 0xECB PUSH2 0x1223 JUMP JUMPDEST PUSH20 0xFFFFFFFFFFFFFFFFFFFFFFFFFFFFFFFFFFFFFFFF AND PUSH32 0x17307EAB39AB6107E8899845AD3D59BD9653F200F220920489CA2B5937696C31 DUP4 PUSH1 0x40 MLOAD PUSH2 0xF10 SWAP2 SWAP1 PUSH2 0x1C63 JUMP JUMPDEST PUSH1 0x40 MLOAD DUP1 SWAP2 SUB SWAP1 LOG3 POP POP JUMP JUMPDEST PUSH2 0xF27 DUP5 DUP5 DUP5 PUSH2 0x7F3 JUMP JUMPDEST PUSH1 0x0 DUP4 PUSH20 0xFFFFFFFFFFFFFFFFFFFFFFFFFFFFFFFFFFFFFFFF AND EXTCODESIZE EQ PUSH2 0xF89 JUMPI PUSH2 0xF52 DUP5 DUP5 DUP5 DUP5 PUSH2 0x16C9 JUMP JUMPDEST PUSH2 0xF88 JUMPI PUSH1 0x40 MLOAD PUSH32 0xD1A57ED600000000000000000000000000000000000000000000000000000000 DUP2 MSTORE PUSH1 0x4 ADD PUSH1 0x40 MLOAD DUP1 SWAP2 SUB SWAP1 REVERT JUMPDEST JUMPDEST POP POP POP POP JUMP JUMPDEST PUSH1 0x60 PUSH2 0xF9A DUP3 PUSH2 0x1819 JUMP JUMPDEST SWAP1 POP SWAP2 SWAP1 POP JUMP JUMPDEST PUSH1 0x0 DUP1 PUSH1 0x0 SWAP1 POP PUSH1 0x0 JUMPDEST DUP4 DUP2 LT ISZERO PUSH2 0x10A3 JUMPI PUSH1 0x64 PUSH2 0xFBD PUSH2 0x189A JUMP JUMPDEST DUP3 PUSH2 0xFC8 SWAP2 SWAP1 PUSH2 0x23D0 JUMP JUMPDEST GT DUP1 ISZERO PUSH2 0xFE8 JUMPI POP PUSH2 0x3E9 PUSH2 0xFDB PUSH2 0x189A JUMP JUMPDEST DUP3 PUSH2 0xFE6 SWAP2 SWAP1 PUSH2 0x23D0 JUMP JUMPDEST LT JUMPDEST ISZERO PUSH2 0x1007 JUMPI PUSH7 0x38D7EA4C68000 DUP3 PUSH2 0x1000 SWAP2 SWAP1 PUSH2 0x23D0 JUMP JUMPDEST SWAP2 POP PUSH2 0x1090 JUMP JUMPDEST PUSH2 0x3E8 PUSH2 0x1012 PUSH2 0x189A JUMP JUMPDEST DUP3 PUSH2 0x101D SWAP2 SWAP1 PUSH2 0x23D0 JUMP JUMPDEST GT DUP1 ISZERO PUSH2 0x103D JUMPI POP PUSH2 0x1389 PUSH2 0x1030 PUSH2 0x189A JUMP JUMPDEST DUP3 PUSH2 0x103B SWAP2 SWAP1 PUSH2 0x23D0 JUMP JUMPDEST LT JUMPDEST ISZERO PUSH2 0x105C JUMPI PUSH7 0x11C37937E08000 DUP3 PUSH2 0x1055 SWAP2 SWAP1 PUSH2 0x23D0 JUMP JUMPDEST SWAP2 POP PUSH2 0x108F JUMP JUMPDEST PUSH2 0x1388 PUSH2 0x1067 PUSH2 0x189A JUMP JUMPDEST DUP3 PUSH2 0x1072 SWAP2 SWAP1 PUSH2 0x23D0 JUMP JUMPDEST GT ISZERO PUSH2 0x108E JUMPI PUSH7 0x2386F26FC10000 DUP3 PUSH2 0x108B SWAP2 SWAP1 PUSH2 0x23D0 JUMP JUMPDEST SWAP2 POP JUMPDEST JUMPDEST JUMPDEST DUP1 DUP1 PUSH2 0x109B SWAP1 PUSH2 0x2404 JUMP JUMPDEST SWAP2 POP POP PUSH2 0xFAB JUMP JUMPDEST POP DUP1 SWAP2 POP POP SWAP2 SWAP1 POP JUMP JUMPDEST PUSH1 0x0 PUSH1 0x7 PUSH1 0x0 DUP5 PUSH20 0xFFFFFFFFFFFFFFFFFFFFFFFFFFFFFFFFFFFFFFFF AND PUSH20 0xFFFFFFFFFFFFFFFFFFFFFFFFFFFFFFFFFFFFFFFF AND DUP2 MSTORE PUSH1 0x20 ADD SWAP1 DUP2 MSTORE PUSH1 0x20 ADD PUSH1 0x0 KECCAK256 PUSH1 0x0 DUP4 PUSH20 0xFFFFFFFFFFFFFFFFFFFFFFFFFFFFFFFFFFFFFFFF AND PUSH20 0xFFFFFFFFFFFFFFFFFFFFFFFFFFFFFFFFFFFFFFFF AND DUP2 MSTORE PUSH1 0x20 ADD SWAP1 DUP2 MSTORE PUSH1 0x20 ADD PUSH1 0x0 KECCAK256 PUSH1 0x0 SWAP1 SLOAD SWAP1 PUSH2 0x100 EXP SWAP1 DIV PUSH1 0xFF AND SWAP1 POP SWAP3 SWAP2 POP POP JUMP JUMPDEST PUSH2 0x1149 PUSH2 0x13CA JUMP JUMPDEST PUSH1 0x0 PUSH20 0xFFFFFFFFFFFFFFFFFFFFFFFFFFFFFFFFFFFFFFFF AND DUP2 PUSH20 0xFFFFFFFFFFFFFFFFFFFFFFFFFFFFFFFFFFFFFFFF AND SUB PUSH2 0x11B8 JUMPI PUSH1 0x40 MLOAD PUSH32 0x8C379A000000000000000000000000000000000000000000000000000000000 DUP2 MSTORE PUSH1 0x4 ADD PUSH2 0x11AF SWAP1 PUSH2 0x24BE JUMP JUMPDEST PUSH1 0x40 MLOAD DUP1 SWAP2 SUB SWAP1 REVERT JUMPDEST PUSH2 0x11C1 DUP2 PUSH2 0x1448 JUMP JUMPDEST POP JUMP JUMPDEST PUSH1 0x0 DUP2 PUSH2 0x11CF PUSH2 0x122B JUMP JUMPDEST GT ISZERO DUP1 ISZERO PUSH2 0x11DE JUMPI POP PUSH1 0x0 SLOAD DUP3 LT JUMPDEST DUP1 ISZERO PUSH2 0x121C JUMPI POP PUSH1 0x0 PUSH29 0x100000000000000000000000000000000000000000000000000000000 PUSH1 0x4 PUSH1 0x0 DUP6 DUP2 MSTORE PUSH1 0x20 ADD SWAP1 DUP2 MSTORE PUSH1 0x20 ADD PUSH1 0x0 KECCAK256 SLOAD AND EQ JUMPDEST SWAP1 POP SWAP2 SWAP1 POP JUMP JUMPDEST PUSH1 0x0 CALLER SWAP1 POP SWAP1 JUMP JUMPDEST PUSH1 0x0 PUSH1 0x1 SWAP1 POP SWAP1 JUMP JUMPDEST PUSH1 0x0 DUP1 DUP3 SWAP1 POP DUP1 PUSH2 0x1243 PUSH2 0x122B JUMP JUMPDEST GT PUSH2 0x12C9 JUMPI PUSH1 0x0 SLOAD DUP2 LT ISZERO PUSH2 0x12C8 JUMPI PUSH1 0x0 PUSH1 0x4 PUSH1 0x0 DUP4 DUP2 MSTORE PUSH1 0x20 ADD SWAP1 DUP2 MSTORE PUSH1 0x20 ADD PUSH1 0x0 KECCAK256 SLOAD SWAP1 POP PUSH1 0x0 PUSH29 0x100000000000000000000000000000000000000000000000000000000 DUP3 AND SUB PUSH2 0x12C6 JUMPI JUMPDEST PUSH1 0x0 DUP2 SUB PUSH2 0x12BC JUMPI PUSH1 0x4 PUSH1 0x0 DUP4 PUSH1 0x1 SWAP1 SUB SWAP4 POP DUP4 DUP2 MSTORE PUSH1 0x20 ADD SWAP1 DUP2 MSTORE PUSH1 0x20 ADD PUSH1 0x0 KECCAK256 SLOAD SWAP1 POP PUSH2 0x1292 JUMP JUMPDEST DUP1 SWAP3 POP POP POP PUSH2 0x12FB JUMP JUMPDEST POP JUMPDEST JUMPDEST PUSH1 0x40 MLOAD PUSH32 0xDF2D9B4200000000000000000000000000000000000000000000000000000000 DUP2 MSTORE PUSH1 0x4 ADD PUSH1 0x40 MLOAD DUP1 SWAP2 SUB SWAP1 REVERT JUMPDEST SWAP2 SWAP1 POP JUMP JUMPDEST PUSH1 0x0 DUP1 PUSH1 0x0 PUSH1 0x6 PUSH1 0x0 DUP6 DUP2 MSTORE PUSH1 0x20 ADD SWAP1 DUP2 MSTORE PUSH1 0x20 ADD PUSH1 0x0 KECCAK256 SWAP1 POP DUP1 SWAP3 POP DUP3 SLOAD SWAP2 POP POP SWAP2 POP SWAP2 JUMP JUMPDEST PUSH1 0x0 PUSH20 0xFFFFFFFFFFFFFFFFFFFFFFFFFFFFFFFFFFFFFFFF DUP4 AND SWAP3 POP PUSH20 0xFFFFFFFFFFFFFFFFFFFFFFFFFFFFFFFFFFFFFFFF DUP3 AND SWAP2 POP DUP4 DUP3 EQ DUP4 DUP4 EQ OR SWAP1 POP SWAP4 SWAP3 POP POP POP JUMP JUMPDEST POP POP POP POP JUMP JUMPDEST PUSH1 0x0 DUP1 PUSH1 0xE8 DUP4 SWAP1 SHR SWAP1 POP PUSH1 0xE8 PUSH2 0x1388 DUP7 DUP7 DUP5 PUSH2 0x18A3 JUMP JUMPDEST PUSH3 0xFFFFFF AND SWAP1 SHL SWAP2 POP POP SWAP4 SWAP3 POP POP POP JUMP JUMPDEST PUSH1 0x0 PUSH20 0xFFFFFFFFFFFFFFFFFFFFFFFFFFFFFFFFFFFFFFFF DUP4 AND SWAP3 POP DUP2 TIMESTAMP PUSH1 0xA0 SHL OR DUP4 OR SWAP1 POP SWAP3 SWAP2 POP POP JUMP JUMPDEST POP POP POP POP JUMP JUMPDEST PUSH2 0x13D2 PUSH2 0x18AC JUMP JUMPDEST PUSH20 0xFFFFFFFFFFFFFFFFFFFFFFFFFFFFFFFFFFFFFFFF AND PUSH2 0x13F0 PUSH2 0xC74 JUMP JUMPDEST PUSH20 0xFFFFFFFFFFFFFFFFFFFFFFFFFFFFFFFFFFFFFFFF AND EQ PUSH2 0x1446 JUMPI PUSH1 0x40 MLOAD PUSH32 0x8C379A000000000000000000000000000000000000000000000000000000000 DUP2 MSTORE PUSH1 0x4 ADD PUSH2 0x143D SWAP1 PUSH2 0x252A JUMP JUMPDEST PUSH1 0x40 MLOAD DUP1 SWAP2 SUB SWAP1 REVERT JUMPDEST JUMP JUMPDEST PUSH1 0x0 PUSH1 0x8 PUSH1 0x0 SWAP1 SLOAD SWAP1 PUSH2 0x100 EXP SWAP1 DIV PUSH20 0xFFFFFFFFFFFFFFFFFFFFFFFFFFFFFFFFFFFFFFFF AND SWAP1 POP DUP2 PUSH1 0x8 PUSH1 0x0 PUSH2 0x100 EXP DUP2 SLOAD DUP2 PUSH20 0xFFFFFFFFFFFFFFFFFFFFFFFFFFFFFFFFFFFFFFFF MUL NOT AND SWAP1 DUP4 PUSH20 0xFFFFFFFFFFFFFFFFFFFFFFFFFFFFFFFFFFFFFFFF AND MUL OR SWAP1 SSTORE POP DUP2 PUSH20 0xFFFFFFFFFFFFFFFFFFFFFFFFFFFFFFFFFFFFFFFF AND DUP2 PUSH20 0xFFFFFFFFFFFFFFFFFFFFFFFFFFFFFFFFFFFFFFFF AND PUSH32 0x8BE0079C531659141344CD1FD0A4F28419497F9722A3DAAFE3B4186F6B6457E0 PUSH1 0x40 MLOAD PUSH1 0x40 MLOAD DUP1 SWAP2 SUB SWAP1 LOG3 POP POP JUMP JUMPDEST PUSH1 0x0 DUP1 SLOAD SWAP1 POP PUSH1 0x0 DUP3 SUB PUSH2 0x154E JUMPI PUSH1 0x40 MLOAD PUSH32 0xB562E8DD00000000000000000000000000000000000000000000000000000000 DUP2 MSTORE PUSH1 0x4 ADD PUSH1 0x40 MLOAD DUP1 SWAP2 SUB SWAP1 REVERT JUMPDEST PUSH2 0x155B PUSH1 0x0 DUP5 DUP4 DUP6 PUSH2 0x136B JUMP JUMPDEST PUSH1 0x1 PUSH1 0x40 PUSH1 0x1 SWAP1 SHL OR DUP3 MUL PUSH1 0x5 PUSH1 0x0 DUP6 PUSH20 0xFFFFFFFFFFFFFFFFFFFFFFFFFFFFFFFFFFFFFFFF AND PUSH20 0xFFFFFFFFFFFFFFFFFFFFFFFFFFFFFFFFFFFFFFFF AND DUP2 MSTORE PUSH1 0x20 ADD SWAP1 DUP2 MSTORE PUSH1 0x20 ADD PUSH1 0x0 KECCAK256 PUSH1 0x0 DUP3 DUP3 SLOAD ADD SWAP3 POP POP DUP2 SWAP1 SSTORE POP PUSH2 0x15D2 DUP4 PUSH2 0x15C3 PUSH1 0x0 DUP7 PUSH1 0x0 PUSH2 0x1371 JUMP JUMPDEST PUSH2 0x15CC DUP6 PUSH2 0x18B4 JUMP JUMPDEST OR PUSH2 0x1399 JUMP JUMPDEST PUSH1 0x4 PUSH1 0x0 DUP4 DUP2 MSTORE PUSH1 0x20 ADD SWAP1 DUP2 MSTORE PUSH1 0x20 ADD PUSH1 0x0 KECCAK256 DUP2 SWAP1 SSTORE POP PUSH1 0x0 DUP1 DUP4 DUP4 ADD SWAP1 POP PUSH20 0xFFFFFFFFFFFFFFFFFFFFFFFFFFFFFFFFFFFFFFFF DUP6 AND SWAP2 POP DUP3 DUP3 PUSH1 0x0 PUSH32 0xDDF252AD1BE2C89B69C2B068FC378DAA952BA7F163C4A11628F55A4DF523B3EF PUSH1 0x0 DUP1 LOG4 PUSH1 0x1 DUP4 ADD JUMPDEST DUP2 DUP2 EQ PUSH2 0x1673 JUMPI DUP1 DUP4 PUSH1 0x0 PUSH32 0xDDF252AD1BE2C89B69C2B068FC378DAA952BA7F163C4A11628F55A4DF523B3EF PUSH1 0x0 DUP1 LOG4 PUSH1 0x1 DUP2 ADD SWAP1 POP PUSH2 0x1638 JUMP JUMPDEST POP PUSH1 0x0 DUP3 SUB PUSH2 0x16AE JUMPI PUSH1 0x40 MLOAD PUSH32 0x2E07630000000000000000000000000000000000000000000000000000000000 DUP2 MSTORE PUSH1 0x4 ADD PUSH1 0x40 MLOAD DUP1 SWAP2 SUB SWAP1 REVERT JUMPDEST DUP1 PUSH1 0x0 DUP2 SWAP1 SSTORE POP POP POP PUSH2 0x16C4 PUSH1 0x0 DUP5 DUP4 DUP6 PUSH2 0x13C4 JUMP JUMPDEST POP POP POP JUMP JUMPDEST PUSH1 0x0 DUP4 PUSH20 0xFFFFFFFFFFFFFFFFFFFFFFFFFFFFFFFFFFFFFFFF AND PUSH4 0x150B7A02 PUSH2 0x16EF PUSH2 0x1223 JUMP JUMPDEST DUP8 DUP7 DUP7 PUSH1 0x40 MLOAD DUP6 PUSH4 0xFFFFFFFF AND PUSH1 0xE0 SHL DUP2 MSTORE PUSH1 0x4 ADD PUSH2 0x1711 SWAP5 SWAP4 SWAP3 SWAP2 SWAP1 PUSH2 0x259F JUMP JUMPDEST PUSH1 0x20 PUSH1 0x40 MLOAD DUP1 DUP4 SUB DUP2 PUSH1 0x0 DUP8 GAS CALL SWAP3 POP POP POP DUP1 ISZERO PUSH2 0x174D JUMPI POP PUSH1 0x40 MLOAD RETURNDATASIZE PUSH1 0x1F NOT PUSH1 0x1F DUP3 ADD AND DUP3 ADD DUP1 PUSH1 0x40 MSTORE POP DUP2 ADD SWAP1 PUSH2 0x174A SWAP2 SWAP1 PUSH2 0x2600 JUMP JUMPDEST PUSH1 0x1 JUMPDEST PUSH2 0x17C6 JUMPI RETURNDATASIZE DUP1 PUSH1 0x0 DUP2 EQ PUSH2 0x177D JUMPI PUSH1 0x40 MLOAD SWAP2 POP PUSH1 0x1F NOT PUSH1 0x3F RETURNDATASIZE ADD AND DUP3 ADD PUSH1 0x40 MSTORE RETURNDATASIZE DUP3 MSTORE RETURNDATASIZE PUSH1 0x0 PUSH1 0x20 DUP5 ADD RETURNDATACOPY PUSH2 0x1782 JUMP JUMPDEST PUSH1 0x60 SWAP2 POP JUMPDEST POP PUSH1 0x0 DUP2 MLOAD SUB PUSH2 0x17BE JUMPI PUSH1 0x40 MLOAD PUSH32 0xD1A57ED600000000000000000000000000000000000000000000000000000000 DUP2 MSTORE PUSH1 0x4 ADD PUSH1 0x40 MLOAD DUP1 SWAP2 SUB SWAP1 REVERT JUMPDEST DUP1 MLOAD DUP2 PUSH1 0x20 ADD REVERT JUMPDEST PUSH4 0x150B7A02 PUSH1 0xE0 SHL PUSH28 0xFFFFFFFFFFFFFFFFFFFFFFFFFFFFFFFFFFFFFFFFFFFFFFFFFFFFFFFF NOT AND DUP2 PUSH28 0xFFFFFFFFFFFFFFFFFFFFFFFFFFFFFFFFFFFFFFFFFFFFFFFFFFFFFFFF NOT AND EQ SWAP2 POP POP SWAP5 SWAP4 POP POP POP POP JUMP JUMPDEST PUSH1 0x60 PUSH1 0x0 PUSH1 0x40 MLOAD DUP1 PUSH2 0x3360 ADD PUSH1 0x40 MSTORE DUP1 PUSH2 0x333A DUP2 MSTORE PUSH1 0x20 ADD PUSH2 0x291A PUSH2 0x333A SWAP2 CODECOPY SWAP1 POP PUSH1 0x0 PUSH2 0x1846 DUP5 PUSH2 0x18C4 JUMP JUMPDEST DUP3 PUSH1 0x40 MLOAD PUSH1 0x20 ADD PUSH2 0x1858 SWAP3 SWAP2 SWAP1 PUSH2 0x2773 JUMP JUMPDEST PUSH1 0x40 MLOAD PUSH1 0x20 DUP2 DUP4 SUB SUB DUP2 MSTORE SWAP1 PUSH1 0x40 MSTORE SWAP1 POP PUSH2 0x1872 DUP2 PUSH2 0x1A4C JUMP JUMPDEST PUSH1 0x40 MLOAD PUSH1 0x20 ADD PUSH2 0x1882 SWAP2 SWAP1 PUSH2 0x2804 JUMP JUMPDEST PUSH1 0x40 MLOAD PUSH1 0x20 DUP2 DUP4 SUB SUB DUP2 MSTORE SWAP1 PUSH1 0x40 MSTORE SWAP3 POP POP POP SWAP2 SWAP1 POP JUMP JUMPDEST PUSH1 0x0 DUP1 SLOAD SWAP1 POP SWAP1 JUMP JUMPDEST PUSH1 0x0 SWAP4 SWAP3 POP POP POP JUMP JUMPDEST PUSH1 0x0 CALLER SWAP1 POP SWAP1 JUMP JUMPDEST PUSH1 0x0 PUSH1 0x1 DUP3 EQ PUSH1 0xE1 SHL SWAP1 POP SWAP2 SWAP1 POP JUMP JUMPDEST PUSH1 0x60 PUSH1 0x0 DUP3 SUB PUSH2 0x190B JUMPI PUSH1 0x40 MLOAD DUP1 PUSH1 0x40 ADD PUSH1 0x40 MSTORE DUP1 PUSH1 0x1 DUP2 MSTORE PUSH1 0x20 ADD PUSH32 0x3000000000000000000000000000000000000000000000000000000000000000 DUP2 MSTORE POP SWAP1 POP PUSH2 0x1A47 JUMP JUMPDEST PUSH1 0x0 DUP3 SWAP1 POP PUSH1 0x0 JUMPDEST PUSH1 0x0 DUP3 EQ PUSH2 0x193D JUMPI DUP1 DUP1 PUSH2 0x1926 SWAP1 PUSH2 0x2404 JUMP JUMPDEST SWAP2 POP POP PUSH1 0xA DUP3 PUSH2 0x1936 SWAP2 SWAP1 PUSH2 0x225B JUMP JUMPDEST SWAP2 POP PUSH2 0x1913 JUMP JUMPDEST PUSH1 0x0 DUP2 PUSH8 0xFFFFFFFFFFFFFFFF DUP2 GT ISZERO PUSH2 0x1959 JUMPI PUSH2 0x1958 PUSH2 0x1F7B JUMP JUMPDEST JUMPDEST PUSH1 0x40 MLOAD SWAP1 DUP1 DUP3 MSTORE DUP1 PUSH1 0x1F ADD PUSH1 0x1F NOT AND PUSH1 0x20 ADD DUP3 ADD PUSH1 0x40 MSTORE DUP1 ISZERO PUSH2 0x198B JUMPI DUP2 PUSH1 0x20 ADD PUSH1 0x1 DUP3 MUL DUP1 CALLDATASIZE DUP4 CALLDATACOPY DUP1 DUP3 ADD SWAP2 POP POP SWAP1 POP JUMPDEST POP SWAP1 POP PUSH1 0x0 DUP3 SWAP1 POP JUMPDEST PUSH1 0x0 DUP7 EQ PUSH2 0x1A3F JUMPI PUSH1 0x1 DUP2 PUSH2 0x19A9 SWAP2 SWAP1 PUSH2 0x21F8 JUMP JUMPDEST SWAP1 POP PUSH1 0x0 PUSH1 0xA DUP1 DUP9 PUSH2 0x19BB SWAP2 SWAP1 PUSH2 0x225B JUMP JUMPDEST PUSH2 0x19C5 SWAP2 SWAP1 PUSH2 0x2826 JUMP JUMPDEST DUP8 PUSH2 0x19D0 SWAP2 SWAP1 PUSH2 0x21F8 JUMP JUMPDEST PUSH1 0x30 PUSH2 0x19DC SWAP2 SWAP1 PUSH2 0x2875 JUMP JUMPDEST SWAP1 POP PUSH1 0x0 DUP2 PUSH1 0xF8 SHL SWAP1 POP DUP1 DUP5 DUP5 DUP2 MLOAD DUP2 LT PUSH2 0x19FA JUMPI PUSH2 0x19F9 PUSH2 0x28AA JUMP JUMPDEST JUMPDEST PUSH1 0x20 ADD ADD SWAP1 PUSH31 0xFFFFFFFFFFFFFFFFFFFFFFFFFFFFFFFFFFFFFFFFFFFFFFFFFFFFFFFFFFFFFF NOT AND SWAP1 DUP2 PUSH1 0x0 BYTE SWAP1 MSTORE8 POP PUSH1 0xA DUP9 PUSH2 0x1A36 SWAP2 SWAP1 PUSH2 0x225B JUMP JUMPDEST SWAP8 POP POP POP PUSH2 0x1994 JUMP JUMPDEST DUP2 SWAP5 POP POP POP POP POP JUMPDEST SWAP2 SWAP1 POP JUMP JUMPDEST PUSH1 0x60 PUSH1 0x0 DUP3 MLOAD SUB PUSH2 0x1A6E JUMPI PUSH1 0x40 MLOAD DUP1 PUSH1 0x20 ADD PUSH1 0x40 MSTORE DUP1 PUSH1 0x0 DUP2 MSTORE POP SWAP1 POP PUSH2 0x1BAA JUMP JUMPDEST PUSH1 0x0 PUSH1 0x40 MLOAD DUP1 PUSH1 0x60 ADD PUSH1 0x40 MSTORE DUP1 PUSH1 0x40 DUP2 MSTORE PUSH1 0x20 ADD PUSH2 0x28DA PUSH1 0x40 SWAP2 CODECOPY SWAP1 POP PUSH1 0x0 PUSH1 0x3 PUSH1 0x2 DUP6 MLOAD PUSH2 0x1A9D SWAP2 SWAP1 PUSH2 0x23D0 JUMP JUMPDEST PUSH2 0x1AA7 SWAP2 SWAP1 PUSH2 0x225B JUMP JUMPDEST PUSH1 0x4 PUSH2 0x1AB3 SWAP2 SWAP1 PUSH2 0x2826 JUMP JUMPDEST PUSH8 0xFFFFFFFFFFFFFFFF DUP2 GT ISZERO PUSH2 0x1ACC JUMPI PUSH2 0x1ACB PUSH2 0x1F7B JUMP JUMPDEST JUMPDEST PUSH1 0x40 MLOAD SWAP1 DUP1 DUP3 MSTORE DUP1 PUSH1 0x1F ADD PUSH1 0x1F NOT AND PUSH1 0x20 ADD DUP3 ADD PUSH1 0x40 MSTORE DUP1 ISZERO PUSH2 0x1AFE JUMPI DUP2 PUSH1 0x20 ADD PUSH1 0x1 DUP3 MUL DUP1 CALLDATASIZE DUP4 CALLDATACOPY DUP1 DUP3 ADD SWAP2 POP POP SWAP1 POP JUMPDEST POP SWAP1 POP PUSH1 0x1 DUP3 ADD PUSH1 0x20 DUP3 ADD DUP6 DUP7 MLOAD DUP8 ADD JUMPDEST DUP1 DUP3 LT ISZERO PUSH2 0x1B6A JUMPI PUSH1 0x3 DUP3 ADD SWAP2 POP DUP2 MLOAD PUSH1 0x3F DUP2 PUSH1 0x12 SHR AND DUP6 ADD MLOAD DUP5 MSTORE8 PUSH1 0x1 DUP5 ADD SWAP4 POP PUSH1 0x3F DUP2 PUSH1 0xC SHR AND DUP6 ADD MLOAD DUP5 MSTORE8 PUSH1 0x1 DUP5 ADD SWAP4 POP PUSH1 0x3F DUP2 PUSH1 0x6 SHR AND DUP6 ADD MLOAD DUP5 MSTORE8 PUSH1 0x1 DUP5 ADD SWAP4 POP PUSH1 0x3F DUP2 AND DUP6 ADD MLOAD DUP5 MSTORE8 PUSH1 0x1 DUP5 ADD SWAP4 POP POP PUSH2 0x1B0F JUMP JUMPDEST POP POP PUSH1 0x3 DUP7 MLOAD MOD PUSH1 0x1 DUP2 EQ PUSH2 0x1B86 JUMPI PUSH1 0x2 DUP2 EQ PUSH2 0x1B99 JUMPI PUSH2 0x1BA1 JUMP JUMPDEST PUSH1 0x3D PUSH1 0x1 DUP4 SUB MSTORE8 PUSH1 0x3D PUSH1 0x2 DUP4 SUB MSTORE8 PUSH2 0x1BA1 JUMP JUMPDEST PUSH1 0x3D PUSH1 0x1 DUP4 SUB MSTORE8 JUMPDEST POP POP POP DUP1 SWAP3 POP POP POP JUMPDEST SWAP2 SWAP1 POP JUMP JUMPDEST PUSH1 0x0 PUSH1 0x40 MLOAD SWAP1 POP SWAP1 JUMP JUMPDEST PUSH1 0x0 DUP1 REVERT JUMPDEST PUSH1 0x0 DUP1 REVERT JUMPDEST PUSH1 0x0 PUSH32 0xFFFFFFFF00000000000000000000000000000000000000000000000000000000 DUP3 AND SWAP1 POP SWAP2 SWAP1 POP JUMP JUMPDEST PUSH2 0x1BF8 DUP2 PUSH2 0x1BC3 JUMP JUMPDEST DUP2 EQ PUSH2 0x1C03 JUMPI PUSH1 0x0 DUP1 REVERT JUMPDEST POP JUMP JUMPDEST PUSH1 0x0 DUP2 CALLDATALOAD SWAP1 POP PUSH2 0x1C15 DUP2 PUSH2 0x1BEF JUMP JUMPDEST SWAP3 SWAP2 POP POP JUMP JUMPDEST PUSH1 0x0 PUSH1 0x20 DUP3 DUP5 SUB SLT ISZERO PUSH2 0x1C31 JUMPI PUSH2 0x1C30 PUSH2 0x1BB9 JUMP JUMPDEST JUMPDEST PUSH1 0x0 PUSH2 0x1C3F DUP5 DUP3 DUP6 ADD PUSH2 0x1C06 JUMP JUMPDEST SWAP2 POP POP SWAP3 SWAP2 POP POP JUMP JUMPDEST PUSH1 0x0 DUP2 ISZERO ISZERO SWAP1 POP SWAP2 SWAP1 POP JUMP JUMPDEST PUSH2 0x1C5D DUP2 PUSH2 0x1C48 JUMP JUMPDEST DUP3 MSTORE POP POP JUMP JUMPDEST PUSH1 0x0 PUSH1 0x20 DUP3 ADD SWAP1 POP PUSH2 0x1C78 PUSH1 0x0 DUP4 ADD DUP5 PUSH2 0x1C54 JUMP JUMPDEST SWAP3 SWAP2 POP POP JUMP JUMPDEST PUSH1 0x0 DUP2 MLOAD SWAP1 POP SWAP2 SWAP1 POP JUMP JUMPDEST PUSH1 0x0 DUP3 DUP3 MSTORE PUSH1 0x20 DUP3 ADD SWAP1 POP SWAP3 SWAP2 POP POP JUMP JUMPDEST PUSH1 0x0 JUMPDEST DUP4 DUP2 LT ISZERO PUSH2 0x1CB8 JUMPI DUP1 DUP3 ADD MLOAD DUP2 DUP5 ADD MSTORE PUSH1 0x20 DUP2 ADD SWAP1 POP PUSH2 0x1C9D JUMP JUMPDEST PUSH1 0x0 DUP5 DUP5 ADD MSTORE POP POP POP POP JUMP JUMPDEST PUSH1 0x0 PUSH1 0x1F NOT PUSH1 0x1F DUP4 ADD AND SWAP1 POP SWAP2 SWAP1 POP JUMP JUMPDEST PUSH1 0x0 PUSH2 0x1CE0 DUP3 PUSH2 0x1C7E JUMP JUMPDEST PUSH2 0x1CEA DUP2 DUP6 PUSH2 0x1C89 JUMP JUMPDEST SWAP4 POP PUSH2 0x1CFA DUP2 DUP6 PUSH1 0x20 DUP7 ADD PUSH2 0x1C9A JUMP JUMPDEST PUSH2 0x1D03 DUP2 PUSH2 0x1CC4 JUMP JUMPDEST DUP5 ADD SWAP2 POP POP SWAP3 SWAP2 POP POP JUMP JUMPDEST PUSH1 0x0 PUSH1 0x20 DUP3 ADD SWAP1 POP DUP2 DUP2 SUB PUSH1 0x0 DUP4 ADD MSTORE PUSH2 0x1D28 DUP2 DUP5 PUSH2 0x1CD5 JUMP JUMPDEST SWAP1 POP SWAP3 SWAP2 POP POP JUMP JUMPDEST PUSH1 0x0 DUP2 SWAP1 POP SWAP2 SWAP1 POP JUMP JUMPDEST PUSH2 0x1D43 DUP2 PUSH2 0x1D30 JUMP JUMPDEST DUP2 EQ PUSH2 0x1D4E JUMPI PUSH1 0x0 DUP1 REVERT JUMPDEST POP JUMP JUMPDEST PUSH1 0x0 DUP2 CALLDATALOAD SWAP1 POP PUSH2 0x1D60 DUP2 PUSH2 0x1D3A JUMP JUMPDEST SWAP3 SWAP2 POP POP JUMP JUMPDEST PUSH1 0x0 PUSH1 0x20 DUP3 DUP5 SUB SLT ISZERO PUSH2 0x1D7C JUMPI PUSH2 0x1D7B PUSH2 0x1BB9 JUMP JUMPDEST JUMPDEST PUSH1 0x0 PUSH2 0x1D8A DUP5 DUP3 DUP6 ADD PUSH2 0x1D51 JUMP JUMPDEST SWAP2 POP POP SWAP3 SWAP2 POP POP JUMP JUMPDEST PUSH1 0x0 PUSH20 0xFFFFFFFFFFFFFFFFFFFFFFFFFFFFFFFFFFFFFFFF DUP3 AND SWAP1 POP SWAP2 SWAP1 POP JUMP JUMPDEST PUSH1 0x0 PUSH2 0x1DBE DUP3 PUSH2 0x1D93 JUMP JUMPDEST SWAP1 POP SWAP2 SWAP1 POP JUMP JUMPDEST PUSH2 0x1DCE DUP2 PUSH2 0x1DB3 JUMP JUMPDEST DUP3 MSTORE POP POP JUMP JUMPDEST PUSH1 0x0 PUSH1 0x20 DUP3 ADD SWAP1 POP PUSH2 0x1DE9 PUSH1 0x0 DUP4 ADD DUP5 PUSH2 0x1DC5 JUMP JUMPDEST SWAP3 SWAP2 POP POP JUMP JUMPDEST PUSH2 0x1DF8 DUP2 PUSH2 0x1DB3 JUMP JUMPDEST DUP2 EQ PUSH2 0x1E03 JUMPI PUSH1 0x0 DUP1 REVERT JUMPDEST POP JUMP JUMPDEST PUSH1 0x0 DUP2 CALLDATALOAD SWAP1 POP PUSH2 0x1E15 DUP2 PUSH2 0x1DEF JUMP JUMPDEST SWAP3 SWAP2 POP POP JUMP JUMPDEST PUSH1 0x0 DUP1 PUSH1 0x40 DUP4 DUP6 SUB SLT ISZERO PUSH2 0x1E32 JUMPI PUSH2 0x1E31 PUSH2 0x1BB9 JUMP JUMPDEST JUMPDEST PUSH1 0x0 PUSH2 0x1E40 DUP6 DUP3 DUP7 ADD PUSH2 0x1E06 JUMP JUMPDEST SWAP3 POP POP PUSH1 0x20 PUSH2 0x1E51 DUP6 DUP3 DUP7 ADD PUSH2 0x1D51 JUMP JUMPDEST SWAP2 POP POP SWAP3 POP SWAP3 SWAP1 POP JUMP JUMPDEST PUSH2 0x1E64 DUP2 PUSH2 0x1D30 JUMP JUMPDEST DUP3 MSTORE POP POP JUMP JUMPDEST PUSH1 0x0 PUSH1 0x20 DUP3 ADD SWAP1 POP PUSH2 0x1E7F PUSH1 0x0 DUP4 ADD DUP5 PUSH2 0x1E5B JUMP JUMPDEST SWAP3 SWAP2 POP POP JUMP JUMPDEST PUSH1 0x0 DUP1 PUSH1 0x0 PUSH1 0x60 DUP5 DUP7 SUB SLT ISZERO PUSH2 0x1E9E JUMPI PUSH2 0x1E9D PUSH2 0x1BB9 JUMP JUMPDEST JUMPDEST PUSH1 0x0 PUSH2 0x1EAC DUP7 DUP3 DUP8 ADD PUSH2 0x1E06 JUMP JUMPDEST SWAP4 POP POP PUSH1 0x20 PUSH2 0x1EBD DUP7 DUP3 DUP8 ADD PUSH2 0x1E06 JUMP JUMPDEST SWAP3 POP POP PUSH1 0x40 PUSH2 0x1ECE DUP7 DUP3 DUP8 ADD PUSH2 0x1D51 JUMP JUMPDEST SWAP2 POP POP SWAP3 POP SWAP3 POP SWAP3 JUMP JUMPDEST PUSH1 0x0 PUSH1 0x20 DUP3 DUP5 SUB SLT ISZERO PUSH2 0x1EEE JUMPI PUSH2 0x1EED PUSH2 0x1BB9 JUMP JUMPDEST JUMPDEST PUSH1 0x0 PUSH2 0x1EFC DUP5 DUP3 DUP6 ADD PUSH2 0x1E06 JUMP JUMPDEST SWAP2 POP POP SWAP3 SWAP2 POP POP JUMP JUMPDEST PUSH2 0x1F0E DUP2 PUSH2 0x1C48 JUMP JUMPDEST DUP2 EQ PUSH2 0x1F19 JUMPI PUSH1 0x0 DUP1 REVERT JUMPDEST POP JUMP JUMPDEST PUSH1 0x0 DUP2 CALLDATALOAD SWAP1 POP PUSH2 0x1F2B DUP2 PUSH2 0x1F05 JUMP JUMPDEST SWAP3 SWAP2 POP POP JUMP JUMPDEST PUSH1 0x0 DUP1 PUSH1 0x40 DUP4 DUP6 SUB SLT ISZERO PUSH2 0x1F48 JUMPI PUSH2 0x1F47 PUSH2 0x1BB9 JUMP JUMPDEST JUMPDEST PUSH1 0x0 PUSH2 0x1F56 DUP6 DUP3 DUP7 ADD PUSH2 0x1E06 JUMP JUMPDEST SWAP3 POP POP PUSH1 0x20 PUSH2 0x1F67 DUP6 DUP3 DUP7 ADD PUSH2 0x1F1C JUMP JUMPDEST SWAP2 POP POP SWAP3 POP SWAP3 SWAP1 POP JUMP JUMPDEST PUSH1 0x0 DUP1 REVERT JUMPDEST PUSH1 0x0 DUP1 REVERT JUMPDEST PUSH32 0x4E487B7100000000000000000000000000000000000000000000000000000000 PUSH1 0x0 MSTORE PUSH1 0x41 PUSH1 0x4 MSTORE PUSH1 0x24 PUSH1 0x0 REVERT JUMPDEST PUSH2 0x1FB3 DUP3 PUSH2 0x1CC4 JUMP JUMPDEST DUP2 ADD DUP2 DUP2 LT PUSH8 0xFFFFFFFFFFFFFFFF DUP3 GT OR ISZERO PUSH2 0x1FD2 JUMPI PUSH2 0x1FD1 PUSH2 0x1F7B JUMP JUMPDEST JUMPDEST DUP1 PUSH1 0x40 MSTORE POP POP POP JUMP JUMPDEST PUSH1 0x0 PUSH2 0x1FE5 PUSH2 0x1BAF JUMP JUMPDEST SWAP1 POP PUSH2 0x1FF1 DUP3 DUP3 PUSH2 0x1FAA JUMP JUMPDEST SWAP2 SWAP1 POP JUMP JUMPDEST PUSH1 0x0 PUSH8 0xFFFFFFFFFFFFFFFF DUP3 GT ISZERO PUSH2 0x2011 JUMPI PUSH2 0x2010 PUSH2 0x1F7B JUMP JUMPDEST JUMPDEST PUSH2 0x201A DUP3 PUSH2 0x1CC4 JUMP JUMPDEST SWAP1 POP PUSH1 0x20 DUP2 ADD SWAP1 POP SWAP2 SWAP1 POP JUMP JUMPDEST DUP3 DUP2 DUP4 CALLDATACOPY PUSH1 0x0 DUP4 DUP4 ADD MSTORE POP POP POP JUMP JUMPDEST PUSH1 0x0 PUSH2 0x2049 PUSH2 0x2044 DUP5 PUSH2 0x1FF6 JUMP JUMPDEST PUSH2 0x1FDB JUMP JUMPDEST SWAP1 POP DUP3 DUP2 MSTORE PUSH1 0x20 DUP2 ADD DUP5 DUP5 DUP5 ADD GT ISZERO PUSH2 0x2065 JUMPI PUSH2 0x2064 PUSH2 0x1F76 JUMP JUMPDEST JUMPDEST PUSH2 0x2070 DUP5 DUP3 DUP6 PUSH2 0x2027 JUMP JUMPDEST POP SWAP4 SWAP3 POP POP POP JUMP JUMPDEST PUSH1 0x0 DUP3 PUSH1 0x1F DUP4 ADD SLT PUSH2 0x208D JUMPI PUSH2 0x208C PUSH2 0x1F71 JUMP JUMPDEST JUMPDEST DUP2 CALLDATALOAD PUSH2 0x209D DUP5 DUP3 PUSH1 0x20 DUP7 ADD PUSH2 0x2036 JUMP JUMPDEST SWAP2 POP POP SWAP3 SWAP2 POP POP JUMP JUMPDEST PUSH1 0x0 DUP1 PUSH1 0x0 DUP1 PUSH1 0x80 DUP6 DUP8 SUB SLT ISZERO PUSH2 0x20C0 JUMPI PUSH2 0x20BF PUSH2 0x1BB9 JUMP JUMPDEST JUMPDEST PUSH1 0x0 PUSH2 0x20CE DUP8 DUP3 DUP9 ADD PUSH2 0x1E06 JUMP JUMPDEST SWAP5 POP POP PUSH1 0x20 PUSH2 0x20DF DUP8 DUP3 DUP9 ADD PUSH2 0x1E06 JUMP JUMPDEST SWAP4 POP POP PUSH1 0x40 PUSH2 0x20F0 DUP8 DUP3 DUP9 ADD PUSH2 0x1D51 JUMP JUMPDEST SWAP3 POP POP PUSH1 0x60 DUP6 ADD CALLDATALOAD PUSH8 0xFFFFFFFFFFFFFFFF DUP2 GT ISZERO PUSH2 0x2111 JUMPI PUSH2 0x2110 PUSH2 0x1BBE JUMP JUMPDEST JUMPDEST PUSH2 0x211D DUP8 DUP3 DUP9 ADD PUSH2 0x2078 JUMP JUMPDEST SWAP2 POP POP SWAP3 SWAP6 SWAP2 SWAP5 POP SWAP3 POP JUMP JUMPDEST PUSH1 0x0 DUP1 PUSH1 0x40 DUP4 DUP6 SUB SLT ISZERO PUSH2 0x2140 JUMPI PUSH2 0x213F PUSH2 0x1BB9 JUMP JUMPDEST JUMPDEST PUSH1 0x0 PUSH2 0x214E DUP6 DUP3 DUP7 ADD PUSH2 0x1E06 JUMP JUMPDEST SWAP3 POP POP PUSH1 0x20 PUSH2 0x215F DUP6 DUP3 DUP7 ADD PUSH2 0x1E06 JUMP JUMPDEST SWAP2 POP POP SWAP3 POP SWAP3 SWAP1 POP JUMP JUMPDEST PUSH32 0x4E487B7100000000000000000000000000000000000000000000000000000000 PUSH1 0x0 MSTORE PUSH1 0x22 PUSH1 0x4 MSTORE PUSH1 0x24 PUSH1 0x0 REVERT JUMPDEST PUSH1 0x0 PUSH1 0x2 DUP3 DIV SWAP1 POP PUSH1 0x1 DUP3 AND DUP1 PUSH2 0x21B0 JUMPI PUSH1 0x7F DUP3 AND SWAP2 POP JUMPDEST PUSH1 0x20 DUP3 LT DUP2 SUB PUSH2 0x21C3 JUMPI PUSH2 0x21C2 PUSH2 0x2169 JUMP JUMPDEST JUMPDEST POP SWAP2 SWAP1 POP JUMP JUMPDEST PUSH32 0x4E487B7100000000000000000000000000000000000000000000000000000000 PUSH1 0x0 MSTORE PUSH1 0x11 PUSH1 0x4 MSTORE PUSH1 0x24 PUSH1 0x0 REVERT JUMPDEST PUSH1 0x0 PUSH2 0x2203 DUP3 PUSH2 0x1D30 JUMP JUMPDEST SWAP2 POP PUSH2 0x220E DUP4 PUSH2 0x1D30 JUMP JUMPDEST SWAP3 POP DUP3 DUP3 SUB SWAP1 POP DUP2 DUP2 GT ISZERO PUSH2 0x2226 JUMPI PUSH2 0x2225 PUSH2 0x21C9 JUMP JUMPDEST JUMPDEST SWAP3 SWAP2 POP POP JUMP JUMPDEST PUSH32 0x4E487B7100000000000000000000000000000000000000000000000000000000 PUSH1 0x0 MSTORE PUSH1 0x12 PUSH1 0x4 MSTORE PUSH1 0x24 PUSH1 0x0 REVERT JUMPDEST PUSH1 0x0 PUSH2 0x2266 DUP3 PUSH2 0x1D30 JUMP JUMPDEST SWAP2 POP PUSH2 0x2271 DUP4 PUSH2 0x1D30 JUMP JUMPDEST SWAP3 POP DUP3 PUSH2 0x2281 JUMPI PUSH2 0x2280 PUSH2 0x222C JUMP JUMPDEST JUMPDEST DUP3 DUP3 DIV SWAP1 POP SWAP3 SWAP2 POP POP JUMP JUMPDEST PUSH32 0x6E6F7420656E6F75676820657468000000000000000000000000000000000000 PUSH1 0x0 DUP3 ADD MSTORE POP JUMP JUMPDEST PUSH1 0x0 PUSH2 0x22C2 PUSH1 0xE DUP4 PUSH2 0x1C89 JUMP JUMPDEST SWAP2 POP PUSH2 0x22CD DUP3 PUSH2 0x228C JUMP JUMPDEST PUSH1 0x20 DUP3 ADD SWAP1 POP SWAP2 SWAP1 POP JUMP JUMPDEST PUSH1 0x0 PUSH1 0x20 DUP3 ADD SWAP1 POP DUP2 DUP2 SUB PUSH1 0x0 DUP4 ADD MSTORE PUSH2 0x22F1 DUP2 PUSH2 0x22B5 JUMP JUMPDEST SWAP1 POP SWAP2 SWAP1 POP JUMP JUMPDEST PUSH32 0x6D61782032302070657220747800000000000000000000000000000000000000 PUSH1 0x0 DUP3 ADD MSTORE POP JUMP JUMPDEST PUSH1 0x0 PUSH2 0x232E PUSH1 0xD DUP4 PUSH2 0x1C89 JUMP JUMPDEST SWAP2 POP PUSH2 0x2339 DUP3 PUSH2 0x22F8 JUMP JUMPDEST PUSH1 0x20 DUP3 ADD SWAP1 POP SWAP2 SWAP1 POP JUMP JUMPDEST PUSH1 0x0 PUSH1 0x20 DUP3 ADD SWAP1 POP DUP2 DUP2 SUB PUSH1 0x0 DUP4 ADD MSTORE PUSH2 0x235D DUP2 PUSH2 0x2321 JUMP JUMPDEST SWAP1 POP SWAP2 SWAP1 POP JUMP JUMPDEST PUSH32 0x6D696E7420697320636C6F736564000000000000000000000000000000000000 PUSH1 0x0 DUP3 ADD MSTORE POP JUMP JUMPDEST PUSH1 0x0 PUSH2 0x239A PUSH1 0xE DUP4 PUSH2 0x1C89 JUMP JUMPDEST SWAP2 POP PUSH2 0x23A5 DUP3 PUSH2 0x2364 JUMP JUMPDEST PUSH1 0x20 DUP3 ADD SWAP1 POP SWAP2 SWAP1 POP JUMP JUMPDEST PUSH1 0x0 PUSH1 0x20 DUP3 ADD SWAP1 POP DUP2 DUP2 SUB PUSH1 0x0 DUP4 ADD MSTORE PUSH2 0x23C9 DUP2 PUSH2 0x238D JUMP JUMPDEST SWAP1 POP SWAP2 SWAP1 POP JUMP JUMPDEST PUSH1 0x0 PUSH2 0x23DB DUP3 PUSH2 0x1D30 JUMP JUMPDEST SWAP2 POP PUSH2 0x23E6 DUP4 PUSH2 0x1D30 JUMP JUMPDEST SWAP3 POP DUP3 DUP3 ADD SWAP1 POP DUP1 DUP3 GT ISZERO PUSH2 0x23FE JUMPI PUSH2 0x23FD PUSH2 0x21C9 JUMP JUMPDEST JUMPDEST SWAP3 SWAP2 POP POP JUMP JUMPDEST PUSH1 0x0 PUSH2 0x240F DUP3 PUSH2 0x1D30 JUMP JUMPDEST SWAP2 POP PUSH32 0xFFFFFFFFFFFFFFFFFFFFFFFFFFFFFFFFFFFFFFFFFFFFFFFFFFFFFFFFFFFFFFFF DUP3 SUB PUSH2 0x2441 JUMPI PUSH2 0x2440 PUSH2 0x21C9 JUMP JUMPDEST JUMPDEST PUSH1 0x1 DUP3 ADD SWAP1 POP SWAP2 SWAP1 POP JUMP JUMPDEST PUSH32 0x4F776E61626C653A206E6577206F776E657220697320746865207A65726F2061 PUSH1 0x0 DUP3 ADD MSTORE PUSH32 0x6464726573730000000000000000000000000000000000000000000000000000 PUSH1 0x20 DUP3 ADD MSTORE POP JUMP JUMPDEST PUSH1 0x0 PUSH2 0x24A8 PUSH1 0x26 DUP4 PUSH2 0x1C89 JUMP JUMPDEST SWAP2 POP PUSH2 0x24B3 DUP3 PUSH2 0x244C JUMP JUMPDEST PUSH1 0x40 DUP3 ADD SWAP1 POP SWAP2 SWAP1 POP JUMP JUMPDEST PUSH1 0x0 PUSH1 0x20 DUP3 ADD SWAP1 POP DUP2 DUP2 SUB PUSH1 0x0 DUP4 ADD MSTORE PUSH2 0x24D7 DUP2 PUSH2 0x249B JUMP JUMPDEST SWAP1 POP SWAP2 SWAP1 POP JUMP JUMPDEST PUSH32 0x4F776E61626C653A2063616C6C6572206973206E6F7420746865206F776E6572 PUSH1 0x0 DUP3 ADD MSTORE POP JUMP JUMPDEST PUSH1 0x0 PUSH2 0x2514 PUSH1 0x20 DUP4 PUSH2 0x1C89 JUMP JUMPDEST SWAP2 POP PUSH2 0x251F DUP3 PUSH2 0x24DE JUMP JUMPDEST PUSH1 0x20 DUP3 ADD SWAP1 POP SWAP2 SWAP1 POP JUMP JUMPDEST PUSH1 0x0 PUSH1 0x20 DUP3 ADD SWAP1 POP DUP2 DUP2 SUB PUSH1 0x0 DUP4 ADD MSTORE PUSH2 0x2543 DUP2 PUSH2 0x2507 JUMP JUMPDEST SWAP1 POP SWAP2 SWAP1 POP JUMP JUMPDEST PUSH1 0x0 DUP2 MLOAD SWAP1 POP SWAP2 SWAP1 POP JUMP JUMPDEST PUSH1 0x0 DUP3 DUP3 MSTORE PUSH1 0x20 DUP3 ADD SWAP1 POP SWAP3 SWAP2 POP POP JUMP JUMPDEST PUSH1 0x0 PUSH2 0x2571 DUP3 PUSH2 0x254A JUMP JUMPDEST PUSH2 0x257B DUP2 DUP6 PUSH2 0x2555 JUMP JUMPDEST SWAP4 POP PUSH2 0x258B DUP2 DUP6 PUSH1 0x20 DUP7 ADD PUSH2 0x1C9A JUMP JUMPDEST PUSH2 0x2594 DUP2 PUSH2 0x1CC4 JUMP JUMPDEST DUP5 ADD SWAP2 POP POP SWAP3 SWAP2 POP POP JUMP JUMPDEST PUSH1 0x0 PUSH1 0x80 DUP3 ADD SWAP1 POP PUSH2 0x25B4 PUSH1 0x0 DUP4 ADD DUP8 PUSH2 0x1DC5 JUMP JUMPDEST PUSH2 0x25C1 PUSH1 0x20 DUP4 ADD DUP7 PUSH2 0x1DC5 JUMP JUMPDEST PUSH2 0x25CE PUSH1 0x40 DUP4 ADD DUP6 PUSH2 0x1E5B JUMP JUMPDEST DUP2 DUP2 SUB PUSH1 0x60 DUP4 ADD MSTORE PUSH2 0x25E0 DUP2 DUP5 PUSH2 0x2566 JUMP JUMPDEST SWAP1 POP SWAP6 SWAP5 POP POP POP POP POP JUMP JUMPDEST PUSH1 0x0 DUP2 MLOAD SWAP1 POP PUSH2 0x25FA DUP2 PUSH2 0x1BEF JUMP JUMPDEST SWAP3 SWAP2 POP POP JUMP JUMPDEST PUSH1 0x0 PUSH1 0x20 DUP3 DUP5 SUB SLT ISZERO PUSH2 0x2616 JUMPI PUSH2 0x2615 PUSH2 0x1BB9 JUMP JUMPDEST JUMPDEST PUSH1 0x0 PUSH2 0x2624 DUP5 DUP3 DUP6 ADD PUSH2 0x25EB JUMP JUMPDEST SWAP2 POP POP SWAP3 SWAP2 POP POP JUMP JUMPDEST PUSH1 0x0 DUP2 SWAP1 POP SWAP3 SWAP2 POP POP JUMP JUMPDEST PUSH32 0x7B226E616D65223A2022536E61636B7320000000000000000000000000000000 PUSH1 0x0 DUP3 ADD MSTORE POP JUMP JUMPDEST PUSH1 0x0 PUSH2 0x266E PUSH1 0x11 DUP4 PUSH2 0x262D JUMP JUMPDEST SWAP2 POP PUSH2 0x2679 DUP3 PUSH2 0x2638 JUMP JUMPDEST PUSH1 0x11 DUP3 ADD SWAP1 POP SWAP2 SWAP1 POP JUMP JUMPDEST PUSH1 0x0 PUSH2 0x268F DUP3 PUSH2 0x1C7E JUMP JUMPDEST PUSH2 0x2699 DUP2 DUP6 PUSH2 0x262D JUMP JUMPDEST SWAP4 POP PUSH2 0x26A9 DUP2 DUP6 PUSH1 0x20 DUP7 ADD PUSH2 0x1C9A JUMP JUMPDEST DUP1 DUP5 ADD SWAP2 POP POP SWAP3 SWAP2 POP POP JUMP JUMPDEST PUSH32 0x222C20226465736372697074696F6E223A20224865726520666F722074686520 PUSH1 0x0 DUP3 ADD MSTORE PUSH32 0x736E61636B732E222C2022696D616765223A2022000000000000000000000000 PUSH1 0x20 DUP3 ADD MSTORE POP JUMP JUMPDEST PUSH1 0x0 PUSH2 0x2711 PUSH1 0x34 DUP4 PUSH2 0x262D JUMP JUMPDEST SWAP2 POP PUSH2 0x271C DUP3 PUSH2 0x26B5 JUMP JUMPDEST PUSH1 0x34 DUP3 ADD SWAP1 POP SWAP2 SWAP1 POP JUMP JUMPDEST PUSH32 0x227D000000000000000000000000000000000000000000000000000000000000 PUSH1 0x0 DUP3 ADD MSTORE POP JUMP JUMPDEST PUSH1 0x0 PUSH2 0x275D PUSH1 0x2 DUP4 PUSH2 0x262D JUMP JUMPDEST SWAP2 POP PUSH2 0x2768 DUP3 PUSH2 0x2727 JUMP JUMPDEST PUSH1 0x2 DUP3 ADD SWAP1 POP SWAP2 SWAP1 POP JUMP JUMPDEST PUSH1 0x0 PUSH2 0x277E DUP3 PUSH2 0x2661 JUMP JUMPDEST SWAP2 POP PUSH2 0x278A DUP3 DUP6 PUSH2 0x2684 JUMP JUMPDEST SWAP2 POP PUSH2 0x2795 DUP3 PUSH2 0x2704 JUMP JUMPDEST SWAP2 POP PUSH2 0x27A1 DUP3 DUP5 PUSH2 0x2684 JUMP JUMPDEST SWAP2 POP PUSH2 0x27AC DUP3 PUSH2 0x2750 JUMP JUMPDEST SWAP2 POP DUP2 SWAP1 POP SWAP4 SWAP3 POP POP POP JUMP JUMPDEST PUSH32 0x646174613A6170706C69636174696F6E2F6A736F6E3B6261736536342C000000 PUSH1 0x0 DUP3 ADD MSTORE POP JUMP JUMPDEST PUSH1 0x0 PUSH2 0x27EE PUSH1 0x1D DUP4 PUSH2 0x262D JUMP JUMPDEST SWAP2 POP PUSH2 0x27F9 DUP3 PUSH2 0x27B8 JUMP JUMPDEST PUSH1 0x1D DUP3 ADD SWAP1 POP SWAP2 SWAP1 POP JUMP JUMPDEST PUSH1 0x0 PUSH2 0x280F DUP3 PUSH2 0x27E1 JUMP JUMPDEST SWAP2 POP PUSH2 0x281B DUP3 DUP5 PUSH2 0x2684 JUMP JUMPDEST SWAP2 POP DUP2 SWAP1 POP SWAP3 SWAP2 POP POP JUMP JUMPDEST PUSH1 0x0 PUSH2 0x2831 DUP3 PUSH2 0x1D30 JUMP JUMPDEST SWAP2 POP PUSH2 0x283C DUP4 PUSH2 0x1D30 JUMP JUMPDEST SWAP3 POP DUP3 DUP3 MUL PUSH2 0x284A DUP2 PUSH2 0x1D30 JUMP JUMPDEST SWAP2 POP DUP3 DUP3 DIV DUP5 EQ DUP4 ISZERO OR PUSH2 0x2861 JUMPI PUSH2 0x2860 PUSH2 0x21C9 JUMP JUMPDEST JUMPDEST POP SWAP3 SWAP2 POP POP JUMP JUMPDEST PUSH1 0x0 PUSH1 0xFF DUP3 AND SWAP1 POP SWAP2 SWAP1 POP JUMP JUMPDEST PUSH1 0x0 PUSH2 0x2880 DUP3 PUSH2 0x2868 JUMP JUMPDEST SWAP2 POP PUSH2 0x288B DUP4 PUSH2 0x2868 JUMP JUMPDEST SWAP3 POP DUP3 DUP3 ADD SWAP1 POP PUSH1 0xFF DUP2 GT ISZERO PUSH2 0x28A4 JUMPI PUSH2 0x28A3 PUSH2 0x21C9 JUMP JUMPDEST JUMPDEST SWAP3 SWAP2 POP POP JUMP JUMPDEST PUSH32 0x4E487B7100000000000000000000000000000000000000000000000000000000 PUSH1 0x0 MSTORE PUSH1 0x32 PUSH1 0x4 MSTORE PUSH1 0x24 PUSH1 0x0 REVERT INVALID COINBASE TIMESTAMP NUMBER PREVRANDAO GASLIMIT CHAINID SELFBALANCE BASEFEE 0x49 0x4A 0x4B 0x4C 0x4D 0x4E 0x4F POP MLOAD MSTORE MSTORE8 SLOAD SSTORE JUMP JUMPI PC MSIZE GAS PUSH2 0x6263 PUSH5 0x6566676869 PUSH11 0x6B6C6D6E6F707172737475 PUSH23 0x7778797A303132333435363738392B2F646174613A696D PUSH2 0x6765 0x2F PUSH20 0x76672B786D6C3B6261736536342C50484E325A79 TIMESTAMP CALLVALUE PUSH3 0x577875 PUSH4 0x7A306961 BASEFEE MSTORE ADDRESS PUSH4 0x446F764C CALLER PUSH5 0x3364793533 0x4D PUSH26 0x3576636D63764D6A41774D43397A646D6369494864705A48526F POP MSTORE8 0x49 PUSH26 0x4E6A51694947686C6157646F644430694D6A59304969426D6157 PUSH25 0x7350534A756232356C496A3438634746306143426D61577873 POP MSTORE8 0x49 PUSH11 0x52554A46516B5643496942 PUSH12 0x50534A4E4D43417761444932 0x4E BASEFEE MSIZE PUSH26 0x4E6A52494D486F694C7A3438634746306143426D615778735053 0x49 PUSH11 0x5A6D5A6D4969426B50534A 0x4E 0x4E PUSH11 0x51674E44686F4D544D3264 PUSH11 0x45324F4567324E486F694C PUSH27 0x3438634746306143426D615778735053496A526A56434E444D3049 PUSH10 0x426B50534A4E4F446B67 0x4F PREVRANDAO MSIZE PUSH22 0x4D6A45304D3159344E7934334E5767784D4334334E58 MSIZE PUSH21 0x4E4334324D446379614330784C6A557A4E5464324C SLOAD GASLIMIT PUSH22 0x4E544D314E3267744D5334314D7A5533646930784C6A SSTORE PUSH27 0x4E54646F4C5445754E544D314E3359784C6A557A4E54646F4C5445 PUSH22 0x4E544D314F4859784C6A557A4E54646F4C5445754E54 0x4D BALANCE 0x4E CALLER MSIZE PUSH25 0x4C6A557A4E54686F4C5445754E544D314E3359784C6A557A4E SLOAD PUSH5 0x494F446C61 0x49 PUSH10 0x382B5048426864476767 GAS PUSH14 0x6C7362443069493049354E544D77 0x4F MSTORE8 0x49 PUSH8 0x5A44306954546B31 0x4C PUSH11 0x45304D6A6B674F4441754D PREVRANDAO PUSH4 0x784E4859 PUSH21 0x4D5334314D7A553361444D754D4463784E4859784C PUSH11 0x557A4E5464494F546B754E PUSH27 0x56324D5334314D7A5533614445754E544D32566A67334C6A633153 PREVRANDAO PUSH12 0x354C6A6331646930304C6A59 PUSH24 0x4E7A4A6F4C5445754E544D314E3359744D5334314D7A5533 PUSH2 0x4330 PUSH25 0x4C6A557A4E5464324C5445754E544D314E3267744D5334314D PUSH27 0x553357694976506A78775958526F49475A706247773949694E464F SLOAD 0x49 PUSH25 0x4D6A456949475139496B30354D4334314D7A5533494467324C PUSH11 0x49784E444E6F4D5334314D PUSH27 0x5533566A67334C6A6331614330784C6A557A4E5464324C5445754E SLOAD 0x4D BALANCE 0x4E BALANCE PUSH16 0x694C7A3438634746306143426D615778 PUSH20 0x5053496A52544E424D5449774969426B50534A4E 0x4F SLOAD SSTORE PUSH22 0x4D5451794F5341344E6934794D54517A53446B354C6A PUSH4 0x31566A67 CALLER 0x4C PUSH11 0x6331614330304C6A59774E PUSH27 0x46324C5445754E544D314E316F694C7A3438634746306143426D61 JUMPI PUSH25 0x735053496A516A6B314D7A41354969426B50534A4E4F546B75 0x4E PUSH27 0x55674F444D754D5451794F4767784C6A557A4E6E59784C6A557A4E SLOAD PUSH9 0x494F546B754E7A5632 0x4C SLOAD GASLIMIT PUSH22 0x4E544D314F466F694C7A3438634746306143426D6157 PUSH25 0x735053496A52546B794D5449784969426B50534A4E4F544D75 0x4E PUSH11 0x41334D5341344D7934784E PREVRANDAO 0x49 CALLVALUE PUSH2 0x4445 PUSH22 0x4E544D314F4859784C6A557A4E54686F4C5445754E54 0x4D BALANCE 0x4F BASEFEE MSIZE PUSH21 0x4D5334314D7A5534576D307A4C6A41334D5455674D MSTORE8 CALLVALUE BALANCE 0x4D PUSH27 0x5534614445754E544D314E3359784C6A557A4E54646F4C5445754E SLOAD 0x4D BALANCE 0x4E CALLER MSIZE PUSH21 0x4D5334314D7A553357694976506A78775958526F49 SELFBALANCE GAS PUSH17 0x6247773949694E454E555932526A516949 SELFBALANCE MLOAD CODECOPY 0x49 PUSH12 0x30354F5334334E5341784D54 COINBASE PUSH22 0x4E7A67326469307A4C6A41334D6D67744F5334794D54 MLOAD PUSH27 0x646A4D754D446379614445754E544D314E3359784C6A557A4E5767 ORIGIN 0x4C PUSH11 0x45304D6A6C324C5445754E SLOAD 0x4D BALANCE MSTORE8 PREVRANDAO PUSH12 0x354C6A633157694976506A78 PUSH24 0x5958526F49475A706247773949694D334D4546444D6A5169 0x49 SELFBALANCE MLOAD CODECOPY 0x49 PUSH12 0x30354D6934774E7A45304944 GASLIMIT PUSH24 0x4E7934334D54526F4E6934784E444935646A45754E544D32 PUSH2 0x4330 ORIGIN 0x4C PUSH11 0x45304D6A6C324C5445754E SLOAD 0x4D ORIGIN JUMPI PUSH10 0x4976506A78775958526F 0x49 SELFBALANCE GAS PUSH17 0x6247773949694D314E54677A4D55496949 SELFBALANCE MLOAD CODECOPY 0x49 PUSH12 0x30354D7934324D4463784944 GASLIMIT PUSH24 0x4F5334794E57677A4C6A41334D5456324D5334314D7A5A6F 0x4C SLOAD 0x4D PUSH22 0x4D4463784E5859744D5334314D7A5A614969382B5048 TIMESTAMP PUSH9 0x644767675A6D6C7362 PREVRANDAO ADDRESS PUSH10 0x49305931516A517A4E43 0x49 PUSH8 0x5A44306954546B32 0x4C PUSH11 0x59334F4459674D5441324C PUSH11 0x45334F5767784C6A557A4E SLOAD PUSH5 0x324D533431 0x4D PUSH27 0x566F4C5445754E544D314E3359744D5334314D7A5661625330784C PUSH11 0x557A4E5463674D4767784C PUSH11 0x557A4E5464324D5334314D PUSH27 0x566F4C5445754E544D314E3359744D5334314D7A5661625441744D MSTORE8 CALLVALUE BALANCE 0x4D PUSH27 0x5A6F4D5334314D7A5533646A45754E544D32614330784C6A557A4E SLOAD PUSH5 0x324C544575 0x4E SLOAD 0x4D ORIGIN JUMPI PUSH10 0x4976506A78775958526F 0x49 SELFBALANCE GAS PUSH17 0x6247773949694E434F54557A4D446B6949 SELFBALANCE MLOAD CODECOPY 0x49 PUSH12 0x30354D6934774E7A45304944 GASLIMIT PUSH27 0x4D6934794F445A324D7934774E7A466F4E4334324D446379646930 PUSH25 0x4C6A557A4E6D67784C6A557A4E5464324C5445754E544D3153 PREVRANDAO PUSH12 0x354C6A6331646930304C6A59 PUSH24 0x4F4767744D5334314D7A5533646930784C6A557A4E576774 0x4D MSTORE8 CALLVALUE BALANCE 0x4D PUSH27 0x5533646A45754E544D31614330784C6A557A4E5464324D5334314D PUSH27 0x5A6F4C5445754E544D314F48597A4C6A41334D6D67744D5334314D PUSH27 0x553357694976506A78775958526F49475A706247773949694E464F SSTORE 0x4E GASLIMIT MLOAD PUSH11 0x6B6949475139496B30354D NUMBER CALLVALUE BALANCE 0x4D PUSH27 0x55334944457A4E53347A4E54646F4D5334314D7A5533646A45754E SLOAD 0x4D ORIGIN PUSH2 0x4330 PUSH25 0x4C6A557A4E5464324C5445754E544D32576D30784C6A557A4E SLOAD PUSH4 0x744D5334 BALANCE 0x4D PUSH27 0x5A6F4D5334314D7A5533646A45754E544D32614330784C6A557A4E SLOAD PUSH5 0x324C544575 0x4E SLOAD 0x4D ORIGIN JUMPI PUSH10 0x4976506A78775958526F 0x49 SELFBALANCE GAS PUSH17 0x6247773949694D35517A51324D44636949 SELFBALANCE MLOAD CODECOPY 0x49 PUSH12 0x30354D7934324D4463784944 GASLIMIT PUSH27 0x4D7934344D6A466F4D7934774E7A4531646A45754E544D32614330 PUSH27 0x4C6A41334D5456324C5445754E544D32576D307A4C6A41334D5455 PUSH21 0x4D5334314D7A566F4D5334314D7A5533646A45754E SLOAD 0x4D BALANCE PUSH2 0x4330 PUSH25 0x4C6A557A4E5464324C5445754E544D3157694976506A787759 PC MSTORE PUSH16 0x49475A706247773949694E4651304979 0x4E ADDRESS MLOAD PUSH10 0x49475139496B30354D43 CALLVALUE BALANCE 0x4D PUSH27 0x5533494445314D7934334F445A574D54597A53446B354C6A633164 PUSH10 0x30354C6A49784E476774 0x4D MSTORE8 CALLVALUE BALANCE 0x4D PUSH27 0x5533646930784C6A557A4E6D67744E6934784E444935646A45754E SLOAD 0x4D ORIGIN PUSH2 0x4330 PUSH25 0x4C6A557A4E5464614969382B50484268644767675A6D6C7362 PREVRANDAO ADDRESS PUSH10 0x497A56464D7A41775253 0x49 PUSH8 0x5A44306954546B77 0x4C PUSH11 0x557A4E5463674D5455344C PUSH11 0x4D354D3067354F5334334E PC MSIZE PUSH25 0x4C6A557A4E5767744F5334794D54517A646930784C6A557A4E JUMP PUSH16 0x694C7A3438634746306143426D615778 PUSH20 0x5053496A4E4549794E6A42444969426B50534A4E 0x4F SLOAD COINBASE PUSH22 0x4E544D314E7941784E546B754F54493453446B354C6A PUSH4 0x31646A45 PUSH22 0x4E544D32614330354C6A49784E444E324C5445754E54 0x4D ORIGIN JUMPI PUSH10 0x4976506A78775958526F 0x49 SELFBALANCE GAS PUSH17 0x6247773949694E464F5449784D6A456949 SELFBALANCE MLOAD CODECOPY 0x49 PUSH12 0x30354D4334314D7A55334944 GASLIMIT BALANCE 0x4E MSTORE8 CALLVALUE PUSH27 0x4D6A46494F546B754E7A56324D5334314D7A5A6F4C546B754D6A45 ADDRESS 0x4D CALLER MSIZE PUSH21 0x4D5334314D7A5A614969382B50484268644767675A PUSH14 0x6C7362443069497A637751554D79 0x4E NUMBER 0x49 PUSH8 0x5A44306954546B77 0x4C PUSH11 0x557A4E5463674D5455324C PUSH11 0x67314E3067354F5334334E PC MSIZE PUSH25 0x4C6A557A4E6D67744F5334794D54517A646930784C6A557A4E PUSH13 0x6F694C7A343863474630614342 PUSH14 0x615778735053496A526A56434E44 0x4D ADDRESS 0x49 PUSH10 0x426B50534A4E4F446B67 0x4D SLOAD PUSH8 0x784C6A51794F4859 PUSH27 0x4C6A41334D6D67784D6934794F445A324C544D754D44637953446B CALLDATALOAD 0x4C PUSH11 0x6331646930784C6A557A4E JUMPI PUSH8 0x744D5334314D7A55 CALLER PUSH5 0x6930784C6A SSTORE PUSH27 0x4E6D67744E6934784E444935646A45754E544D32614330784C6A55 PUSH27 0x4E5464324D5334314D7A56494F446C614969382B50484268644767 PUSH8 0x5A6D6C7362443069 0x49 ADDRESS SSTORE PUSH27 0x515445794D4349675A44306954546735494445344D6934354E6A52 PUSH16 0x4D5449754D6A6732646A45754E544D32 MSTORE8 PREVRANDAO PUSH8 0x35646930784C6A55 PUSH27 0x4E6C6F694C7A3438634746306143426D615778735053496A52546B PUSH26 0x4D5449784969426B50534A4E4F5459754E6A63344E6941784E7A PUSH8 0x754D7A5533614445 PUSH22 0x4E544D314E3359784C6A557A4E6D67744D5334314D7A SSTORE CALLER PUSH5 0x6930784C6A SSTORE PUSH27 0x4E6C6F694C7A3438634746306143426D615778735053496A4E7A42 TIMESTAMP MLOAD PUSH27 0x49304969426B50534A4E4F5449754D4463784E4341784E7A67754D PUSH27 0x5533614445754E544D314E3359784C6A557A4E6D67744D5334314D PUSH27 0x5533646930784C6A557A4E6C6F694C7A3438634746306143426D61 JUMPI PUSH25 0x735053496A52546B794D5449784969426B50534A4E4F544D75 0x4E PUSH11 0x41334D5341784E7A67754D PUSH27 0x5533614445754E544D314F4859784C6A557A4E6D67744D5334314D PUSH27 0x5534646930784C6A557A4E6C6F694C7A3438634746306143426D61 JUMPI PUSH25 0x735053496A4E7A4242517A49304969426B50534A4E4F545575 0x4D SLOAD MLOAD PUSH26 0x4F5341784E7A67754D7A5533614445754E544D314E3359784C6A SSTORE PUSH27 0x4E6D67744D5334314D7A5533646930784C6A557A4E6C6F694C7A34 CODESIZE PUSH4 0x47463061 NUMBER TIMESTAMP PUSH14 0x615778735053496A516A6B314D7A COINBASE CALLDATALOAD 0x49 PUSH10 0x426B50534A4E4D544532 0x4C PUSH11 0x59304D7941344D7934784E PREVRANDAO 0x49 CALLVALUE PUSH5 0x6A4D754D44 PUSH4 0x784E5767 ADDRESS 0x4C PUSH11 0x59774E3359744D5334314D PUSH27 0x5533614445754E544D32646930784C6A557A4E54686F4D5334314D PUSH27 0x56324C5451754E6A41334D5767744D5334314D7A56574E7A646F4C SLOAD GASLIMIT PUSH22 0x4E544D32646A45754E544D314E3267744D5334314D7A GAS ORIGIN 0x4D MSTORE8 CALLVALUE BALANCE 0x4D PUSH27 0x5533614330784C6A557A4E58597A4C6A41334D54526F4C5445754E SLOAD 0x4D ORIGIN JUMPI PUSH10 0x4976506A78775958526F 0x49 SELFBALANCE GAS PUSH17 0x6247773949694E464F554E45516A6B6949 SELFBALANCE MLOAD CODECOPY 0x49 PUSH12 0x30784D5455754D5441334944 PUSH8 0x324C6A49784E444E PUSH16 0x4D5334314D7A5A574F4463754E7A566F 0x4C SLOAD GASLIMIT PUSH22 0x4E544D32646930784C6A557A4E546461625445754E54 0x4D ORIGIN 0x4C SLOAD GASLIMIT PUSH22 0x4E544D314E3267784C6A557A4E6E59784C6A557A4E54 PUSH5 0x6F4C544575 0x4E SLOAD 0x4D ORIGIN PUSH5 0x6930784C6A SSTORE PUSH27 0x4E5464614969382B50484268644767675A6D6C7362443069497A6C PREVRANDAO 0x4E PREVRANDAO MSIZE PUSH24 0x4E7949675A443069545445784F4334784E7A6B674F445175 0x4E PUSH11 0x63344E6D677A4C6A41334D PC MSIZE PUSH25 0x4C6A557A4E54646F4C544D754D446378646930784C6A557A4E SLOAD PUSH5 0x6162544D75 0x4D PREVRANDAO PUSH4 0x784C5445 PUSH22 0x4E544D314F4767784C6A557A4E6E59784C6A557A4E54 PUSH9 0x6F4C5445754E544D32 PUSH5 0x6930784C6A SSTORE PUSH27 0x4E5468614969382B50484268644767675A6D6C7362443069493056 PREVRANDAO MLOAD PUSH11 0x4933524349675A44306954 SLOAD GASLIMIT PUSH25 0x4E5334784D4463674D5441304C6A59304D3359354C6A49784E SELFBALANCE PUSH8 0x354C6A49784E4859 PUSH21 0x4F5334794D54526F4C5445754E544D31646930784C PUSH11 0x557A4E6D67744E6934784E PREVRANDAO 0x4E ORIGIN 0x4D MSTORE8 CALLVALUE BALANCE 0x4D PUSH27 0x5A6F4C5445754E544D3257694976506A78775958526F49475A7062 SELFBALANCE PUSH24 0x3949694D3152544D774D45556949475139496B30784D5455 PUSH22 0x4D544133494445774F5334794E5767354C6A49784E48 MSIZE PUSH25 0x4C6A557A4E6D67744F5334794D5452324C5445754E544D3257 PUSH10 0x4976506A78775958526F 0x49 SELFBALANCE GAS PUSH17 0x6247773949694D30516A49324D454D6949 SELFBALANCE MLOAD CODECOPY 0x49 PUSH12 0x30784D5455754D5441334944 GASLIMIT PUSH25 0x4D4334334F445A6F4F5334794D5452324D5334314D7A566F4C SLOAD PUSH12 0x754D6A4530646930784C6A55 PUSH27 0x4E566F694C7A3438634746306143426D615778735053496A52546B PUSH26 0x4D5449784969426B50534A4E4D5445314C6A45774E7941784D44 MSIZE PUSH22 0x4D54633561446B754D6A4530646A45754E544D316143 ADDRESS CALLDATALOAD 0x4C PUSH11 0x49784E4859744D5334314D PUSH27 0x56614969382B50484268644767675A6D6C7362443069497A637751 SSTORE 0x4D PUSH26 0x4E4349675A443069545445784E5334784D4463674D5441334C6A PUSH4 0x784E4767 CALLDATALOAD 0x4C PUSH11 0x49784E4859784C6A557A4E PUSH14 0x67744F5334794D5452324C544575 0x4E SLOAD 0x4D ORIGIN JUMPI PUSH10 0x4976506A78775958526F 0x49 SELFBALANCE GAS PUSH17 0x6247773949694E474E5549304D7A516949 SELFBALANCE MLOAD CODECOPY 0x49 PUSH12 0x30784D544D754E5463784944 GASLIMIT PUSH27 0x4D6934794F445A324D7934774E7A466F4D5449754D6A6732646930 PUSH27 0x4C6A41334D5767744D5334314D7A5A324C5445754E544D32614330 PUSH25 0x4C6A557A4E5859744D5334314D7A5A6F4C5459754D54517A64 PUSH11 0x45754E544D32614330784C PUSH11 0x557A4E6E59784C6A557A4E PUSH14 0x67744D5334314D7A5A614969382B POP BASEFEE TIMESTAMP PUSH9 0x644767675A6D6C7362 PREVRANDAO ADDRESS PUSH10 0x4930557A515445794D43 0x49 PUSH8 0x5A44306954544578 0x4D PUSH26 0x34314E7A45674D544D7A4C6A67794D5767784D6934794F445A32 0x4D MSTORE8 CALLVALUE BALANCE 0x4D PUSH27 0x5A6F4C5445794C6A49344E6E59744D5334314D7A5A614969382B50 BASEFEE TIMESTAMP PUSH9 0x644767675A6D6C7362 PREVRANDAO ADDRESS PUSH10 0x493055354D6A45794D53 0x49 PUSH8 0x5A44306954544579 0x4D MSTORE8 CALLVALUE PUSH26 0x4E5341784D6A6B754D6A4530614445754E544D32646A45754E54 0x4D ORIGIN PUSH2 0x4330 PUSH25 0x4C6A557A4E6E59744D5334314D7A5A614969382B5048426864 SELFBALANCE PUSH8 0x675A6D6C73624430 PUSH10 0x497A637751554D794E43 0x49 PUSH8 0x5A44306954544578 0x4E PUSH10 0x34324E444D674D544935 0x4C PUSH11 0x49784E4767784C6A557A4E PUSH15 0x59784C6A557A4E6D67744D5334314D PUSH27 0x5A324C5445754E544D3257694976506A78775958526F49475A7062 SELFBALANCE PUSH24 0x3949694E464F5449784D6A456949475139496B30784D5467 PUSH22 0x4D546335494445794F5334794D54526F4D5334314D7A JUMP ORIGIN 0x4D MSTORE8 CALLVALUE BALANCE 0x4D PUSH27 0x5A6F4C5445754E544D31646930784C6A557A4E6C6F694C7A343863 SELFBALANCE CHAINID ADDRESS PUSH2 0x4342 PUSH14 0x615778735053496A4E7A4242517A 0x49 ADDRESS 0x49 PUSH10 0x426B50534A4E4D544535 0x4C PUSH11 0x63784E4341784D6A6B754D PUSH11 0x4530614445754E544D3264 PUSH11 0x45754E544D32614330784C PUSH11 0x557A4E6E59744D5334314D PUSH27 0x5A614969382B50484268644767675A6D6C73624430694930564451 PUSH11 0x4933524349675A44306954 SLOAD GASLIMIT PUSH25 0x4E5334784D4463674D54557A4C6A63344E6D67354C6A49784E BASEFEE MSIZE ORIGIN 0x4C PUSH11 0x45304D6D67744F5334794D SLOAD MSTORE ORIGIN 0x4C SLOAD MSIZE PUSH22 0x4D54517957694976506A78775958526F49475A706247 PUSH24 0x3949694E464F5459334E6B596949475139496B30784D544D PUSH22 0x4E546378494445314E53347A4D6A466F4D5334314D7A GAS ORIGIN 0x4D PUSH26 0x34774E7A4A6F4C5445754E544D326469307A4C6A41334D6C6F69 0x4C PUSH27 0x3438634746306143426D615778735053496A52546B794D54497849 PUSH10 0x426B50534A4E4D544531 0x4C PUSH11 0x45774E7941784E5455754D PUSH27 0x497861446B754D6A4530646A45754E544D32614330354C6A49784E BASEFEE MSIZE PUSH21 0x4D5334314D7A5A614969382B50484268644767675A PUSH14 0x6C736244306949305931516A517A 0x4E NUMBER 0x49 PUSH8 0x5A44306954544578 0x4E MSTORE8 CALLVALUE PUSH25 0x4D4463674D5455324C6A67314E3267354C6A49784E4859784C PUSH11 0x557A4E6D67744F5334794D SLOAD MSTORE ORIGIN 0x4C SLOAD GASLIMIT PUSH22 0x4E544D3257694976506A78775958526F49475A706247 PUSH24 0x3949694E464F5459334E6B596949475139496B30784D6A51 PUSH22 0x4D7A4978494445314E53347A4D6A466F4D5334314D7A GAS ORIGIN 0x4D PUSH26 0x34774E7A4A6F4C5445754E544D326469307A4C6A41334D6C6F69 0x4C PUSH27 0x3438634746306143426D615778735053496A526A56424F444D3049 PUSH10 0x426B50534A4E4D544930 0x4C PUSH11 0x4D794D5341784E7A59754F PREVRANDAO 0x49 PUSH25 0x614330784C6A557A4E5859784C6A557A4E6D67744D5334314D PUSH27 0x5A324D5334314D7A5A6F4C5445754E544D32646A45754E544D3161 NUMBER ADDRESS PUSH25 0x4C6A557A4E5859784C6A557A4E6D67744D5334314D7A5A324D MSTORE8 CALLVALUE BALANCE 0x4D PUSH27 0x5A6F4C5445754E544D32646A45754E544D3261446B754D6A453064 PUSH10 0x30354C6A49784E566F69 0x4C PUSH27 0x3438634746306143426D615778735053496A526A55354D544D3049 PUSH10 0x426B50534A4E4D544531 0x4C PUSH11 0x45774E7941784F4451754E JUMPI PUSH8 0x784C6A557A4E6E59 PUSH25 0x4C6A557A4E6D67744D5334314D7A5A574D5467304C6A566149 PUSH10 0x382B5048426864476767 GAS PUSH14 0x6C7362443069493055794F545579 0x4D MSTORE8 0x49 PUSH8 0x5A44306954544578 0x4E PUSH10 0x34324E444D674D546730 0x4C PUSH11 0x566F4D5334314D7A5A324D MSTORE8 CALLVALUE BALANCE 0x4D PUSH27 0x5A6F4C5445754E544D32566A45344E43343157694976506A787759 PC MSTORE PUSH16 0x49475A706247773949694E474E546B78 0x4D PUSH27 0x516949475139496B30784D6A45754D6A55674D5467304C6A566F4D MSTORE8 CALLVALUE BALANCE 0x4D PUSH27 0x5A324D5334314D7A5A6F4C5445754E544D32566A45344E43343157 PUSH10 0x4976506A78775958526F 0x49 SELFBALANCE GAS PUSH17 0x6247773949694E464D6A6B314D6A456949 SELFBALANCE MLOAD CODECOPY 0x49 PUSH12 0x30784D6A49754E7A67324944 GASLIMIT CALLVALUE 0x4E NUMBER CALLVALUE BALANCE PUSH2 0x4445 PUSH22 0x4E544D31646A45754E544D32614330784C6A557A4E56 MSIZE PUSH25 0x4F4451754E566F694C7A3438634746306143426D6157787350 MSTORE8 0x49 PUSH11 0x526A55354D544D30496942 PUSH12 0x50534A4E4D5449794C6A6334 0x4E PUSH10 0x41784E7A67754D7A5533 PUSH2 0x4445 PUSH22 0x4E544D31646A45754E544D32614330784C6A557A4E58 MSIZE PUSH21 0x4D5334314D7A5A614969382B50484268644767675A PUSH14 0x6C7362443069493055794F545579 0x4D MSTORE8 0x49 PUSH8 0x5A44306954544579 0x4D MSTORE8 CALLVALUE PUSH26 0x4E5341784E7A67754D7A5533614445754E544D32646A45754E54 0x4D ORIGIN PUSH2 0x4330 PUSH25 0x4C6A557A4E6E59744D5334314D7A5A614969382B5048426864 SELFBALANCE PUSH8 0x675A6D6C73624430 PUSH10 0x493059314F54457A4E43 0x49 PUSH8 0x5A44306954544579 0x4D MSTORE8 CALLVALUE PUSH26 0x4E5341784E7A6B754F446B7A614445754E544D32646A45754E54 0x4D BALANCE PUSH2 0x4330 PUSH25 0x4C6A557A4E6E59744D5334314D7A56614969382B5048426864 SELFBALANCE PUSH8 0x675A6D6C73624430 PUSH10 0x493055794F5455794D53 0x49 PUSH8 0x5A44306954544578 0x4F MSTORE8 CALLVALUE CALLER 0x4D SLOAD MLOAD PUSH8 0x4D5467794C6A6B32 0x4E SELFBALANCE PUSH8 0x784C6A557A4E6E59 PUSH25 0x4C6A557A4E6D67744D5334314D7A5A324C5445754E544D3257 PUSH10 0x4976506A78775958526F 0x49 SELFBALANCE GAS PUSH17 0x6247773949694E474E546B784D7A516949 SELFBALANCE MLOAD CODECOPY 0x49 PUSH12 0x30784D5467754D5463354944 GASLIMIT CALLVALUE 0x4D MSTORE8 CALLVALUE ADDRESS 0x4D PUSH11 0x686F4D5334314D7A56324D MSTORE8 CALLVALUE BALANCE 0x4D PUSH27 0x5A6F4C5445754E544D31646930784C6A557A4E6C6F694C7A343863 SELFBALANCE CHAINID ADDRESS PUSH2 0x4342 PUSH14 0x615778735053496A526A56434E44 0x4D ADDRESS 0x49 PUSH10 0x426B50534A4E4D544D34 0x4C PUSH11 0x45304D7941344D7934784E PREVRANDAO 0x49 CALLVALUE PUSH5 0x6A4D754D44 PUSH4 0x784E5767 PUSH25 0x4D6934794F445A324C544D754D4463784E5767744D5334314D PUSH27 0x5A324C5445754E544D314E3267744D5334314D7A5A324C5445754E SLOAD 0x4D BALANCE 0x4E ORIGIN PUSH8 0x744E6934784E444E ORIGIN 0x4D MSTORE8 CALLVALUE BALANCE 0x4D PUSH27 0x5533614330784C6A557A4E5859784C6A557A4E54646F4C5445754E SLOAD 0x4D ORIGIN JUMPI PUSH10 0x4976506A78775958526F 0x49 SELFBALANCE GAS PUSH17 0x6247773949694E464D3045784D6A416949 SELFBALANCE MLOAD CODECOPY 0x49 PUSH12 0x30784D7A67754D54517A4944 PUSH8 0x304C6A59334F445A PUSH16 0x4D5449754D6A6732646A45754E544D31 0x4E ORIGIN PUSH8 0x744D5449754D6A67 ORIGIN PUSH5 0x6930784C6A SSTORE PUSH27 0x4E5464614969382B50484268644767675A6D6C7362443069493055 CALLDATALOAD 0x4D PUSH11 0x45794D5349675A44306954 SLOAD GASLIMIT ADDRESS 0x4E MSTORE8 CALLVALUE CALLVALUE 0x4D PUSH11 0x45674F4441754D4463784E SELFBALANCE PUSH8 0x784C6A557A4E6E59 PUSH25 0x4C6A557A4E54646F4C5445754E544D32646930784C6A557A4E SLOAD PUSH5 0x614969382B POP BASEFEE TIMESTAMP PUSH9 0x644767675A6D6C7362 PREVRANDAO ADDRESS PUSH10 0x497A637751554D794E43 0x49 PUSH8 0x5A44306954544530 0x4D MSTORE8 CALLVALUE PUSH26 0x4D5451674F4441754D4463784E4767784C6A557A4E6E59784C6A SSTORE PUSH27 0x4E54646F4C5445754E544D32646930784C6A557A4E546461496938 0x2B POP BASEFEE TIMESTAMP PUSH9 0x644767675A6D6C7362 PREVRANDAO ADDRESS PUSH10 0x493055354D6A45794D53 0x49 PUSH8 0x5A44306954544530 0x4D PUSH10 0x34334E5341344D433477 0x4E PUSH27 0x4530614445754E544D32646A45754E544D314E3267744D5334314D PUSH27 0x5A324C5445754E544D314E316F694C7A3438634746306143426D61 JUMPI PUSH25 0x735053496A4E7A4242517A49304969426B50534A4E4D545130 0x4C PUSH11 0x49344E6941344D4334774E PUSH27 0x4530614445754E544D31646A45754E544D314E3267744D5334314D PUSH27 0x56324C5445754E544D314E316F694C7A3438634746306143426D61 JUMPI PUSH25 0x735053496A52554E434D6A64454969426B50534A4E4D544D35 0x4C PUSH11 0x59334F5341784D4451754E PUSH11 0x517A61446B754D6A453064 PUSH11 0x59754D54517A614330354C PUSH11 0x49784E4859744E6934784E PREVRANDAO 0x4E PUSH2 0x4969 CODESIZE 0x2B POP BASEFEE TIMESTAMP PUSH9 0x644767675A6D6C7362 PREVRANDAO ADDRESS PUSH10 0x493055354E6A63325269 0x49 PUSH8 0x5A4430695454457A 0x4F NUMBER CALLVALUE PUSH25 0x4E444D674D5441324C6A45334F5767784C6A557A4E6E597A4C PUSH11 0x41334D5767744D5334314D PUSH27 0x5A324C544D754D44637857694976506A78775958526F49475A7062 SELFBALANCE PUSH24 0x3949694E464F5449784D6A456949475139496B30784D7A6B PUSH22 0x4E6A6335494445774E6934784E7A6C6F4F5334794D54 MSTORE ORIGIN 0x4D MSTORE8 CALLVALUE BALANCE 0x4D PUSH27 0x566F4C546B754D6A4530646930784C6A557A4E566F694C7A343863 SELFBALANCE CHAINID ADDRESS PUSH2 0x4342 PUSH14 0x615778735053496A526A56434E44 0x4D ADDRESS 0x49 PUSH10 0x426B50534A4E4D544D35 0x4C PUSH11 0x59334F5341784D4463754E PUSH27 0x453061446B754D6A4530646A45754E544D32614330354C6A49784E BASEFEE MSIZE PUSH21 0x4D5334314D7A5A614969382B50484268644767675A PUSH14 0x6C7362443069493055354E6A6332 MSTORE PUSH10 0x49675A44306954544530 0x4F NUMBER CALLVALUE CALLVALUE 0x4F SLOAD 0x4D PUSH8 0x4D5441324C6A4533 0x4F JUMPI PUSH8 0x784C6A557A4E6E59 PUSH27 0x4C6A41334D5767744D5334314D7A5A324C544D754D446378576949 PUSH23 0x506A78775958526F49475A706247773949694E474E5545 CALLVALUE 0x4D PUSH27 0x516949475139496B30784E4467754F446B7A494445794E7934324E PUSH27 0x686F4C5445754E544D32646A45754E544D32614330784C6A557A4E PUSH15 0x59784C6A557A4E6D67744D5334314D PUSH27 0x56324D5334314D7A5A6F4C5445754E544D32646A45754E544D3161 NUMBER ADDRESS PUSH25 0x4C6A557A4E6E59784C6A557A4E6D67744D5334314D7A56324D MSTORE8 CALLVALUE BALANCE 0x4D PUSH27 0x5A6F4F5334794D5452324C546B754D6A453157694976506A787759 PC MSTORE PUSH16 0x49475A706247773949694E474E546B78 0x4D PUSH27 0x516949475139496B30784D7A6B754E6A63354944457A4E53347A4E SLOAD PUSH5 0x6F4D533431 0x4D PUSH27 0x56324D5334314D7A5A6F4C5445754E544D31646930784C6A557A4E PUSH13 0x6F694C7A343863474630614342 PUSH14 0x615778735053496A525449354E54 0x49 PUSH25 0x4969426B50534A4E4D5451784C6A49784E4341784D7A55754D PUSH27 0x5533614445754E544D32646A45754E544D32614330784C6A557A4E PUSH15 0x59744D5334314D7A5A614969382B50 BASEFEE TIMESTAMP PUSH9 0x644767675A6D6C7362 PREVRANDAO ADDRESS PUSH10 0x493059314F54457A4E43 0x49 PUSH8 0x5A44306954544530 0x4E MSTORE8 CALLVALUE CALLVALUE 0x4D PUSH11 0x45674D544D314C6A4D314E ORIGIN PUSH8 0x784C6A557A4E6E59 PUSH25 0x4C6A557A4E6D67744D5334314D7A5A324C5445754E544D3257 PUSH10 0x4976506A78775958526F 0x49 SELFBALANCE GAS PUSH17 0x6247773949694E464D6A6B314D6A456949 SELFBALANCE MLOAD CODECOPY 0x49 PUSH12 0x30784E4463754D7A55334944 GASLIMIT PUSH27 0x4E53347A4E54646F4D5334314D7A5A324D5334314D7A5A6F4C5445 PUSH22 0x4E544D32646930784C6A557A4E6C6F694C7A34386347 CHAINID ADDRESS PUSH2 0x4342 PUSH14 0x615778735053496A526A55354D54 0x4D ADDRESS 0x49 PUSH10 0x426B50534A4E4D545133 0x4C PUSH11 0x4D314E7941784D6A6B754D PUSH11 0x4530614445754E544D3264 PUSH11 0x45754E544D32614330784C PUSH11 0x557A4E6E59744D5334314D PUSH27 0x5A614969382B50484268644767675A6D6C7362443069493055794F SLOAD SSTORE PUSH26 0x4D5349675A443069545445304E5334344D6A45674D5449354C6A 0x49 PUSH25 0x4E4767784C6A557A4E6E59784C6A557A4E6D67744D5334314D PUSH27 0x5A324C5445754E544D3257694976506A78775958526F49475A7062 SELFBALANCE PUSH24 0x3949694E474E546B784D7A516949475139496B30784E4455 PUSH22 0x4F4449784944457A4D4334334E5767784C6A557A4E6E MSIZE PUSH25 0x4C6A557A4E6D67744D5334314D7A5A324C5445754E544D3257 PUSH10 0x4976506A78775958526F 0x49 SELFBALANCE GAS PUSH17 0x6247773949694E464D6A6B314D6A456949 SELFBALANCE MLOAD CODECOPY 0x49 PUSH12 0x30784E4451754D6A67324944 GASLIMIT PUSH27 0x4D7934344D6A466F4D5334314D7A56324D5334314D7A5A6F4C5445 PUSH22 0x4E544D31646930784C6A557A4E6C6F694C7A34386347 CHAINID ADDRESS PUSH2 0x4342 PUSH14 0x615778735053496A526A55354D54 0x4D ADDRESS 0x49 PUSH10 0x426B50534A4E4D545179 0x4C PUSH11 0x63314944457A4D6934794F PREVRANDAO GAS PUSH16 0x4D5334314D7A5A324D5334314D7A566F 0x4C SLOAD GASLIMIT PUSH22 0x4E544D32646930784C6A557A4E566F694C7A34386347 CHAINID ADDRESS PUSH2 0x4342 PUSH14 0x615778735053496A526A56434E44 0x4D ADDRESS 0x49 PUSH10 0x426B50534A4E4D544D34 0x4C PUSH11 0x45304D7941784E546B754F SLOAD 0x49 CALLVALUE PUSH5 0x6A45754E54 0x4D ORIGIN PUSH2 0x4445 PUSH24 0x4C6A6331646930304C6A59774E3267744D5334314D7A5A32 0x4C SLOAD GASLIMIT PUSH22 0x4E544D32614330784C6A557A4E6E59744D5334314D7A JUMP PUSH16 0x4C5445754E544D31646A45754E544D31 PUSH2 0x4330 PUSH25 0x4C6A557A4E6E59784C6A557A4E6D67744D5334314D7A5A324D MSTORE8 CALLVALUE BALANCE 0x4D PUSH27 0x5A6F4C5445754E544D31646A45754E544D31614330784C6A557A4E PUSH13 0x6F694C7A343863474630614342 PUSH14 0x615778735053496A516A6B314D7A COINBASE CALLDATALOAD 0x49 PUSH10 0x426B50534A4E4D545130 0x4C PUSH11 0x49344E6941784E544D754E PUSH27 0x6732646930784C6A557A4E6D677A4C6A41334D5859784C6A557A4E PUSH14 0x67784C6A557A4E6E59784C6A557A 0x4E JUMPI PUSH8 0x784C6A557A4E6E59 ORIGIN 0x4C PUSH11 0x45304D3267744D5334314D PUSH27 0x5A324C5451754E6A4133614330784C6A557A4E6E59744D5334314D PUSH27 0x5A6F4C5445754E544D32646930784C6A557A4E5767744D5334314D PUSH27 0x56614969382B50484268644767675A6D6C7362443069493055354D PUSH11 0x45794D5349675A44306954 SLOAD GASLIMIT PUSH27 0x4F5334324E7A6B674D5455354C6A6B794F4767784C6A557A4E5859 PUSH25 0x4C6A557A4E6D67744D5334314D7A56324C5445754E544D3257 PUSH10 0x4976506A78775958526F 0x49 SELFBALANCE GAS PUSH17 0x6247773949694E464D3045784D6A416949 SELFBALANCE MLOAD CODECOPY 0x49 PUSH12 0x30784E4451754D6A67324944 GASLIMIT BALANCE 0x4F MSTORE8 CALLVALUE CALLDATALOAD 0x4D PUSH11 0x686F4E4334324D4464324D MSTORE8 CALLVALUE BALANCE 0x4D PUSH27 0x5A6F4C5451754E6A4133646930784C6A557A4E6C6F694C7A343863 SELFBALANCE CHAINID ADDRESS PUSH2 0x4342 PUSH14 0x615778735053496A516A6B314D7A COINBASE CALLDATALOAD 0x49 PUSH10 0x426B50534A4E4D545134 0x4C PUSH11 0x67354D7941784E5459754F PREVRANDAO SSTORE CALLER PUSH2 0x4445 PUSH22 0x4E544D32646A45754E544D32614330784C6A557A4E6E MSIZE PUSH21 0x4D5334314D7A5A614969382B50484268644767675A PUSH14 0x6C7362443069493055354D6A4579 0x4D MSTORE8 0x49 PUSH8 0x5A44306954544530 0x4D PUSH10 0x34334E5341784E545975 0x4F PREVRANDAO SSTORE CALLER PUSH2 0x4445 PUSH22 0x4E544D32646A45754E544D32614330784C6A557A4E6E MSIZE PUSH21 0x4D5334314D7A5A6162544D754D446378494445754E SLOAD 0x4D ORIGIN PUSH2 0x4445 PUSH22 0x4E544D32646A45754E544D31614330784C6A557A4E6E MSIZE PUSH21 0x4D5334314D7A56614969382B50484268644767675A PUSH14 0x6C736244306949305131526A5A47 0x4E NUMBER 0x49 PUSH8 0x5A44306954544530 0x4F NUMBER CALLVALUE CALLVALUE 0x4F SLOAD 0x4D PUSH8 0x4D5467304C6A5632 0x4C SLOAD 0x4D PUSH22 0x4D446379614330354C6A49784E48597A4C6A41334D6D PUSH8 0x784C6A557A4E5859 PUSH25 0x4C6A557A4E6D67324C6A45304D3159784F4451754E5767784C PUSH11 0x557A4E6C6F694C7A343863 SELFBALANCE CHAINID ADDRESS PUSH2 0x4342 PUSH14 0x615778735053496A4E7A4242517A 0x49 ADDRESS 0x49 PUSH10 0x426B50534A4E4D545178 0x4C PUSH11 0x49784E4341784F4445754E PREVRANDAO 0x49 CALLVALUE PUSH2 0x4459 PUSH22 0x4D54517A646A45754E544D32614330324C6A45304D33 MSIZE PUSH21 0x4D5334314D7A5A614969382B50484268644767675A PUSH14 0x6C7362443069497A55314F444D78 MLOAD PUSH10 0x49675A44306954544530 0x4D PUSH10 0x34334E5341784F444975 0x4F SLOAD MSIZE ADDRESS PUSH2 0x444D PUSH22 0x4D446378646A45754E544D326143307A4C6A41334D58 MSIZE PUSH21 0x4D5334314D7A5A614969382B50484268644767675A PUSH14 0x6C736244306949305931516A517A 0x4E NUMBER 0x49 PUSH8 0x5A44306954544530 0x4E MSTORE8 CALLVALUE CALLVALUE 0x4D PUSH11 0x45674D5463354C6A67354D ORIGIN PUSH8 0x784C6A557A4E6E59 PUSH25 0x4C6A557A4E5767744D5334314D7A5A324C5445754E544D3157 PUSH14 0x30744D5334314D7A55674D476778 0x4C PUSH11 0x557A4E5859784C6A557A4E JUMPI PUSH8 0x744D5334314D7A56 ORIGIN 0x4C SLOAD GASLIMIT PUSH22 0x4E544D31576D30774C5445754E544D32614445754E54 0x4D BALANCE PUSH5 0x6A45754E54 0x4D ORIGIN PUSH2 0x4330 PUSH25 0x4C6A557A4E5859744D5334314D7A5A614969382B5048426864 SELFBALANCE PUSH8 0x675A6D6C73624430 PUSH10 0x493059315154677A4E43 0x49 PUSH8 0x5A44306954544533 0x4D PUSH26 0x34304E6A51674E7A67754E544D314E3267744D5334314D7A5632 0x4D MSTORE8 CALLVALUE BALANCE 0x4D PUSH27 0x5533614330784C6A557A4E6E59784C6A557A4E54646F4C5445754E SLOAD 0x4D ORIGIN PUSH5 0x6A45754E54 0x4D BALANCE 0x4E ORIGIN PUSH8 0x744D5334314D7A5A ORIGIN 0x4D MSTORE8 CALLVALUE BALANCE 0x4D PUSH27 0x5534614330784C6A557A4E5859784C6A557A4E54646F4C5445754E SLOAD 0x4D ORIGIN JUMP PUSH11 0x67334C6A633161446B754D PUSH11 0x4530646930354C6A49784E PREVRANDAO 0x4E PUSH2 0x4969 CODESIZE 0x2B POP BASEFEE TIMESTAMP PUSH9 0x644767675A6D6C7362 PREVRANDAO ADDRESS PUSH10 0x493059314F54457A4E43 0x49 PUSH8 0x5A44306954544532 0x4E NUMBER CALLVALUE PUSH26 0x4E5341344E6934794D54517A614445754E544D32566A67334C6A PUSH4 0x31614330 PUSH25 0x4C6A557A4E6E59744D5334314D7A553357694976506A787759 PC MSTORE PUSH16 0x49475A706247773949694E464D6A6B31 0x4D PUSH11 0x456949475139496B30784E PUSH11 0x55754E7A6732494467324C PUSH11 0x49784E444E6F4D5334314D PUSH27 0x56574F4463754E7A566F4C5445754E544D31646930784C6A557A4E SLOAD PUSH5 0x614969382B POP BASEFEE TIMESTAMP PUSH9 0x644767675A6D6C7362 PREVRANDAO ADDRESS PUSH10 0x493059314F54457A4E43 0x49 PUSH8 0x5A44306954544533 0x4D NUMBER CALLVALUE PUSH27 0x4F544D674F4459754D6A45304D3267784C6A557A4E6C59344E7934 CALLER 0x4E JUMPI PUSH8 0x744D5334314D7A5A ORIGIN 0x4C SLOAD GASLIMIT PUSH22 0x4E544D314E316F694C7A3438634746306143426D6157 PUSH25 0x735053496A525449354E5449784969426B50534A4E4D546378 0x4C PUSH11 0x6B794F5341344E6934794D SLOAD MLOAD PUSH27 0x614445754E544D31566A67334C6A6331614330784C6A557A4E5859 PUSH21 0x4D5334314D7A553357694976506A78775958526F49 SELFBALANCE GAS PUSH17 0x6247773949694E474E546B784D7A516949 SELFBALANCE MLOAD CODECOPY 0x49 PUSH12 0x30784E7A45754F5449354944 PUSH8 0x774C6A41334D5452 PUSH16 0x4D5334314D7A56324D5334314D7A5533 PUSH2 0x4330 PUSH25 0x4C6A557A4E5859744D5334314D7A553357694976506A787759 PC MSTORE PUSH16 0x49475A706247773949694E464D6A6B31 0x4D PUSH11 0x456949475139496B30784E PUSH27 0x41754D7A6B7A494467774C6A41334D54526F4D5334314D7A5A324D MSTORE8 CALLVALUE BALANCE 0x4D PUSH27 0x5533614330784C6A557A4E6E59744D5334314D7A55335769497650 PUSH11 0x78775958526F49475A7062 SELFBALANCE PUSH24 0x3949694E474E546B784D7A516949475139496B30784E7A41 PUSH22 0x4D7A6B7A494467784C6A59774E7A466F4D5334314D7A GAS ORIGIN 0x4D MSTORE8 CALLVALUE BALANCE 0x4D PUSH27 0x5533614330784C6A557A4E6E59744D5334314D7A55335769497650 PUSH11 0x78775958526F49475A7062 SELFBALANCE PUSH24 0x3949694E464D6A6B314D6A456949475139496B30784E6A67 PUSH22 0x4F445533494467304C6A59334F445A6F4D5334314D7A GAS ORIGIN 0x4D MSTORE8 CALLVALUE BALANCE 0x4D PUSH27 0x5533614330784C6A557A4E6E59744D5334314D7A55335769497650 PUSH11 0x78775958526F49475A7062 SELFBALANCE PUSH24 0x3949694E474E546B784D7A516949475139496B30784E6A63 PUSH22 0x4D7A49784944677A4C6A45304D6A686F4D5334314D7A GAS ORIGIN 0x4D MSTORE8 CALLVALUE BALANCE 0x4D PUSH27 0x5534614330784C6A557A4E6E59744D5334314D7A55345769497650 PUSH11 0x78775958526F49475A7062 SELFBALANCE PUSH24 0x3949694E474E5549304D7A516949475139496B30784E6A49 PUSH22 0x4E7A4530494445784D4334334F445A324D5334314D7A JUMP PUSH16 0x4D5441754E7A56324C5451754E6A4133 PUSH2 0x4330 PUSH25 0x4C6A557A4E5859744D5334314D7A566F4C5445754E544D3264 PUSH10 0x30784C6A557A4E6D6774 0x4D MSTORE8 CALLVALUE BALANCE 0x4D PUSH27 0x5A324D5334314D7A5A6F4C5445754E544D32646A45754E544D3161 NUMBER ADDRESS PUSH25 0x4C6A557A4E5859784C6A557A4E6D67744D5334314D7A5A324D MSTORE8 CALLVALUE BALANCE 0x4D PUSH27 0x5A6F4C5445754E544D3257694976506A78775958526F49475A7062 SELFBALANCE PUSH24 0x3949694E434F54557A4D446B6949475139496B30784E6A67 PUSH22 0x4F445533494445774E4334324E444E324C5445754E54 0x4D ORIGIN PUSH2 0x444D PUSH22 0x4D446379646A45754E544D32614445754E544D31646A GASLIMIT PUSH22 0x4E544D32534445334E5859324C6A45304D6D67744D53 CALLVALUE BALANCE 0x4D PUSH27 0x5A324C5451754E6A4133614330784C6A557A4E5859744D5334314D PUSH27 0x566F4C5445754E544D32646930784C6A557A4E6D67744D5334314D PUSH27 0x5A614969382B50484268644767675A6D6C7362443069493055354D PUSH11 0x45794D5349675A44306954 SLOAD GASLIMIT ORIGIN 0x4E NUMBER CALLVALUE PUSH26 0x4E5341784D5441754E7A6732614445754E544D32646A45754E54 0x4D BALANCE PUSH2 0x4330 PUSH25 0x4C6A557A4E6E59744D5334314D7A56614969382B5048426864 SELFBALANCE PUSH8 0x675A6D6C73624430 PUSH10 0x4930557A515445794D43 0x49 PUSH8 0x5A44306954544532 0x4F NUMBER CALLVALUE CALLVALUE 0x4E SLOAD PUSH4 0x674D5445 PUSH24 0x4C6A63344E6D67304C6A59774E3359784C6A557A4E576774 0x4E NUMBER CALLVALUE ORIGIN 0x4D PREVRANDAO PUSH5 0x324C544575 0x4E SLOAD 0x4D BALANCE JUMPI PUSH10 0x4976506A78775958526F 0x49 SELFBALANCE GAS PUSH17 0x6247773949694E434F54557A4D446B6949 SELFBALANCE MLOAD CODECOPY 0x49 PUSH12 0x30784E7A4D754E4459304944 GASLIMIT PUSH24 0x4E7934334D5452494D546331646A45754E544D3261433078 0x4C PUSH11 0x557A4E6E59744D5334314D PUSH27 0x5A614969382B50484268644767675A6D6C7362443069493055354D PUSH11 0x45794D5349675A44306954 SLOAD GASLIMIT ORIGIN 0x4E PUSH26 0x347A4D6A45674D5441334C6A63784E4767784C6A557A4E6E5978 0x4C PUSH11 0x557A4E6D67744D5334314D PUSH27 0x5A324C5445754E544D32576D307A4C6A41334D6941784C6A557A4E PUSH14 0x67784C6A557A4E6E59784C6A557A 0x4E PUSH14 0x67744D5334314D7A5A324C544575 0x4E SLOAD 0x4D ORIGIN JUMPI PUSH10 0x4976506A78775958526F 0x49 SELFBALANCE GAS PUSH17 0x6247773949694E454E555932526A516949 SELFBALANCE MLOAD CODECOPY 0x49 PUSH12 0x30784E7A4D754E4459304944 GASLIMIT PUSH27 0x4E53347A4E5464324C544D754D446378614330354C6A49784E4859 PUSH27 0x4C6A41334D5767784C6A557A4E6E59784C6A557A4E6D67324C6A45 ADDRESS 0x4D CALLER MSIZE PUSH21 0x4D5334314D7A5A6F4D5334314D7A56614969382B50 BASEFEE TIMESTAMP PUSH9 0x644767675A6D6C7362 PREVRANDAO ADDRESS PUSH10 0x497A637751554D794E43 0x49 PUSH8 0x5A44306954544532 0x4E MSTORE8 CALLVALUE CALLER 0x4F PREVRANDAO MSIZE PUSH8 0x4D544D794C6A4934 0x4E PUSH14 0x67324C6A45304D3359784C6A557A 0x4E JUMPI PUSH8 0x744E6934784E444E ORIGIN 0x4C SLOAD GASLIMIT PUSH22 0x4E544D3157694976506A78775958526F49475A706247 PUSH24 0x3949694D314E54677A4D55496949475139496B30784E6A63 PUSH22 0x4D7A49784944457A4D7934344D6A466F4D7934774E7A 0x4A ORIGIN 0x4D MSTORE8 CALLVALUE BALANCE 0x4D PUSH27 0x5A6F4C544D754D446379646930784C6A557A4E6C6F694C7A343863 SELFBALANCE CHAINID ADDRESS PUSH2 0x4342 PUSH14 0x615778735053496A526A56434E44 0x4D ADDRESS 0x49 PUSH10 0x426B50534A4E4D546377 0x4C PUSH11 0x4D354D7941784D7A41754E PUSH27 0x566F4D5334314D7A5A324D5334314D7A5A6F4C5445754E544D3264 PUSH10 0x30784C6A557A4E6C7074 0x4C SLOAD GASLIMIT PUSH22 0x4E544D324944426F4D5334314D7A5A324D5334314D7A GAS PUSH16 0x4C5445754E544D32646930784C6A557A 0x4E PUSH13 0x70744D4330784C6A557A4E6D67 PUSH25 0x4C6A557A4E6E59784C6A557A4E6D67744D5334314D7A5A324C SLOAD GASLIMIT PUSH22 0x4E544D3257694976506A78775958526F49475A706247 PUSH24 0x3949694E434F54557A4D446B6949475139496B30784E6A55 PUSH22 0x4E7A6732494445314E6934344E5464324D7934774E7A CHAINID PUSH16 0x4E4334324D4464324C5445754E544D31 PUSH2 0x4445 PUSH22 0x4E544D32646930784C6A557A4E6D67784C6A557A4E58 MSIZE PUSH21 0x4E4334324D44646F4C5445754E544D31646930784C PUSH11 0x557A4E6D67744D5334314D PUSH27 0x5A324D5334314D7A5A6F4C5445754E544D32646A45754E544D3261 NUMBER ADDRESS PUSH25 0x4C6A557A4E6E597A4C6A41334D5767744D5334314D7A566149 PUSH10 0x382B5048426864476767 GAS PUSH14 0x6C73624430694930553551305243 0x4F MSTORE8 0x49 PUSH8 0x5A44306954544532 0x4E NUMBER CALLVALUE PUSH26 0x4E5341784E546B754F544934614445754E544D32646A45754E54 0x4D ORIGIN PUSH2 0x4330 PUSH25 0x4C6A557A4E6E59744D5334314D7A5A61625445754E544D324C SLOAD GASLIMIT PUSH22 0x4E544D31614445754E544D31646A45754E544D316143 ADDRESS PUSH25 0x4C6A557A4E5859744D5334314D7A56614969382B5048426864 SELFBALANCE PUSH8 0x675A6D6C73624430 PUSH10 0x497A6C444E4459774E79 0x49 PUSH8 0x5A44306954544532 0x4E PUSH26 0x347A4D6A45674D5455344C6A4D354D32677A4C6A41334D6E5978 0x4C PUSH11 0x557A4E5767744D7934774E PUSH27 0x4A324C5445754E544D31576D307A4C6A41334D6930784C6A557A4E PUSH14 0x67784C6A557A4E6E59784C6A557A 0x4E PUSH14 0x67744D5334314D7A5A324C544575 0x4E SLOAD 0x4D ORIGIN JUMPI PUSH10 0x4976506A78775958526F 0x49 SELFBALANCE GAS PUSH17 0x6247773949694D7852454578526A496949 SELFBALANCE GAS PUSH17 0x62477774636E56735A5430695A585A6C62 PUSH14 0x396B5A4349675A44306954544533 0x4D MSTORE8 CALLVALUE CALLDATALOAD 0x4D PUSH11 0x6B674D54637A4C6A633161 NUMBER ADDRESS ORIGIN 0x4C PUSH11 0x45304D3359784C6A557A4E PUSH14 0x67744D5334314D7A5A324D533431 0x4D PUSH27 0x566F4C5445754E544D32646A59754D54517A614445754E544D3264 PUSH11 0x45754E544D32614445754E SLOAD 0x4D ORIGIN PUSH5 0x6A45754E54 0x4D ORIGIN PUSH2 0x4459 PUSH22 0x4D54517A566A45344E433431614445754E544D316469 ADDRESS PUSH25 0x4C6A557A4E6B67784E7A56324C5459754D54517A614330784C PUSH11 0x557A4E6E59744D5334314D PUSH27 0x566F4C5445754E544D31646930784C6A557A4E6C70744C5459754D SLOAD MLOAD PUSH27 0x494459754D54517A614445754E544D31646A45754E544D31614330 PUSH25 0x4C6A557A4E5859744D5334314D7A566162544D754D44637849 PREVRANDAO GASLIMIT PUSH22 0x4E544D31646A45754E544D32614330784C6A557A4E6E MSIZE PUSH21 0x4D5334314D7A5A6F4D5334314D7A5A61625445754E SLOAD 0x4D ORIGIN 0x4C SLOAD GASLIMIT PUSH22 0x4E544D31614330784C6A557A4E6E59784C6A557A4E57 PUSH8 0x784C6A557A4E6E59 PUSH21 0x4D5334314D7A5661625441674D4859744D5334314D PUSH27 0x5A6F4D5334314D7A5A324D5334314D7A5A6F4C5445754E544D3257 PUSH10 0x49675932787063433179 PUSH5 0x57786C5053 0x4A PUSH13 0x646D56756232526B4969382B50 NUMBER CODECOPY PUSH27 0x646D632BA2646970667358221220E33850D9EEB87A4B8B66E2AD49 0xCB PC 0xC7 PUSH10 0x589915B94196B70AF20 CREATE2 CALLDATASIZE JUMPI 0x5F RETURNDATASIZE PUSH5 0x736F6C6343 STOP ADDMOD SLT STOP CALLER "
		},
		"gasEstimates": {
			"creation": {
				"codeDepositCost": "4737800",
				"executionCost": "infinite",
				"totalCost": "infinite"
			},
			"external": {
				"approve(address,uint256)": "infinite",
				"balanceOf(address)": "2993",
				"getApproved(uint256)": "7389",
				"getPrice(uint256)": "infinite",
				"isApprovedForAll(address,address)": "infinite",
				"mint(uint256)": "infinite",
				"minutesRemaining(uint256)": "infinite",
				"name()": "infinite",
				"owner()": "2589",
				"ownerOf(uint256)": "infinite",
				"renounceOwnership()": "30421",
				"safeTransferFrom(address,address,uint256)": "infinite",
				"safeTransferFrom(address,address,uint256,bytes)": "infinite",
				"secondsRemaining(uint256)": "infinite",
				"setApprovalForAll(address,bool)": "infinite",
				"supportsInterface(bytes4)": "745",
				"symbol()": "infinite",
				"tokenURI(uint256)": "infinite",
				"totalSupply()": "4696",
				"transferFrom(address,address,uint256)": "infinite",
				"transferOwnership(address)": "30876"
			},
			"internal": {
				"_startTokenId()": "23"
			}
		},
		"methodIdentifiers": {
			"approve(address,uint256)": "095ea7b3",
			"balanceOf(address)": "70a08231",
			"getApproved(uint256)": "081812fc",
			"getPrice(uint256)": "e7572230",
			"isApprovedForAll(address,address)": "e985e9c5",
			"mint(uint256)": "a0712d68",
			"minutesRemaining(uint256)": "85bb3654",
			"name()": "06fdde03",
			"owner()": "8da5cb5b",
			"ownerOf(uint256)": "6352211e",
			"renounceOwnership()": "715018a6",
			"safeTransferFrom(address,address,uint256)": "42842e0e",
			"safeTransferFrom(address,address,uint256,bytes)": "b88d4fde",
			"secondsRemaining(uint256)": "65ae654e",
			"setApprovalForAll(address,bool)": "a22cb465",
			"supportsInterface(bytes4)": "01ffc9a7",
			"symbol()": "95d89b41",
			"tokenURI(uint256)": "c87b56dd",
			"totalSupply()": "18160ddd",
			"transferFrom(address,address,uint256)": "23b872dd",
			"transferOwnership(address)": "f2fde38b"
		}
	},
	"abi": [
		{
			"inputs": [],
			"stateMutability": "nonpayable",
			"type": "constructor"
		},
		{
			"inputs": [],
			"name": "ApprovalCallerNotOwnerNorApproved",
			"type": "error"
		},
		{
			"inputs": [],
			"name": "ApprovalQueryForNonexistentToken",
			"type": "error"
		},
		{
			"inputs": [],
			"name": "BalanceQueryForZeroAddress",
			"type": "error"
		},
		{
			"inputs": [],
			"name": "MintERC2309QuantityExceedsLimit",
			"type": "error"
		},
		{
			"inputs": [],
			"name": "MintToZeroAddress",
			"type": "error"
		},
		{
			"inputs": [],
			"name": "MintZeroQuantity",
			"type": "error"
		},
		{
			"inputs": [],
			"name": "OwnerQueryForNonexistentToken",
			"type": "error"
		},
		{
			"inputs": [],
			"name": "OwnershipNotInitializedForExtraData",
			"type": "error"
		},
		{
			"inputs": [],
			"name": "TransferCallerNotOwnerNorApproved",
			"type": "error"
		},
		{
			"inputs": [],
			"name": "TransferFromIncorrectOwner",
			"type": "error"
		},
		{
			"inputs": [],
			"name": "TransferToNonERC721ReceiverImplementer",
			"type": "error"
		},
		{
			"inputs": [],
			"name": "TransferToZeroAddress",
			"type": "error"
		},
		{
			"inputs": [],
			"name": "URIQueryForNonexistentToken",
			"type": "error"
		},
		{
			"anonymous": false,
			"inputs": [
				{
					"indexed": true,
					"internalType": "address",
					"name": "owner",
					"type": "address"
				},
				{
					"indexed": true,
					"internalType": "address",
					"name": "approved",
					"type": "address"
				},
				{
					"indexed": true,
					"internalType": "uint256",
					"name": "tokenId",
					"type": "uint256"
				}
			],
			"name": "Approval",
			"type": "event"
		},
		{
			"anonymous": false,
			"inputs": [
				{
					"indexed": true,
					"internalType": "address",
					"name": "owner",
					"type": "address"
				},
				{
					"indexed": true,
					"internalType": "address",
					"name": "operator",
					"type": "address"
				},
				{
					"indexed": false,
					"internalType": "bool",
					"name": "approved",
					"type": "bool"
				}
			],
			"name": "ApprovalForAll",
			"type": "event"
		},
		{
			"anonymous": false,
			"inputs": [
				{
					"indexed": true,
					"internalType": "uint256",
					"name": "fromTokenId",
					"type": "uint256"
				},
				{
					"indexed": false,
					"internalType": "uint256",
					"name": "toTokenId",
					"type": "uint256"
				},
				{
					"indexed": true,
					"internalType": "address",
					"name": "from",
					"type": "address"
				},
				{
					"indexed": true,
					"internalType": "address",
					"name": "to",
					"type": "address"
				}
			],
			"name": "ConsecutiveTransfer",
			"type": "event"
		},
		{
			"anonymous": false,
			"inputs": [
				{
					"indexed": true,
					"internalType": "address",
					"name": "previousOwner",
					"type": "address"
				},
				{
					"indexed": true,
					"internalType": "address",
					"name": "newOwner",
					"type": "address"
				}
			],
			"name": "OwnershipTransferred",
			"type": "event"
		},
		{
			"anonymous": false,
			"inputs": [
				{
					"indexed": true,
					"internalType": "address",
					"name": "from",
					"type": "address"
				},
				{
					"indexed": true,
					"internalType": "address",
					"name": "to",
					"type": "address"
				},
				{
					"indexed": true,
					"internalType": "uint256",
					"name": "tokenId",
					"type": "uint256"
				}
			],
			"name": "Transfer",
			"type": "event"
		},
		{
			"inputs": [
				{
					"internalType": "address",
					"name": "to",
					"type": "address"
				},
				{
					"internalType": "uint256",
					"name": "tokenId",
					"type": "uint256"
				}
			],
			"name": "approve",
			"outputs": [],
			"stateMutability": "payable",
			"type": "function"
		},
		{
			"inputs": [
				{
					"internalType": "address",
					"name": "owner",
					"type": "address"
				}
			],
			"name": "balanceOf",
			"outputs": [
				{
					"internalType": "uint256",
					"name": "",
					"type": "uint256"
				}
			],
			"stateMutability": "view",
			"type": "function"
		},
		{
			"inputs": [
				{
					"internalType": "uint256",
					"name": "tokenId",
					"type": "uint256"
				}
			],
			"name": "getApproved",
			"outputs": [
				{
					"internalType": "address",
					"name": "",
					"type": "address"
				}
			],
			"stateMutability": "view",
			"type": "function"
		},
		{
			"inputs": [
				{
					"internalType": "uint256",
					"name": "quantity",
					"type": "uint256"
				}
			],
			"name": "getPrice",
			"outputs": [
				{
					"internalType": "uint256",
					"name": "",
					"type": "uint256"
				}
			],
			"stateMutability": "view",
			"type": "function"
		},
		{
			"inputs": [
				{
					"internalType": "address",
					"name": "owner",
					"type": "address"
				},
				{
					"internalType": "address",
					"name": "operator",
					"type": "address"
				}
			],
			"name": "isApprovedForAll",
			"outputs": [
				{
					"internalType": "bool",
					"name": "",
					"type": "bool"
				}
			],
			"stateMutability": "view",
			"type": "function"
		},
		{
			"inputs": [
				{
					"internalType": "uint256",
					"name": "quantity",
					"type": "uint256"
				}
			],
			"name": "mint",
			"outputs": [],
			"stateMutability": "payable",
			"type": "function"
		},
		{
			"inputs": [
				{
					"internalType": "uint256",
					"name": "end",
					"type": "uint256"
				}
			],
			"name": "minutesRemaining",
			"outputs": [
				{
					"internalType": "uint256",
					"name": "",
					"type": "uint256"
				}
			],
			"stateMutability": "view",
			"type": "function"
		},
		{
			"inputs": [],
			"name": "name",
			"outputs": [
				{
					"internalType": "string",
					"name": "",
					"type": "string"
				}
			],
			"stateMutability": "view",
			"type": "function"
		},
		{
			"inputs": [],
			"name": "owner",
			"outputs": [
				{
					"internalType": "address",
					"name": "",
					"type": "address"
				}
			],
			"stateMutability": "view",
			"type": "function"
		},
		{
			"inputs": [
				{
					"internalType": "uint256",
					"name": "tokenId",
					"type": "uint256"
				}
			],
			"name": "ownerOf",
			"outputs": [
				{
					"internalType": "address",
					"name": "",
					"type": "address"
				}
			],
			"stateMutability": "view",
			"type": "function"
		},
		{
			"inputs": [],
			"name": "renounceOwnership",
			"outputs": [],
			"stateMutability": "nonpayable",
			"type": "function"
		},
		{
			"inputs": [
				{
					"internalType": "address",
					"name": "from",
					"type": "address"
				},
				{
					"internalType": "address",
					"name": "to",
					"type": "address"
				},
				{
					"internalType": "uint256",
					"name": "tokenId",
					"type": "uint256"
				}
			],
			"name": "safeTransferFrom",
			"outputs": [],
			"stateMutability": "payable",
			"type": "function"
		},
		{
			"inputs": [
				{
					"internalType": "address",
					"name": "from",
					"type": "address"
				},
				{
					"internalType": "address",
					"name": "to",
					"type": "address"
				},
				{
					"internalType": "uint256",
					"name": "tokenId",
					"type": "uint256"
				},
				{
					"internalType": "bytes",
					"name": "_data",
					"type": "bytes"
				}
			],
			"name": "safeTransferFrom",
			"outputs": [],
			"stateMutability": "payable",
			"type": "function"
		},
		{
			"inputs": [
				{
					"internalType": "uint256",
					"name": "end",
					"type": "uint256"
				}
			],
			"name": "secondsRemaining",
			"outputs": [
				{
					"internalType": "uint256",
					"name": "",
					"type": "uint256"
				}
			],
			"stateMutability": "view",
			"type": "function"
		},
		{
			"inputs": [
				{
					"internalType": "address",
					"name": "operator",
					"type": "address"
				},
				{
					"internalType": "bool",
					"name": "approved",
					"type": "bool"
				}
			],
			"name": "setApprovalForAll",
			"outputs": [],
			"stateMutability": "nonpayable",
			"type": "function"
		},
		{
			"inputs": [
				{
					"internalType": "bytes4",
					"name": "interfaceId",
					"type": "bytes4"
				}
			],
			"name": "supportsInterface",
			"outputs": [
				{
					"internalType": "bool",
					"name": "",
					"type": "bool"
				}
			],
			"stateMutability": "view",
			"type": "function"
		},
		{
			"inputs": [],
			"name": "symbol",
			"outputs": [
				{
					"internalType": "string",
					"name": "",
					"type": "string"
				}
			],
			"stateMutability": "view",
			"type": "function"
		},
		{
			"inputs": [
				{
					"internalType": "uint256",
					"name": "tokenId",
					"type": "uint256"
				}
			],
			"name": "tokenURI",
			"outputs": [
				{
					"internalType": "string",
					"name": "",
					"type": "string"
				}
			],
			"stateMutability": "view",
			"type": "function"
		},
		{
			"inputs": [],
			"name": "totalSupply",
			"outputs": [
				{
					"internalType": "uint256",
					"name": "",
					"type": "uint256"
				}
			],
			"stateMutability": "view",
			"type": "function"
		},
		{
			"inputs": [
				{
					"internalType": "address",
					"name": "from",
					"type": "address"
				},
				{
					"internalType": "address",
					"name": "to",
					"type": "address"
				},
				{
					"internalType": "uint256",
					"name": "tokenId",
					"type": "uint256"
				}
			],
			"name": "transferFrom",
			"outputs": [],
			"stateMutability": "payable",
			"type": "function"
		},
		{
			"inputs": [
				{
					"internalType": "address",
					"name": "newOwner",
					"type": "address"
				}
			],
			"name": "transferOwnership",
			"outputs": [],
			"stateMutability": "nonpayable",
			"type": "function"
		}
	]
}